{
	"baoxian/data/basedata/Company.sol": {
		"Company": {
			"abi": [
				{
					"inputs": [
						{
							"internalType": "address",
							"name": "bakOwner",
							"type": "address"
						}
					],
					"stateMutability": "nonpayable",
					"type": "constructor"
				},
				{
					"inputs": [],
					"name": "_bakOwner",
					"outputs": [
						{
							"internalType": "address",
							"name": "",
							"type": "address"
						}
					],
					"stateMutability": "view",
					"type": "function"
				},
				{
					"inputs": [],
					"name": "_owner",
					"outputs": [
						{
							"internalType": "address",
							"name": "",
							"type": "address"
						}
					],
					"stateMutability": "view",
					"type": "function"
				},
				{
					"inputs": [
						{
							"internalType": "string",
							"name": "companyId",
							"type": "string"
						}
					],
					"name": "getData",
					"outputs": [
						{
							"internalType": "address",
							"name": "payAddress",
							"type": "address"
						}
					],
					"stateMutability": "view",
					"type": "function"
				},
				{
					"inputs": [
						{
							"internalType": "address",
							"name": "owner",
							"type": "address"
						}
					],
					"name": "setBakOwner",
					"outputs": [],
					"stateMutability": "nonpayable",
					"type": "function"
				},
				{
					"inputs": [
						{
							"internalType": "string",
							"name": "companyId",
							"type": "string"
						},
						{
							"internalType": "string",
							"name": "companyName",
							"type": "string"
						},
						{
							"internalType": "address",
							"name": "payAddress",
							"type": "address"
						}
					],
					"name": "setData",
					"outputs": [],
					"stateMutability": "nonpayable",
					"type": "function"
				},
				{
					"inputs": [
						{
							"internalType": "address",
							"name": "owner",
							"type": "address"
						}
					],
					"name": "setOwner",
					"outputs": [],
					"stateMutability": "nonpayable",
					"type": "function"
				}
			],
			"devdoc": {
				"kind": "dev",
				"methods": {},
				"version": 1
			},
			"evm": {
				"assembly": "    /* \"baoxian/data/basedata/Company.sol\":127:849  contract Company   is BasicAuth {   ... */\n  mstore(0x40, 0x80)\n    /* \"baoxian/data/basedata/Company.sol\":168:230  constructor(address bakOwner) BasicAuth(bakOwner){... */\n  callvalue\n  dup1\n  iszero\n  tag_1\n  jumpi\n  0x00\n  dup1\n  revert\ntag_1:\n  pop\n  mload(0x40)\n  sub(codesize, bytecodeSize)\n  dup1\n  bytecodeSize\n  dup4\n  codecopy\n  dup2\n  dup2\n  add\n  0x40\n  mstore\n  dup2\n  add\n  swap1\n  tag_2\n  swap2\n  swap1\n  tag_3\n  jump\t// in\ntag_2:\n    /* \"baoxian/data/basedata/Company.sol\":208:216  bakOwner */\n  dup1\n    /* \"baoxian/manager/BasicAuth.sol\":227:237  msg.sender */\n  caller\n    /* \"baoxian/manager/BasicAuth.sol\":218:224  _owner */\n  0x00\n  dup1\n    /* \"baoxian/manager/BasicAuth.sol\":218:237  _owner = msg.sender */\n  0x0100\n  exp\n  dup2\n  sload\n  dup2\n  0xffffffffffffffffffffffffffffffffffffffff\n  mul\n  not\n  and\n  swap1\n  dup4\n  0xffffffffffffffffffffffffffffffffffffffff\n  and\n  mul\n  or\n  swap1\n  sstore\n  pop\n    /* \"baoxian/manager/BasicAuth.sol\":258:266  bakOwner */\n  dup1\n    /* \"baoxian/manager/BasicAuth.sol\":246:255  _bakOwner */\n  0x01\n  0x00\n    /* \"baoxian/manager/BasicAuth.sol\":246:266  _bakOwner = bakOwner */\n  0x0100\n  exp\n  dup2\n  sload\n  dup2\n  0xffffffffffffffffffffffffffffffffffffffff\n  mul\n  not\n  and\n  swap1\n  dup4\n  0xffffffffffffffffffffffffffffffffffffffff\n  and\n  mul\n  or\n  swap1\n  sstore\n  pop\n    /* \"baoxian/manager/BasicAuth.sol\":179:276  constructor(address bakOwner) {... */\n  pop\n    /* \"baoxian/data/basedata/Company.sol\":168:230  constructor(address bakOwner) BasicAuth(bakOwner){... */\n  pop\n    /* \"baoxian/data/basedata/Company.sol\":127:849  contract Company   is BasicAuth {   ... */\n  jump(tag_8)\n    /* \"#utility.yul\":88:205   */\ntag_10:\n    /* \"#utility.yul\":197:198   */\n  0x00\n    /* \"#utility.yul\":194:195   */\n  dup1\n    /* \"#utility.yul\":187:199   */\n  revert\n    /* \"#utility.yul\":334:460   */\ntag_12:\n    /* \"#utility.yul\":371:378   */\n  0x00\n    /* \"#utility.yul\":411:453   */\n  0xffffffffffffffffffffffffffffffffffffffff\n    /* \"#utility.yul\":404:409   */\n  dup3\n    /* \"#utility.yul\":400:454   */\n  and\n    /* \"#utility.yul\":389:454   */\n  swap1\n  pop\n    /* \"#utility.yul\":334:460   */\n  swap2\n  swap1\n  pop\n  jump\t// out\n    /* \"#utility.yul\":466:562   */\ntag_13:\n    /* \"#utility.yul\":503:510   */\n  0x00\n    /* \"#utility.yul\":532:556   */\n  tag_22\n    /* \"#utility.yul\":550:555   */\n  dup3\n    /* \"#utility.yul\":532:556   */\n  tag_12\n  jump\t// in\ntag_22:\n    /* \"#utility.yul\":521:556   */\n  swap1\n  pop\n    /* \"#utility.yul\":466:562   */\n  swap2\n  swap1\n  pop\n  jump\t// out\n    /* \"#utility.yul\":568:690   */\ntag_14:\n    /* \"#utility.yul\":641:665   */\n  tag_24\n    /* \"#utility.yul\":659:664   */\n  dup2\n    /* \"#utility.yul\":641:665   */\n  tag_13\n  jump\t// in\ntag_24:\n    /* \"#utility.yul\":634:639   */\n  dup2\n    /* \"#utility.yul\":631:666   */\n  eq\n    /* \"#utility.yul\":621:684   */\n  tag_25\n  jumpi\n    /* \"#utility.yul\":680:681   */\n  0x00\n    /* \"#utility.yul\":677:678   */\n  dup1\n    /* \"#utility.yul\":670:682   */\n  revert\n    /* \"#utility.yul\":621:684   */\ntag_25:\n    /* \"#utility.yul\":568:690   */\n  pop\n  jump\t// out\n    /* \"#utility.yul\":696:839   */\ntag_15:\n    /* \"#utility.yul\":753:758   */\n  0x00\n    /* \"#utility.yul\":784:790   */\n  dup2\n    /* \"#utility.yul\":778:791   */\n  mload\n    /* \"#utility.yul\":769:791   */\n  swap1\n  pop\n    /* \"#utility.yul\":800:833   */\n  tag_27\n    /* \"#utility.yul\":827:832   */\n  dup2\n    /* \"#utility.yul\":800:833   */\n  tag_14\n  jump\t// in\ntag_27:\n    /* \"#utility.yul\":696:839   */\n  swap3\n  swap2\n  pop\n  pop\n  jump\t// out\n    /* \"#utility.yul\":845:1196   */\ntag_3:\n    /* \"#utility.yul\":915:921   */\n  0x00\n    /* \"#utility.yul\":964:966   */\n  0x20\n    /* \"#utility.yul\":952:961   */\n  dup3\n    /* \"#utility.yul\":943:950   */\n  dup5\n    /* \"#utility.yul\":939:962   */\n  sub\n    /* \"#utility.yul\":935:967   */\n  slt\n    /* \"#utility.yul\":932:1051   */\n  iszero\n  tag_29\n  jumpi\n    /* \"#utility.yul\":970:1049   */\n  tag_30\n  tag_10\n  jump\t// in\ntag_30:\n    /* \"#utility.yul\":932:1051   */\ntag_29:\n    /* \"#utility.yul\":1090:1091   */\n  0x00\n    /* \"#utility.yul\":1115:1179   */\n  tag_31\n    /* \"#utility.yul\":1171:1178   */\n  dup5\n    /* \"#utility.yul\":1162:1168   */\n  dup3\n    /* \"#utility.yul\":1151:1160   */\n  dup6\n    /* \"#utility.yul\":1147:1169   */\n  add\n    /* \"#utility.yul\":1115:1179   */\n  tag_15\n  jump\t// in\ntag_31:\n    /* \"#utility.yul\":1105:1179   */\n  swap2\n  pop\n    /* \"#utility.yul\":1061:1189   */\n  pop\n    /* \"#utility.yul\":845:1196   */\n  swap3\n  swap2\n  pop\n  pop\n  jump\t// out\n    /* \"baoxian/data/basedata/Company.sol\":127:849  contract Company   is BasicAuth {   ... */\ntag_8:\n  dataSize(sub_0)\n  dup1\n  dataOffset(sub_0)\n  0x00\n  codecopy\n  0x00\n  return\nstop\n\nsub_0: assembly {\n        /* \"baoxian/data/basedata/Company.sol\":127:849  contract Company   is BasicAuth {   ... */\n      mstore(0x40, 0x80)\n      callvalue\n      dup1\n      iszero\n      tag_1\n      jumpi\n      0x00\n      dup1\n      revert\n    tag_1:\n      pop\n      jumpi(tag_2, lt(calldatasize, 0x04))\n      shr(0xe0, calldataload(0x00))\n      dup1\n      0x13af4035\n      eq\n      tag_3\n      jumpi\n      dup1\n      0x84339c7c\n      eq\n      tag_4\n      jumpi\n      dup1\n      0x89c35961\n      eq\n      tag_5\n      jumpi\n      dup1\n      0xae55c888\n      eq\n      tag_6\n      jumpi\n      dup1\n      0xb2bdfa7b\n      eq\n      tag_7\n      jumpi\n      dup1\n      0xbe835066\n      eq\n      tag_8\n      jumpi\n    tag_2:\n      0x00\n      dup1\n      revert\n        /* \"baoxian/manager/BasicAuth.sol\":284:389  function setOwner(address owner)... */\n    tag_3:\n      tag_9\n      0x04\n      dup1\n      calldatasize\n      sub\n      dup2\n      add\n      swap1\n      tag_10\n      swap2\n      swap1\n      tag_11\n      jump\t// in\n    tag_10:\n      tag_12\n      jump\t// in\n    tag_9:\n      stop\n        /* \"baoxian/manager/BasicAuth.sol\":397:508  function setBakOwner(address owner)... */\n    tag_4:\n      tag_13\n      0x04\n      dup1\n      calldatasize\n      sub\n      dup2\n      add\n      swap1\n      tag_14\n      swap2\n      swap1\n      tag_11\n      jump\t// in\n    tag_14:\n      tag_15\n      jump\t// in\n    tag_13:\n      stop\n        /* \"baoxian/data/basedata/Company.sol\":510:698  function setData(string memory companyId,string memory companyName,address payAddress) public  isAuthorized(){... */\n    tag_5:\n      tag_16\n      0x04\n      dup1\n      calldatasize\n      sub\n      dup2\n      add\n      swap1\n      tag_17\n      swap2\n      swap1\n      tag_18\n      jump\t// in\n    tag_17:\n      tag_19\n      jump\t// in\n    tag_16:\n      stop\n        /* \"baoxian/data/basedata/Company.sol\":706:846  function getData(string memory companyId) public view returns( address payAddress){... */\n    tag_6:\n      tag_20\n      0x04\n      dup1\n      calldatasize\n      sub\n      dup2\n      add\n      swap1\n      tag_21\n      swap2\n      swap1\n      tag_22\n      jump\t// in\n    tag_21:\n      tag_23\n      jump\t// in\n    tag_20:\n      mload(0x40)\n      tag_24\n      swap2\n      swap1\n      tag_25\n      jump\t// in\n    tag_24:\n      mload(0x40)\n      dup1\n      swap2\n      sub\n      swap1\n      return\n        /* \"baoxian/manager/BasicAuth.sol\":107:129  address public  _owner */\n    tag_7:\n      tag_26\n      tag_27\n      jump\t// in\n    tag_26:\n      mload(0x40)\n      tag_28\n      swap2\n      swap1\n      tag_25\n      jump\t// in\n    tag_28:\n      mload(0x40)\n      dup1\n      swap2\n      sub\n      swap1\n      return\n        /* \"baoxian/manager/BasicAuth.sol\":136:160  address public _bakOwner */\n    tag_8:\n      tag_29\n      tag_30\n      jump\t// in\n    tag_29:\n      mload(0x40)\n      tag_31\n      swap2\n      swap1\n      tag_25\n      jump\t// in\n    tag_31:\n      mload(0x40)\n      dup1\n      swap2\n      sub\n      swap1\n      return\n        /* \"baoxian/manager/BasicAuth.sol\":284:389  function setOwner(address owner)... */\n    tag_12:\n        /* \"baoxian/manager/BasicAuth.sol\":625:631  _owner */\n      0x00\n      dup1\n      sload\n      swap1\n      0x0100\n      exp\n      swap1\n      div\n      0xffffffffffffffffffffffffffffffffffffffff\n      and\n        /* \"baoxian/manager/BasicAuth.sol\":611:631  msg.sender == _owner */\n      0xffffffffffffffffffffffffffffffffffffffff\n      and\n        /* \"baoxian/manager/BasicAuth.sol\":611:621  msg.sender */\n      caller\n        /* \"baoxian/manager/BasicAuth.sol\":611:631  msg.sender == _owner */\n      0xffffffffffffffffffffffffffffffffffffffff\n      and\n      eq\n        /* \"baoxian/manager/BasicAuth.sol\":611:658  msg.sender == _owner || msg.sender == _bakOwner */\n      dup1\n      tag_33\n      jumpi\n      pop\n        /* \"baoxian/manager/BasicAuth.sol\":649:658  _bakOwner */\n      0x01\n      0x00\n      swap1\n      sload\n      swap1\n      0x0100\n      exp\n      swap1\n      div\n      0xffffffffffffffffffffffffffffffffffffffff\n      and\n        /* \"baoxian/manager/BasicAuth.sol\":635:658  msg.sender == _bakOwner */\n      0xffffffffffffffffffffffffffffffffffffffff\n      and\n        /* \"baoxian/manager/BasicAuth.sol\":635:645  msg.sender */\n      caller\n        /* \"baoxian/manager/BasicAuth.sol\":635:658  msg.sender == _bakOwner */\n      0xffffffffffffffffffffffffffffffffffffffff\n      and\n      eq\n        /* \"baoxian/manager/BasicAuth.sol\":611:658  msg.sender == _owner || msg.sender == _bakOwner */\n    tag_33:\n        /* \"baoxian/manager/BasicAuth.sol\":603:713  require(msg.sender == _owner || msg.sender == _bakOwner, \"BasicAuth: only owner or back owner is authorized.\") */\n      tag_34\n      jumpi\n      mload(0x40)\n      0x08c379a000000000000000000000000000000000000000000000000000000000\n      dup2\n      mstore\n      0x04\n      add\n      tag_35\n      swap1\n      tag_36\n      jump\t// in\n    tag_35:\n      mload(0x40)\n      dup1\n      swap2\n      sub\n      swap1\n      revert\n    tag_34:\n        /* \"baoxian/manager/BasicAuth.sol\":376:381  owner */\n      dup1\n        /* \"baoxian/manager/BasicAuth.sol\":367:373  _owner */\n      0x00\n      dup1\n        /* \"baoxian/manager/BasicAuth.sol\":367:381  _owner = owner */\n      0x0100\n      exp\n      dup2\n      sload\n      dup2\n      0xffffffffffffffffffffffffffffffffffffffff\n      mul\n      not\n      and\n      swap1\n      dup4\n      0xffffffffffffffffffffffffffffffffffffffff\n      and\n      mul\n      or\n      swap1\n      sstore\n      pop\n        /* \"baoxian/manager/BasicAuth.sol\":284:389  function setOwner(address owner)... */\n      pop\n      jump\t// out\n        /* \"baoxian/manager/BasicAuth.sol\":397:508  function setBakOwner(address owner)... */\n    tag_15:\n        /* \"baoxian/manager/BasicAuth.sol\":625:631  _owner */\n      0x00\n      dup1\n      sload\n      swap1\n      0x0100\n      exp\n      swap1\n      div\n      0xffffffffffffffffffffffffffffffffffffffff\n      and\n        /* \"baoxian/manager/BasicAuth.sol\":611:631  msg.sender == _owner */\n      0xffffffffffffffffffffffffffffffffffffffff\n      and\n        /* \"baoxian/manager/BasicAuth.sol\":611:621  msg.sender */\n      caller\n        /* \"baoxian/manager/BasicAuth.sol\":611:631  msg.sender == _owner */\n      0xffffffffffffffffffffffffffffffffffffffff\n      and\n      eq\n        /* \"baoxian/manager/BasicAuth.sol\":611:658  msg.sender == _owner || msg.sender == _bakOwner */\n      dup1\n      tag_39\n      jumpi\n      pop\n        /* \"baoxian/manager/BasicAuth.sol\":649:658  _bakOwner */\n      0x01\n      0x00\n      swap1\n      sload\n      swap1\n      0x0100\n      exp\n      swap1\n      div\n      0xffffffffffffffffffffffffffffffffffffffff\n      and\n        /* \"baoxian/manager/BasicAuth.sol\":635:658  msg.sender == _bakOwner */\n      0xffffffffffffffffffffffffffffffffffffffff\n      and\n        /* \"baoxian/manager/BasicAuth.sol\":635:645  msg.sender */\n      caller\n        /* \"baoxian/manager/BasicAuth.sol\":635:658  msg.sender == _bakOwner */\n      0xffffffffffffffffffffffffffffffffffffffff\n      and\n      eq\n        /* \"baoxian/manager/BasicAuth.sol\":611:658  msg.sender == _owner || msg.sender == _bakOwner */\n    tag_39:\n        /* \"baoxian/manager/BasicAuth.sol\":603:713  require(msg.sender == _owner || msg.sender == _bakOwner, \"BasicAuth: only owner or back owner is authorized.\") */\n      tag_40\n      jumpi\n      mload(0x40)\n      0x08c379a000000000000000000000000000000000000000000000000000000000\n      dup2\n      mstore\n      0x04\n      add\n      tag_41\n      swap1\n      tag_36\n      jump\t// in\n    tag_41:\n      mload(0x40)\n      dup1\n      swap2\n      sub\n      swap1\n      revert\n    tag_40:\n        /* \"baoxian/manager/BasicAuth.sol\":495:500  owner */\n      dup1\n        /* \"baoxian/manager/BasicAuth.sol\":483:492  _bakOwner */\n      0x01\n      0x00\n        /* \"baoxian/manager/BasicAuth.sol\":483:500  _bakOwner = owner */\n      0x0100\n      exp\n      dup2\n      sload\n      dup2\n      0xffffffffffffffffffffffffffffffffffffffff\n      mul\n      not\n      and\n      swap1\n      dup4\n      0xffffffffffffffffffffffffffffffffffffffff\n      and\n      mul\n      or\n      swap1\n      sstore\n      pop\n        /* \"baoxian/manager/BasicAuth.sol\":397:508  function setBakOwner(address owner)... */\n      pop\n      jump\t// out\n        /* \"baoxian/data/basedata/Company.sol\":510:698  function setData(string memory companyId,string memory companyName,address payAddress) public  isAuthorized(){... */\n    tag_19:\n        /* \"baoxian/manager/BasicAuth.sol\":625:631  _owner */\n      0x00\n      dup1\n      sload\n      swap1\n      0x0100\n      exp\n      swap1\n      div\n      0xffffffffffffffffffffffffffffffffffffffff\n      and\n        /* \"baoxian/manager/BasicAuth.sol\":611:631  msg.sender == _owner */\n      0xffffffffffffffffffffffffffffffffffffffff\n      and\n        /* \"baoxian/manager/BasicAuth.sol\":611:621  msg.sender */\n      caller\n        /* \"baoxian/manager/BasicAuth.sol\":611:631  msg.sender == _owner */\n      0xffffffffffffffffffffffffffffffffffffffff\n      and\n      eq\n        /* \"baoxian/manager/BasicAuth.sol\":611:658  msg.sender == _owner || msg.sender == _bakOwner */\n      dup1\n      tag_44\n      jumpi\n      pop\n        /* \"baoxian/manager/BasicAuth.sol\":649:658  _bakOwner */\n      0x01\n      0x00\n      swap1\n      sload\n      swap1\n      0x0100\n      exp\n      swap1\n      div\n      0xffffffffffffffffffffffffffffffffffffffff\n      and\n        /* \"baoxian/manager/BasicAuth.sol\":635:658  msg.sender == _bakOwner */\n      0xffffffffffffffffffffffffffffffffffffffff\n      and\n        /* \"baoxian/manager/BasicAuth.sol\":635:645  msg.sender */\n      caller\n        /* \"baoxian/manager/BasicAuth.sol\":635:658  msg.sender == _bakOwner */\n      0xffffffffffffffffffffffffffffffffffffffff\n      and\n      eq\n        /* \"baoxian/manager/BasicAuth.sol\":611:658  msg.sender == _owner || msg.sender == _bakOwner */\n    tag_44:\n        /* \"baoxian/manager/BasicAuth.sol\":603:713  require(msg.sender == _owner || msg.sender == _bakOwner, \"BasicAuth: only owner or back owner is authorized.\") */\n      tag_45\n      jumpi\n      mload(0x40)\n      0x08c379a000000000000000000000000000000000000000000000000000000000\n      dup2\n      mstore\n      0x04\n      add\n      tag_46\n      swap1\n      tag_36\n      jump\t// in\n    tag_46:\n      mload(0x40)\n      dup1\n      swap2\n      sub\n      swap1\n      revert\n    tag_45:\n        /* \"baoxian/data/basedata/Company.sol\":655:690  CompanyData(companyName,payAddress) */\n      mload(0x40)\n      dup1\n      0x40\n      add\n      0x40\n      mstore\n      dup1\n        /* \"baoxian/data/basedata/Company.sol\":667:678  companyName */\n      dup4\n        /* \"baoxian/data/basedata/Company.sol\":655:690  CompanyData(companyName,payAddress) */\n      dup2\n      mstore\n      0x20\n      add\n        /* \"baoxian/data/basedata/Company.sol\":679:689  payAddress */\n      dup3\n        /* \"baoxian/data/basedata/Company.sol\":655:690  CompanyData(companyName,payAddress) */\n      0xffffffffffffffffffffffffffffffffffffffff\n      and\n      dup2\n      mstore\n      pop\n        /* \"baoxian/data/basedata/Company.sol\":629:641  companyDataS */\n      0x02\n        /* \"baoxian/data/basedata/Company.sol\":642:651  companyId */\n      dup5\n        /* \"baoxian/data/basedata/Company.sol\":629:652  companyDataS[companyId] */\n      mload(0x40)\n      tag_48\n      swap2\n      swap1\n      tag_49\n      jump\t// in\n    tag_48:\n      swap1\n      dup2\n      mstore\n      0x20\n      add\n      mload(0x40)\n      dup1\n      swap2\n      sub\n      swap1\n      keccak256\n        /* \"baoxian/data/basedata/Company.sol\":629:690  companyDataS[companyId] = CompanyData(companyName,payAddress) */\n      0x00\n      dup3\n      add\n      mload\n      dup2\n      0x00\n      add\n      swap1\n      dup2\n      tag_50\n      swap2\n      swap1\n      tag_51\n      jump\t// in\n    tag_50:\n      pop\n      0x20\n      dup3\n      add\n      mload\n      dup2\n      0x01\n      add\n      exp(0x0100, 0x00)\n      dup2\n      sload\n      dup2\n      0xffffffffffffffffffffffffffffffffffffffff\n      mul\n      not\n      and\n      swap1\n      dup4\n      0xffffffffffffffffffffffffffffffffffffffff\n      and\n      mul\n      or\n      swap1\n      sstore\n      pop\n      swap1\n      pop\n      pop\n        /* \"baoxian/data/basedata/Company.sol\":510:698  function setData(string memory companyId,string memory companyName,address payAddress) public  isAuthorized(){... */\n      pop\n      pop\n      pop\n      jump\t// out\n        /* \"baoxian/data/basedata/Company.sol\":706:846  function getData(string memory companyId) public view returns( address payAddress){... */\n    tag_23:\n        /* \"baoxian/data/basedata/Company.sol\":769:787  address payAddress */\n      0x00\n        /* \"baoxian/data/basedata/Company.sol\":804:816  companyDataS */\n      0x02\n        /* \"baoxian/data/basedata/Company.sol\":817:826  companyId */\n      dup3\n        /* \"baoxian/data/basedata/Company.sol\":804:827  companyDataS[companyId] */\n      mload(0x40)\n      tag_53\n      swap2\n      swap1\n      tag_49\n      jump\t// in\n    tag_53:\n      swap1\n      dup2\n      mstore\n      0x20\n      add\n      mload(0x40)\n      dup1\n      swap2\n      sub\n      swap1\n      keccak256\n        /* \"baoxian/data/basedata/Company.sol\":804:838  companyDataS[companyId].payAddress */\n      0x01\n      add\n      0x00\n      swap1\n      sload\n      swap1\n      0x0100\n      exp\n      swap1\n      div\n      0xffffffffffffffffffffffffffffffffffffffff\n      and\n        /* \"baoxian/data/basedata/Company.sol\":797:838  return companyDataS[companyId].payAddress */\n      swap1\n      pop\n        /* \"baoxian/data/basedata/Company.sol\":706:846  function getData(string memory companyId) public view returns( address payAddress){... */\n      swap2\n      swap1\n      pop\n      jump\t// out\n        /* \"baoxian/manager/BasicAuth.sol\":107:129  address public  _owner */\n    tag_27:\n      0x00\n      dup1\n      sload\n      swap1\n      0x0100\n      exp\n      swap1\n      div\n      0xffffffffffffffffffffffffffffffffffffffff\n      and\n      dup2\n      jump\t// out\n        /* \"baoxian/manager/BasicAuth.sol\":136:160  address public _bakOwner */\n    tag_30:\n      0x01\n      0x00\n      swap1\n      sload\n      swap1\n      0x0100\n      exp\n      swap1\n      div\n      0xffffffffffffffffffffffffffffffffffffffff\n      and\n      dup2\n      jump\t// out\n        /* \"#utility.yul\":7:82   */\n    tag_54:\n        /* \"#utility.yul\":40:46   */\n      0x00\n        /* \"#utility.yul\":73:75   */\n      0x40\n        /* \"#utility.yul\":67:76   */\n      mload\n        /* \"#utility.yul\":57:76   */\n      swap1\n      pop\n        /* \"#utility.yul\":7:82   */\n      swap1\n      jump\t// out\n        /* \"#utility.yul\":88:205   */\n    tag_55:\n        /* \"#utility.yul\":197:198   */\n      0x00\n        /* \"#utility.yul\":194:195   */\n      dup1\n        /* \"#utility.yul\":187:199   */\n      revert\n        /* \"#utility.yul\":211:328   */\n    tag_56:\n        /* \"#utility.yul\":320:321   */\n      0x00\n        /* \"#utility.yul\":317:318   */\n      dup1\n        /* \"#utility.yul\":310:322   */\n      revert\n        /* \"#utility.yul\":334:460   */\n    tag_57:\n        /* \"#utility.yul\":371:378   */\n      0x00\n        /* \"#utility.yul\":411:453   */\n      0xffffffffffffffffffffffffffffffffffffffff\n        /* \"#utility.yul\":404:409   */\n      dup3\n        /* \"#utility.yul\":400:454   */\n      and\n        /* \"#utility.yul\":389:454   */\n      swap1\n      pop\n        /* \"#utility.yul\":334:460   */\n      swap2\n      swap1\n      pop\n      jump\t// out\n        /* \"#utility.yul\":466:562   */\n    tag_58:\n        /* \"#utility.yul\":503:510   */\n      0x00\n        /* \"#utility.yul\":532:556   */\n      tag_103\n        /* \"#utility.yul\":550:555   */\n      dup3\n        /* \"#utility.yul\":532:556   */\n      tag_57\n      jump\t// in\n    tag_103:\n        /* \"#utility.yul\":521:556   */\n      swap1\n      pop\n        /* \"#utility.yul\":466:562   */\n      swap2\n      swap1\n      pop\n      jump\t// out\n        /* \"#utility.yul\":568:690   */\n    tag_59:\n        /* \"#utility.yul\":641:665   */\n      tag_105\n        /* \"#utility.yul\":659:664   */\n      dup2\n        /* \"#utility.yul\":641:665   */\n      tag_58\n      jump\t// in\n    tag_105:\n        /* \"#utility.yul\":634:639   */\n      dup2\n        /* \"#utility.yul\":631:666   */\n      eq\n        /* \"#utility.yul\":621:684   */\n      tag_106\n      jumpi\n        /* \"#utility.yul\":680:681   */\n      0x00\n        /* \"#utility.yul\":677:678   */\n      dup1\n        /* \"#utility.yul\":670:682   */\n      revert\n        /* \"#utility.yul\":621:684   */\n    tag_106:\n        /* \"#utility.yul\":568:690   */\n      pop\n      jump\t// out\n        /* \"#utility.yul\":696:835   */\n    tag_60:\n        /* \"#utility.yul\":742:747   */\n      0x00\n        /* \"#utility.yul\":780:786   */\n      dup2\n        /* \"#utility.yul\":767:787   */\n      calldataload\n        /* \"#utility.yul\":758:787   */\n      swap1\n      pop\n        /* \"#utility.yul\":796:829   */\n      tag_108\n        /* \"#utility.yul\":823:828   */\n      dup2\n        /* \"#utility.yul\":796:829   */\n      tag_59\n      jump\t// in\n    tag_108:\n        /* \"#utility.yul\":696:835   */\n      swap3\n      swap2\n      pop\n      pop\n      jump\t// out\n        /* \"#utility.yul\":841:1170   */\n    tag_11:\n        /* \"#utility.yul\":900:906   */\n      0x00\n        /* \"#utility.yul\":949:951   */\n      0x20\n        /* \"#utility.yul\":937:946   */\n      dup3\n        /* \"#utility.yul\":928:935   */\n      dup5\n        /* \"#utility.yul\":924:947   */\n      sub\n        /* \"#utility.yul\":920:952   */\n      slt\n        /* \"#utility.yul\":917:1036   */\n      iszero\n      tag_110\n      jumpi\n        /* \"#utility.yul\":955:1034   */\n      tag_111\n      tag_55\n      jump\t// in\n    tag_111:\n        /* \"#utility.yul\":917:1036   */\n    tag_110:\n        /* \"#utility.yul\":1075:1076   */\n      0x00\n        /* \"#utility.yul\":1100:1153   */\n      tag_112\n        /* \"#utility.yul\":1145:1152   */\n      dup5\n        /* \"#utility.yul\":1136:1142   */\n      dup3\n        /* \"#utility.yul\":1125:1134   */\n      dup6\n        /* \"#utility.yul\":1121:1143   */\n      add\n        /* \"#utility.yul\":1100:1153   */\n      tag_60\n      jump\t// in\n    tag_112:\n        /* \"#utility.yul\":1090:1153   */\n      swap2\n      pop\n        /* \"#utility.yul\":1046:1163   */\n      pop\n        /* \"#utility.yul\":841:1170   */\n      swap3\n      swap2\n      pop\n      pop\n      jump\t// out\n        /* \"#utility.yul\":1176:1293   */\n    tag_61:\n        /* \"#utility.yul\":1285:1286   */\n      0x00\n        /* \"#utility.yul\":1282:1283   */\n      dup1\n        /* \"#utility.yul\":1275:1287   */\n      revert\n        /* \"#utility.yul\":1299:1416   */\n    tag_62:\n        /* \"#utility.yul\":1408:1409   */\n      0x00\n        /* \"#utility.yul\":1405:1406   */\n      dup1\n        /* \"#utility.yul\":1398:1410   */\n      revert\n        /* \"#utility.yul\":1422:1524   */\n    tag_63:\n        /* \"#utility.yul\":1463:1469   */\n      0x00\n        /* \"#utility.yul\":1514:1516   */\n      0x1f\n        /* \"#utility.yul\":1510:1517   */\n      not\n        /* \"#utility.yul\":1505:1507   */\n      0x1f\n        /* \"#utility.yul\":1498:1503   */\n      dup4\n        /* \"#utility.yul\":1494:1508   */\n      add\n        /* \"#utility.yul\":1490:1518   */\n      and\n        /* \"#utility.yul\":1480:1518   */\n      swap1\n      pop\n        /* \"#utility.yul\":1422:1524   */\n      swap2\n      swap1\n      pop\n      jump\t// out\n        /* \"#utility.yul\":1530:1710   */\n    tag_64:\n        /* \"#utility.yul\":1578:1655   */\n      0x4e487b7100000000000000000000000000000000000000000000000000000000\n        /* \"#utility.yul\":1575:1576   */\n      0x00\n        /* \"#utility.yul\":1568:1656   */\n      mstore\n        /* \"#utility.yul\":1675:1679   */\n      0x41\n        /* \"#utility.yul\":1672:1673   */\n      0x04\n        /* \"#utility.yul\":1665:1680   */\n      mstore\n        /* \"#utility.yul\":1699:1703   */\n      0x24\n        /* \"#utility.yul\":1696:1697   */\n      0x00\n        /* \"#utility.yul\":1689:1704   */\n      revert\n        /* \"#utility.yul\":1716:1997   */\n    tag_65:\n        /* \"#utility.yul\":1799:1826   */\n      tag_118\n        /* \"#utility.yul\":1821:1825   */\n      dup3\n        /* \"#utility.yul\":1799:1826   */\n      tag_63\n      jump\t// in\n    tag_118:\n        /* \"#utility.yul\":1791:1797   */\n      dup2\n        /* \"#utility.yul\":1787:1827   */\n      add\n        /* \"#utility.yul\":1929:1935   */\n      dup2\n        /* \"#utility.yul\":1917:1927   */\n      dup2\n        /* \"#utility.yul\":1914:1936   */\n      lt\n        /* \"#utility.yul\":1893:1911   */\n      0xffffffffffffffff\n        /* \"#utility.yul\":1881:1891   */\n      dup3\n        /* \"#utility.yul\":1878:1912   */\n      gt\n        /* \"#utility.yul\":1875:1937   */\n      or\n        /* \"#utility.yul\":1872:1960   */\n      iszero\n      tag_119\n      jumpi\n        /* \"#utility.yul\":1940:1958   */\n      tag_120\n      tag_64\n      jump\t// in\n    tag_120:\n        /* \"#utility.yul\":1872:1960   */\n    tag_119:\n        /* \"#utility.yul\":1980:1990   */\n      dup1\n        /* \"#utility.yul\":1976:1978   */\n      0x40\n        /* \"#utility.yul\":1969:1991   */\n      mstore\n        /* \"#utility.yul\":1759:1997   */\n      pop\n        /* \"#utility.yul\":1716:1997   */\n      pop\n      pop\n      jump\t// out\n        /* \"#utility.yul\":2003:2132   */\n    tag_66:\n        /* \"#utility.yul\":2037:2043   */\n      0x00\n        /* \"#utility.yul\":2064:2084   */\n      tag_122\n      tag_54\n      jump\t// in\n    tag_122:\n        /* \"#utility.yul\":2054:2084   */\n      swap1\n      pop\n        /* \"#utility.yul\":2093:2126   */\n      tag_123\n        /* \"#utility.yul\":2121:2125   */\n      dup3\n        /* \"#utility.yul\":2113:2119   */\n      dup3\n        /* \"#utility.yul\":2093:2126   */\n      tag_65\n      jump\t// in\n    tag_123:\n        /* \"#utility.yul\":2003:2132   */\n      swap2\n      swap1\n      pop\n      jump\t// out\n        /* \"#utility.yul\":2138:2446   */\n    tag_67:\n        /* \"#utility.yul\":2200:2204   */\n      0x00\n        /* \"#utility.yul\":2290:2308   */\n      0xffffffffffffffff\n        /* \"#utility.yul\":2282:2288   */\n      dup3\n        /* \"#utility.yul\":2279:2309   */\n      gt\n        /* \"#utility.yul\":2276:2332   */\n      iszero\n      tag_125\n      jumpi\n        /* \"#utility.yul\":2312:2330   */\n      tag_126\n      tag_64\n      jump\t// in\n    tag_126:\n        /* \"#utility.yul\":2276:2332   */\n    tag_125:\n        /* \"#utility.yul\":2350:2379   */\n      tag_127\n        /* \"#utility.yul\":2372:2378   */\n      dup3\n        /* \"#utility.yul\":2350:2379   */\n      tag_63\n      jump\t// in\n    tag_127:\n        /* \"#utility.yul\":2342:2379   */\n      swap1\n      pop\n        /* \"#utility.yul\":2434:2438   */\n      0x20\n        /* \"#utility.yul\":2428:2432   */\n      dup2\n        /* \"#utility.yul\":2424:2439   */\n      add\n        /* \"#utility.yul\":2416:2439   */\n      swap1\n      pop\n        /* \"#utility.yul\":2138:2446   */\n      swap2\n      swap1\n      pop\n      jump\t// out\n        /* \"#utility.yul\":2452:2598   */\n    tag_68:\n        /* \"#utility.yul\":2549:2555   */\n      dup3\n        /* \"#utility.yul\":2544:2547   */\n      dup2\n        /* \"#utility.yul\":2539:2542   */\n      dup4\n        /* \"#utility.yul\":2526:2556   */\n      calldatacopy\n        /* \"#utility.yul\":2590:2591   */\n      0x00\n        /* \"#utility.yul\":2581:2587   */\n      dup4\n        /* \"#utility.yul\":2576:2579   */\n      dup4\n        /* \"#utility.yul\":2572:2588   */\n      add\n        /* \"#utility.yul\":2565:2592   */\n      mstore\n        /* \"#utility.yul\":2452:2598   */\n      pop\n      pop\n      pop\n      jump\t// out\n        /* \"#utility.yul\":2604:3029   */\n    tag_69:\n        /* \"#utility.yul\":2682:2687   */\n      0x00\n        /* \"#utility.yul\":2707:2773   */\n      tag_130\n        /* \"#utility.yul\":2723:2772   */\n      tag_131\n        /* \"#utility.yul\":2765:2771   */\n      dup5\n        /* \"#utility.yul\":2723:2772   */\n      tag_67\n      jump\t// in\n    tag_131:\n        /* \"#utility.yul\":2707:2773   */\n      tag_66\n      jump\t// in\n    tag_130:\n        /* \"#utility.yul\":2698:2773   */\n      swap1\n      pop\n        /* \"#utility.yul\":2796:2802   */\n      dup3\n        /* \"#utility.yul\":2789:2794   */\n      dup2\n        /* \"#utility.yul\":2782:2803   */\n      mstore\n        /* \"#utility.yul\":2834:2838   */\n      0x20\n        /* \"#utility.yul\":2827:2832   */\n      dup2\n        /* \"#utility.yul\":2823:2839   */\n      add\n        /* \"#utility.yul\":2872:2875   */\n      dup5\n        /* \"#utility.yul\":2863:2869   */\n      dup5\n        /* \"#utility.yul\":2858:2861   */\n      dup5\n        /* \"#utility.yul\":2854:2870   */\n      add\n        /* \"#utility.yul\":2851:2876   */\n      gt\n        /* \"#utility.yul\":2848:2960   */\n      iszero\n      tag_132\n      jumpi\n        /* \"#utility.yul\":2879:2958   */\n      tag_133\n      tag_62\n      jump\t// in\n    tag_133:\n        /* \"#utility.yul\":2848:2960   */\n    tag_132:\n        /* \"#utility.yul\":2969:3023   */\n      tag_134\n        /* \"#utility.yul\":3016:3022   */\n      dup5\n        /* \"#utility.yul\":3011:3014   */\n      dup3\n        /* \"#utility.yul\":3006:3009   */\n      dup6\n        /* \"#utility.yul\":2969:3023   */\n      tag_68\n      jump\t// in\n    tag_134:\n        /* \"#utility.yul\":2688:3029   */\n      pop\n        /* \"#utility.yul\":2604:3029   */\n      swap4\n      swap3\n      pop\n      pop\n      pop\n      jump\t// out\n        /* \"#utility.yul\":3049:3389   */\n    tag_70:\n        /* \"#utility.yul\":3105:3110   */\n      0x00\n        /* \"#utility.yul\":3154:3157   */\n      dup3\n        /* \"#utility.yul\":3147:3151   */\n      0x1f\n        /* \"#utility.yul\":3139:3145   */\n      dup4\n        /* \"#utility.yul\":3135:3152   */\n      add\n        /* \"#utility.yul\":3131:3158   */\n      slt\n        /* \"#utility.yul\":3121:3243   */\n      tag_136\n      jumpi\n        /* \"#utility.yul\":3162:3241   */\n      tag_137\n      tag_61\n      jump\t// in\n    tag_137:\n        /* \"#utility.yul\":3121:3243   */\n    tag_136:\n        /* \"#utility.yul\":3279:3285   */\n      dup2\n        /* \"#utility.yul\":3266:3286   */\n      calldataload\n        /* \"#utility.yul\":3304:3383   */\n      tag_138\n        /* \"#utility.yul\":3379:3382   */\n      dup5\n        /* \"#utility.yul\":3371:3377   */\n      dup3\n        /* \"#utility.yul\":3364:3368   */\n      0x20\n        /* \"#utility.yul\":3356:3362   */\n      dup7\n        /* \"#utility.yul\":3352:3369   */\n      add\n        /* \"#utility.yul\":3304:3383   */\n      tag_69\n      jump\t// in\n    tag_138:\n        /* \"#utility.yul\":3295:3383   */\n      swap2\n      pop\n        /* \"#utility.yul\":3111:3389   */\n      pop\n        /* \"#utility.yul\":3049:3389   */\n      swap3\n      swap2\n      pop\n      pop\n      jump\t// out\n        /* \"#utility.yul\":3395:4374   */\n    tag_18:\n        /* \"#utility.yul\":3492:3498   */\n      0x00\n        /* \"#utility.yul\":3500:3506   */\n      dup1\n        /* \"#utility.yul\":3508:3514   */\n      0x00\n        /* \"#utility.yul\":3557:3559   */\n      0x60\n        /* \"#utility.yul\":3545:3554   */\n      dup5\n        /* \"#utility.yul\":3536:3543   */\n      dup7\n        /* \"#utility.yul\":3532:3555   */\n      sub\n        /* \"#utility.yul\":3528:3560   */\n      slt\n        /* \"#utility.yul\":3525:3644   */\n      iszero\n      tag_140\n      jumpi\n        /* \"#utility.yul\":3563:3642   */\n      tag_141\n      tag_55\n      jump\t// in\n    tag_141:\n        /* \"#utility.yul\":3525:3644   */\n    tag_140:\n        /* \"#utility.yul\":3711:3712   */\n      0x00\n        /* \"#utility.yul\":3700:3709   */\n      dup5\n        /* \"#utility.yul\":3696:3713   */\n      add\n        /* \"#utility.yul\":3683:3714   */\n      calldataload\n        /* \"#utility.yul\":3741:3759   */\n      0xffffffffffffffff\n        /* \"#utility.yul\":3733:3739   */\n      dup2\n        /* \"#utility.yul\":3730:3760   */\n      gt\n        /* \"#utility.yul\":3727:3844   */\n      iszero\n      tag_142\n      jumpi\n        /* \"#utility.yul\":3763:3842   */\n      tag_143\n      tag_56\n      jump\t// in\n    tag_143:\n        /* \"#utility.yul\":3727:3844   */\n    tag_142:\n        /* \"#utility.yul\":3868:3931   */\n      tag_144\n        /* \"#utility.yul\":3923:3930   */\n      dup7\n        /* \"#utility.yul\":3914:3920   */\n      dup3\n        /* \"#utility.yul\":3903:3912   */\n      dup8\n        /* \"#utility.yul\":3899:3921   */\n      add\n        /* \"#utility.yul\":3868:3931   */\n      tag_70\n      jump\t// in\n    tag_144:\n        /* \"#utility.yul\":3858:3931   */\n      swap4\n      pop\n        /* \"#utility.yul\":3654:3941   */\n      pop\n        /* \"#utility.yul\":4008:4010   */\n      0x20\n        /* \"#utility.yul\":3997:4006   */\n      dup5\n        /* \"#utility.yul\":3993:4011   */\n      add\n        /* \"#utility.yul\":3980:4012   */\n      calldataload\n        /* \"#utility.yul\":4039:4057   */\n      0xffffffffffffffff\n        /* \"#utility.yul\":4031:4037   */\n      dup2\n        /* \"#utility.yul\":4028:4058   */\n      gt\n        /* \"#utility.yul\":4025:4142   */\n      iszero\n      tag_145\n      jumpi\n        /* \"#utility.yul\":4061:4140   */\n      tag_146\n      tag_56\n      jump\t// in\n    tag_146:\n        /* \"#utility.yul\":4025:4142   */\n    tag_145:\n        /* \"#utility.yul\":4166:4229   */\n      tag_147\n        /* \"#utility.yul\":4221:4228   */\n      dup7\n        /* \"#utility.yul\":4212:4218   */\n      dup3\n        /* \"#utility.yul\":4201:4210   */\n      dup8\n        /* \"#utility.yul\":4197:4219   */\n      add\n        /* \"#utility.yul\":4166:4229   */\n      tag_70\n      jump\t// in\n    tag_147:\n        /* \"#utility.yul\":4156:4229   */\n      swap3\n      pop\n        /* \"#utility.yul\":3951:4239   */\n      pop\n        /* \"#utility.yul\":4278:4280   */\n      0x40\n        /* \"#utility.yul\":4304:4357   */\n      tag_148\n        /* \"#utility.yul\":4349:4356   */\n      dup7\n        /* \"#utility.yul\":4340:4346   */\n      dup3\n        /* \"#utility.yul\":4329:4338   */\n      dup8\n        /* \"#utility.yul\":4325:4347   */\n      add\n        /* \"#utility.yul\":4304:4357   */\n      tag_60\n      jump\t// in\n    tag_148:\n        /* \"#utility.yul\":4294:4357   */\n      swap2\n      pop\n        /* \"#utility.yul\":4249:4367   */\n      pop\n        /* \"#utility.yul\":3395:4374   */\n      swap3\n      pop\n      swap3\n      pop\n      swap3\n      jump\t// out\n        /* \"#utility.yul\":4380:4889   */\n    tag_22:\n        /* \"#utility.yul\":4449:4455   */\n      0x00\n        /* \"#utility.yul\":4498:4500   */\n      0x20\n        /* \"#utility.yul\":4486:4495   */\n      dup3\n        /* \"#utility.yul\":4477:4484   */\n      dup5\n        /* \"#utility.yul\":4473:4496   */\n      sub\n        /* \"#utility.yul\":4469:4501   */\n      slt\n        /* \"#utility.yul\":4466:4585   */\n      iszero\n      tag_150\n      jumpi\n        /* \"#utility.yul\":4504:4583   */\n      tag_151\n      tag_55\n      jump\t// in\n    tag_151:\n        /* \"#utility.yul\":4466:4585   */\n    tag_150:\n        /* \"#utility.yul\":4652:4653   */\n      0x00\n        /* \"#utility.yul\":4641:4650   */\n      dup3\n        /* \"#utility.yul\":4637:4654   */\n      add\n        /* \"#utility.yul\":4624:4655   */\n      calldataload\n        /* \"#utility.yul\":4682:4700   */\n      0xffffffffffffffff\n        /* \"#utility.yul\":4674:4680   */\n      dup2\n        /* \"#utility.yul\":4671:4701   */\n      gt\n        /* \"#utility.yul\":4668:4785   */\n      iszero\n      tag_152\n      jumpi\n        /* \"#utility.yul\":4704:4783   */\n      tag_153\n      tag_56\n      jump\t// in\n    tag_153:\n        /* \"#utility.yul\":4668:4785   */\n    tag_152:\n        /* \"#utility.yul\":4809:4872   */\n      tag_154\n        /* \"#utility.yul\":4864:4871   */\n      dup5\n        /* \"#utility.yul\":4855:4861   */\n      dup3\n        /* \"#utility.yul\":4844:4853   */\n      dup6\n        /* \"#utility.yul\":4840:4862   */\n      add\n        /* \"#utility.yul\":4809:4872   */\n      tag_70\n      jump\t// in\n    tag_154:\n        /* \"#utility.yul\":4799:4872   */\n      swap2\n      pop\n        /* \"#utility.yul\":4595:4882   */\n      pop\n        /* \"#utility.yul\":4380:4889   */\n      swap3\n      swap2\n      pop\n      pop\n      jump\t// out\n        /* \"#utility.yul\":4895:5013   */\n    tag_71:\n        /* \"#utility.yul\":4982:5006   */\n      tag_156\n        /* \"#utility.yul\":5000:5005   */\n      dup2\n        /* \"#utility.yul\":4982:5006   */\n      tag_58\n      jump\t// in\n    tag_156:\n        /* \"#utility.yul\":4977:4980   */\n      dup3\n        /* \"#utility.yul\":4970:5007   */\n      mstore\n        /* \"#utility.yul\":4895:5013   */\n      pop\n      pop\n      jump\t// out\n        /* \"#utility.yul\":5019:5241   */\n    tag_25:\n        /* \"#utility.yul\":5112:5116   */\n      0x00\n        /* \"#utility.yul\":5150:5152   */\n      0x20\n        /* \"#utility.yul\":5139:5148   */\n      dup3\n        /* \"#utility.yul\":5135:5153   */\n      add\n        /* \"#utility.yul\":5127:5153   */\n      swap1\n      pop\n        /* \"#utility.yul\":5163:5234   */\n      tag_158\n        /* \"#utility.yul\":5231:5232   */\n      0x00\n        /* \"#utility.yul\":5220:5229   */\n      dup4\n        /* \"#utility.yul\":5216:5233   */\n      add\n        /* \"#utility.yul\":5207:5213   */\n      dup5\n        /* \"#utility.yul\":5163:5234   */\n      tag_71\n      jump\t// in\n    tag_158:\n        /* \"#utility.yul\":5019:5241   */\n      swap3\n      swap2\n      pop\n      pop\n      jump\t// out\n        /* \"#utility.yul\":5247:5416   */\n    tag_72:\n        /* \"#utility.yul\":5331:5342   */\n      0x00\n        /* \"#utility.yul\":5365:5371   */\n      dup3\n        /* \"#utility.yul\":5360:5363   */\n      dup3\n        /* \"#utility.yul\":5353:5372   */\n      mstore\n        /* \"#utility.yul\":5405:5409   */\n      0x20\n        /* \"#utility.yul\":5400:5403   */\n      dup3\n        /* \"#utility.yul\":5396:5410   */\n      add\n        /* \"#utility.yul\":5381:5410   */\n      swap1\n      pop\n        /* \"#utility.yul\":5247:5416   */\n      swap3\n      swap2\n      pop\n      pop\n      jump\t// out\n        /* \"#utility.yul\":5422:5659   */\n    tag_73:\n        /* \"#utility.yul\":5562:5596   */\n      0x4261736963417574683a206f6e6c79206f776e6572206f72206261636b206f77\n        /* \"#utility.yul\":5558:5559   */\n      0x00\n        /* \"#utility.yul\":5550:5556   */\n      dup3\n        /* \"#utility.yul\":5546:5560   */\n      add\n        /* \"#utility.yul\":5539:5597   */\n      mstore\n        /* \"#utility.yul\":5631:5651   */\n      0x6e657220697320617574686f72697a65642e0000000000000000000000000000\n        /* \"#utility.yul\":5626:5628   */\n      0x20\n        /* \"#utility.yul\":5618:5624   */\n      dup3\n        /* \"#utility.yul\":5614:5629   */\n      add\n        /* \"#utility.yul\":5607:5652   */\n      mstore\n        /* \"#utility.yul\":5422:5659   */\n      pop\n      jump\t// out\n        /* \"#utility.yul\":5665:6031   */\n    tag_74:\n        /* \"#utility.yul\":5807:5810   */\n      0x00\n        /* \"#utility.yul\":5828:5895   */\n      tag_162\n        /* \"#utility.yul\":5892:5894   */\n      0x32\n        /* \"#utility.yul\":5887:5890   */\n      dup4\n        /* \"#utility.yul\":5828:5895   */\n      tag_72\n      jump\t// in\n    tag_162:\n        /* \"#utility.yul\":5821:5895   */\n      swap2\n      pop\n        /* \"#utility.yul\":5904:5997   */\n      tag_163\n        /* \"#utility.yul\":5993:5996   */\n      dup3\n        /* \"#utility.yul\":5904:5997   */\n      tag_73\n      jump\t// in\n    tag_163:\n        /* \"#utility.yul\":6022:6024   */\n      0x40\n        /* \"#utility.yul\":6017:6020   */\n      dup3\n        /* \"#utility.yul\":6013:6025   */\n      add\n        /* \"#utility.yul\":6006:6025   */\n      swap1\n      pop\n        /* \"#utility.yul\":5665:6031   */\n      swap2\n      swap1\n      pop\n      jump\t// out\n        /* \"#utility.yul\":6037:6456   */\n    tag_36:\n        /* \"#utility.yul\":6203:6207   */\n      0x00\n        /* \"#utility.yul\":6241:6243   */\n      0x20\n        /* \"#utility.yul\":6230:6239   */\n      dup3\n        /* \"#utility.yul\":6226:6244   */\n      add\n        /* \"#utility.yul\":6218:6244   */\n      swap1\n      pop\n        /* \"#utility.yul\":6290:6299   */\n      dup2\n        /* \"#utility.yul\":6284:6288   */\n      dup2\n        /* \"#utility.yul\":6280:6300   */\n      sub\n        /* \"#utility.yul\":6276:6277   */\n      0x00\n        /* \"#utility.yul\":6265:6274   */\n      dup4\n        /* \"#utility.yul\":6261:6278   */\n      add\n        /* \"#utility.yul\":6254:6301   */\n      mstore\n        /* \"#utility.yul\":6318:6449   */\n      tag_165\n        /* \"#utility.yul\":6444:6448   */\n      dup2\n        /* \"#utility.yul\":6318:6449   */\n      tag_74\n      jump\t// in\n    tag_165:\n        /* \"#utility.yul\":6310:6449   */\n      swap1\n      pop\n        /* \"#utility.yul\":6037:6456   */\n      swap2\n      swap1\n      pop\n      jump\t// out\n        /* \"#utility.yul\":6462:6561   */\n    tag_75:\n        /* \"#utility.yul\":6514:6520   */\n      0x00\n        /* \"#utility.yul\":6548:6553   */\n      dup2\n        /* \"#utility.yul\":6542:6554   */\n      mload\n        /* \"#utility.yul\":6532:6554   */\n      swap1\n      pop\n        /* \"#utility.yul\":6462:6561   */\n      swap2\n      swap1\n      pop\n      jump\t// out\n        /* \"#utility.yul\":6567:6715   */\n    tag_76:\n        /* \"#utility.yul\":6669:6680   */\n      0x00\n        /* \"#utility.yul\":6706:6709   */\n      dup2\n        /* \"#utility.yul\":6691:6709   */\n      swap1\n      pop\n        /* \"#utility.yul\":6567:6715   */\n      swap3\n      swap2\n      pop\n      pop\n      jump\t// out\n        /* \"#utility.yul\":6721:6967   */\n    tag_77:\n        /* \"#utility.yul\":6802:6803   */\n      0x00\n        /* \"#utility.yul\":6812:6925   */\n    tag_169:\n        /* \"#utility.yul\":6826:6832   */\n      dup4\n        /* \"#utility.yul\":6823:6824   */\n      dup2\n        /* \"#utility.yul\":6820:6833   */\n      lt\n        /* \"#utility.yul\":6812:6925   */\n      iszero\n      tag_171\n      jumpi\n        /* \"#utility.yul\":6911:6912   */\n      dup1\n        /* \"#utility.yul\":6906:6909   */\n      dup3\n        /* \"#utility.yul\":6902:6913   */\n      add\n        /* \"#utility.yul\":6896:6914   */\n      mload\n        /* \"#utility.yul\":6892:6893   */\n      dup2\n        /* \"#utility.yul\":6887:6890   */\n      dup5\n        /* \"#utility.yul\":6883:6894   */\n      add\n        /* \"#utility.yul\":6876:6915   */\n      mstore\n        /* \"#utility.yul\":6848:6850   */\n      0x20\n        /* \"#utility.yul\":6845:6846   */\n      dup2\n        /* \"#utility.yul\":6841:6851   */\n      add\n        /* \"#utility.yul\":6836:6851   */\n      swap1\n      pop\n        /* \"#utility.yul\":6812:6925   */\n      jump(tag_169)\n    tag_171:\n        /* \"#utility.yul\":6959:6960   */\n      0x00\n        /* \"#utility.yul\":6950:6956   */\n      dup5\n        /* \"#utility.yul\":6945:6948   */\n      dup5\n        /* \"#utility.yul\":6941:6957   */\n      add\n        /* \"#utility.yul\":6934:6961   */\n      mstore\n        /* \"#utility.yul\":6783:6967   */\n      pop\n        /* \"#utility.yul\":6721:6967   */\n      pop\n      pop\n      pop\n      jump\t// out\n        /* \"#utility.yul\":6973:7363   */\n    tag_78:\n        /* \"#utility.yul\":7079:7082   */\n      0x00\n        /* \"#utility.yul\":7107:7146   */\n      tag_173\n        /* \"#utility.yul\":7140:7145   */\n      dup3\n        /* \"#utility.yul\":7107:7146   */\n      tag_75\n      jump\t// in\n    tag_173:\n        /* \"#utility.yul\":7162:7251   */\n      tag_174\n        /* \"#utility.yul\":7244:7250   */\n      dup2\n        /* \"#utility.yul\":7239:7242   */\n      dup6\n        /* \"#utility.yul\":7162:7251   */\n      tag_76\n      jump\t// in\n    tag_174:\n        /* \"#utility.yul\":7155:7251   */\n      swap4\n      pop\n        /* \"#utility.yul\":7260:7325   */\n      tag_175\n        /* \"#utility.yul\":7318:7324   */\n      dup2\n        /* \"#utility.yul\":7313:7316   */\n      dup6\n        /* \"#utility.yul\":7306:7310   */\n      0x20\n        /* \"#utility.yul\":7299:7304   */\n      dup7\n        /* \"#utility.yul\":7295:7311   */\n      add\n        /* \"#utility.yul\":7260:7325   */\n      tag_77\n      jump\t// in\n    tag_175:\n        /* \"#utility.yul\":7350:7356   */\n      dup1\n        /* \"#utility.yul\":7345:7348   */\n      dup5\n        /* \"#utility.yul\":7341:7357   */\n      add\n        /* \"#utility.yul\":7334:7357   */\n      swap2\n      pop\n        /* \"#utility.yul\":7083:7363   */\n      pop\n        /* \"#utility.yul\":6973:7363   */\n      swap3\n      swap2\n      pop\n      pop\n      jump\t// out\n        /* \"#utility.yul\":7369:7644   */\n    tag_49:\n        /* \"#utility.yul\":7501:7504   */\n      0x00\n        /* \"#utility.yul\":7523:7618   */\n      tag_177\n        /* \"#utility.yul\":7614:7617   */\n      dup3\n        /* \"#utility.yul\":7605:7611   */\n      dup5\n        /* \"#utility.yul\":7523:7618   */\n      tag_78\n      jump\t// in\n    tag_177:\n        /* \"#utility.yul\":7516:7618   */\n      swap2\n      pop\n        /* \"#utility.yul\":7635:7638   */\n      dup2\n        /* \"#utility.yul\":7628:7638   */\n      swap1\n      pop\n        /* \"#utility.yul\":7369:7644   */\n      swap3\n      swap2\n      pop\n      pop\n      jump\t// out\n        /* \"#utility.yul\":7650:7830   */\n    tag_79:\n        /* \"#utility.yul\":7698:7775   */\n      0x4e487b7100000000000000000000000000000000000000000000000000000000\n        /* \"#utility.yul\":7695:7696   */\n      0x00\n        /* \"#utility.yul\":7688:7776   */\n      mstore\n        /* \"#utility.yul\":7795:7799   */\n      0x22\n        /* \"#utility.yul\":7792:7793   */\n      0x04\n        /* \"#utility.yul\":7785:7800   */\n      mstore\n        /* \"#utility.yul\":7819:7823   */\n      0x24\n        /* \"#utility.yul\":7816:7817   */\n      0x00\n        /* \"#utility.yul\":7809:7824   */\n      revert\n        /* \"#utility.yul\":7836:8156   */\n    tag_80:\n        /* \"#utility.yul\":7880:7886   */\n      0x00\n        /* \"#utility.yul\":7917:7918   */\n      0x02\n        /* \"#utility.yul\":7911:7915   */\n      dup3\n        /* \"#utility.yul\":7907:7919   */\n      div\n        /* \"#utility.yul\":7897:7919   */\n      swap1\n      pop\n        /* \"#utility.yul\":7964:7965   */\n      0x01\n        /* \"#utility.yul\":7958:7962   */\n      dup3\n        /* \"#utility.yul\":7954:7966   */\n      and\n        /* \"#utility.yul\":7985:8003   */\n      dup1\n        /* \"#utility.yul\":7975:8056   */\n      tag_180\n      jumpi\n        /* \"#utility.yul\":8041:8045   */\n      0x7f\n        /* \"#utility.yul\":8033:8039   */\n      dup3\n        /* \"#utility.yul\":8029:8046   */\n      and\n        /* \"#utility.yul\":8019:8046   */\n      swap2\n      pop\n        /* \"#utility.yul\":7975:8056   */\n    tag_180:\n        /* \"#utility.yul\":8103:8105   */\n      0x20\n        /* \"#utility.yul\":8095:8101   */\n      dup3\n        /* \"#utility.yul\":8092:8106   */\n      lt\n        /* \"#utility.yul\":8072:8090   */\n      dup2\n        /* \"#utility.yul\":8069:8107   */\n      sub\n        /* \"#utility.yul\":8066:8150   */\n      tag_181\n      jumpi\n        /* \"#utility.yul\":8122:8140   */\n      tag_182\n      tag_79\n      jump\t// in\n    tag_182:\n        /* \"#utility.yul\":8066:8150   */\n    tag_181:\n        /* \"#utility.yul\":7887:8156   */\n      pop\n        /* \"#utility.yul\":7836:8156   */\n      swap2\n      swap1\n      pop\n      jump\t// out\n        /* \"#utility.yul\":8162:8303   */\n    tag_81:\n        /* \"#utility.yul\":8211:8215   */\n      0x00\n        /* \"#utility.yul\":8234:8237   */\n      dup2\n        /* \"#utility.yul\":8226:8237   */\n      swap1\n      pop\n        /* \"#utility.yul\":8257:8260   */\n      dup2\n        /* \"#utility.yul\":8254:8255   */\n      0x00\n        /* \"#utility.yul\":8247:8261   */\n      mstore\n        /* \"#utility.yul\":8291:8295   */\n      0x20\n        /* \"#utility.yul\":8288:8289   */\n      0x00\n        /* \"#utility.yul\":8278:8296   */\n      keccak256\n        /* \"#utility.yul\":8270:8296   */\n      swap1\n      pop\n        /* \"#utility.yul\":8162:8303   */\n      swap2\n      swap1\n      pop\n      jump\t// out\n        /* \"#utility.yul\":8309:8402   */\n    tag_82:\n        /* \"#utility.yul\":8346:8352   */\n      0x00\n        /* \"#utility.yul\":8393:8395   */\n      0x20\n        /* \"#utility.yul\":8388:8390   */\n      0x1f\n        /* \"#utility.yul\":8381:8386   */\n      dup4\n        /* \"#utility.yul\":8377:8391   */\n      add\n        /* \"#utility.yul\":8373:8396   */\n      div\n        /* \"#utility.yul\":8363:8396   */\n      swap1\n      pop\n        /* \"#utility.yul\":8309:8402   */\n      swap2\n      swap1\n      pop\n      jump\t// out\n        /* \"#utility.yul\":8408:8515   */\n    tag_83:\n        /* \"#utility.yul\":8452:8460   */\n      0x00\n        /* \"#utility.yul\":8502:8507   */\n      dup3\n        /* \"#utility.yul\":8496:8500   */\n      dup3\n        /* \"#utility.yul\":8492:8508   */\n      shl\n        /* \"#utility.yul\":8471:8508   */\n      swap1\n      pop\n        /* \"#utility.yul\":8408:8515   */\n      swap3\n      swap2\n      pop\n      pop\n      jump\t// out\n        /* \"#utility.yul\":8521:8914   */\n    tag_84:\n        /* \"#utility.yul\":8590:8596   */\n      0x00\n        /* \"#utility.yul\":8640:8641   */\n      0x08\n        /* \"#utility.yul\":8628:8638   */\n      dup4\n        /* \"#utility.yul\":8624:8642   */\n      mul\n        /* \"#utility.yul\":8663:8760   */\n      tag_187\n        /* \"#utility.yul\":8693:8759   */\n      0xffffffffffffffffffffffffffffffffffffffffffffffffffffffffffffffff\n        /* \"#utility.yul\":8682:8691   */\n      dup3\n        /* \"#utility.yul\":8663:8760   */\n      tag_83\n      jump\t// in\n    tag_187:\n        /* \"#utility.yul\":8781:8820   */\n      tag_188\n        /* \"#utility.yul\":8811:8819   */\n      dup7\n        /* \"#utility.yul\":8800:8809   */\n      dup4\n        /* \"#utility.yul\":8781:8820   */\n      tag_83\n      jump\t// in\n    tag_188:\n        /* \"#utility.yul\":8769:8820   */\n      swap6\n      pop\n        /* \"#utility.yul\":8853:8857   */\n      dup1\n        /* \"#utility.yul\":8849:8858   */\n      not\n        /* \"#utility.yul\":8842:8847   */\n      dup5\n        /* \"#utility.yul\":8838:8859   */\n      and\n        /* \"#utility.yul\":8829:8859   */\n      swap4\n      pop\n        /* \"#utility.yul\":8902:8906   */\n      dup1\n        /* \"#utility.yul\":8892:8900   */\n      dup7\n        /* \"#utility.yul\":8888:8907   */\n      and\n        /* \"#utility.yul\":8881:8886   */\n      dup5\n        /* \"#utility.yul\":8878:8908   */\n      or\n        /* \"#utility.yul\":8868:8908   */\n      swap3\n      pop\n        /* \"#utility.yul\":8597:8914   */\n      pop\n      pop\n        /* \"#utility.yul\":8521:8914   */\n      swap4\n      swap3\n      pop\n      pop\n      pop\n      jump\t// out\n        /* \"#utility.yul\":8920:8997   */\n    tag_85:\n        /* \"#utility.yul\":8957:8964   */\n      0x00\n        /* \"#utility.yul\":8986:8991   */\n      dup2\n        /* \"#utility.yul\":8975:8991   */\n      swap1\n      pop\n        /* \"#utility.yul\":8920:8997   */\n      swap2\n      swap1\n      pop\n      jump\t// out\n        /* \"#utility.yul\":9003:9063   */\n    tag_86:\n        /* \"#utility.yul\":9031:9034   */\n      0x00\n        /* \"#utility.yul\":9052:9057   */\n      dup2\n        /* \"#utility.yul\":9045:9057   */\n      swap1\n      pop\n        /* \"#utility.yul\":9003:9063   */\n      swap2\n      swap1\n      pop\n      jump\t// out\n        /* \"#utility.yul\":9069:9211   */\n    tag_87:\n        /* \"#utility.yul\":9119:9128   */\n      0x00\n        /* \"#utility.yul\":9152:9205   */\n      tag_192\n        /* \"#utility.yul\":9170:9204   */\n      tag_193\n        /* \"#utility.yul\":9179:9203   */\n      tag_194\n        /* \"#utility.yul\":9197:9202   */\n      dup5\n        /* \"#utility.yul\":9179:9203   */\n      tag_85\n      jump\t// in\n    tag_194:\n        /* \"#utility.yul\":9170:9204   */\n      tag_86\n      jump\t// in\n    tag_193:\n        /* \"#utility.yul\":9152:9205   */\n      tag_85\n      jump\t// in\n    tag_192:\n        /* \"#utility.yul\":9139:9205   */\n      swap1\n      pop\n        /* \"#utility.yul\":9069:9211   */\n      swap2\n      swap1\n      pop\n      jump\t// out\n        /* \"#utility.yul\":9217:9292   */\n    tag_88:\n        /* \"#utility.yul\":9260:9263   */\n      0x00\n        /* \"#utility.yul\":9281:9286   */\n      dup2\n        /* \"#utility.yul\":9274:9286   */\n      swap1\n      pop\n        /* \"#utility.yul\":9217:9292   */\n      swap2\n      swap1\n      pop\n      jump\t// out\n        /* \"#utility.yul\":9298:9567   */\n    tag_89:\n        /* \"#utility.yul\":9408:9447   */\n      tag_197\n        /* \"#utility.yul\":9439:9446   */\n      dup4\n        /* \"#utility.yul\":9408:9447   */\n      tag_87\n      jump\t// in\n    tag_197:\n        /* \"#utility.yul\":9469:9560   */\n      tag_198\n        /* \"#utility.yul\":9518:9559   */\n      tag_199\n        /* \"#utility.yul\":9542:9558   */\n      dup3\n        /* \"#utility.yul\":9518:9559   */\n      tag_88\n      jump\t// in\n    tag_199:\n        /* \"#utility.yul\":9510:9516   */\n      dup5\n        /* \"#utility.yul\":9503:9507   */\n      dup5\n        /* \"#utility.yul\":9497:9508   */\n      sload\n        /* \"#utility.yul\":9469:9560   */\n      tag_84\n      jump\t// in\n    tag_198:\n        /* \"#utility.yul\":9463:9467   */\n      dup3\n        /* \"#utility.yul\":9456:9561   */\n      sstore\n        /* \"#utility.yul\":9374:9567   */\n      pop\n        /* \"#utility.yul\":9298:9567   */\n      pop\n      pop\n      pop\n      jump\t// out\n        /* \"#utility.yul\":9573:9646   */\n    tag_90:\n        /* \"#utility.yul\":9618:9621   */\n      0x00\n        /* \"#utility.yul\":9573:9646   */\n      swap1\n      jump\t// out\n        /* \"#utility.yul\":9652:9841   */\n    tag_91:\n        /* \"#utility.yul\":9729:9761   */\n      tag_202\n      tag_90\n      jump\t// in\n    tag_202:\n        /* \"#utility.yul\":9770:9835   */\n      tag_203\n        /* \"#utility.yul\":9828:9834   */\n      dup2\n        /* \"#utility.yul\":9820:9826   */\n      dup5\n        /* \"#utility.yul\":9814:9818   */\n      dup5\n        /* \"#utility.yul\":9770:9835   */\n      tag_89\n      jump\t// in\n    tag_203:\n        /* \"#utility.yul\":9705:9841   */\n      pop\n        /* \"#utility.yul\":9652:9841   */\n      pop\n      pop\n      jump\t// out\n        /* \"#utility.yul\":9847:10033   */\n    tag_92:\n        /* \"#utility.yul\":9907:10027   */\n    tag_205:\n        /* \"#utility.yul\":9924:9927   */\n      dup2\n        /* \"#utility.yul\":9917:9922   */\n      dup2\n        /* \"#utility.yul\":9914:9928   */\n      lt\n        /* \"#utility.yul\":9907:10027   */\n      iszero\n      tag_207\n      jumpi\n        /* \"#utility.yul\":9978:10017   */\n      tag_208\n        /* \"#utility.yul\":10015:10016   */\n      0x00\n        /* \"#utility.yul\":10008:10013   */\n      dup3\n        /* \"#utility.yul\":9978:10017   */\n      tag_91\n      jump\t// in\n    tag_208:\n        /* \"#utility.yul\":9951:9952   */\n      0x01\n        /* \"#utility.yul\":9944:9949   */\n      dup2\n        /* \"#utility.yul\":9940:9953   */\n      add\n        /* \"#utility.yul\":9931:9953   */\n      swap1\n      pop\n        /* \"#utility.yul\":9907:10027   */\n      jump(tag_205)\n    tag_207:\n        /* \"#utility.yul\":9847:10033   */\n      pop\n      pop\n      jump\t// out\n        /* \"#utility.yul\":10039:10582   */\n    tag_93:\n        /* \"#utility.yul\":10140:10142   */\n      0x1f\n        /* \"#utility.yul\":10135:10138   */\n      dup3\n        /* \"#utility.yul\":10132:10143   */\n      gt\n        /* \"#utility.yul\":10129:10575   */\n      iszero\n      tag_210\n      jumpi\n        /* \"#utility.yul\":10174:10212   */\n      tag_211\n        /* \"#utility.yul\":10206:10211   */\n      dup2\n        /* \"#utility.yul\":10174:10212   */\n      tag_81\n      jump\t// in\n    tag_211:\n        /* \"#utility.yul\":10258:10287   */\n      tag_212\n        /* \"#utility.yul\":10276:10286   */\n      dup5\n        /* \"#utility.yul\":10258:10287   */\n      tag_82\n      jump\t// in\n    tag_212:\n        /* \"#utility.yul\":10248:10256   */\n      dup2\n        /* \"#utility.yul\":10244:10288   */\n      add\n        /* \"#utility.yul\":10441:10443   */\n      0x20\n        /* \"#utility.yul\":10429:10439   */\n      dup6\n        /* \"#utility.yul\":10426:10444   */\n      lt\n        /* \"#utility.yul\":10423:10472   */\n      iszero\n      tag_213\n      jumpi\n        /* \"#utility.yul\":10462:10470   */\n      dup2\n        /* \"#utility.yul\":10447:10470   */\n      swap1\n      pop\n        /* \"#utility.yul\":10423:10472   */\n    tag_213:\n        /* \"#utility.yul\":10485:10565   */\n      tag_214\n        /* \"#utility.yul\":10541:10563   */\n      tag_215\n        /* \"#utility.yul\":10559:10562   */\n      dup6\n        /* \"#utility.yul\":10541:10563   */\n      tag_82\n      jump\t// in\n    tag_215:\n        /* \"#utility.yul\":10531:10539   */\n      dup4\n        /* \"#utility.yul\":10527:10564   */\n      add\n        /* \"#utility.yul\":10514:10525   */\n      dup3\n        /* \"#utility.yul\":10485:10565   */\n      tag_92\n      jump\t// in\n    tag_214:\n        /* \"#utility.yul\":10144:10575   */\n      pop\n      pop\n        /* \"#utility.yul\":10129:10575   */\n    tag_210:\n        /* \"#utility.yul\":10039:10582   */\n      pop\n      pop\n      pop\n      jump\t// out\n        /* \"#utility.yul\":10588:10705   */\n    tag_94:\n        /* \"#utility.yul\":10642:10650   */\n      0x00\n        /* \"#utility.yul\":10692:10697   */\n      dup3\n        /* \"#utility.yul\":10686:10690   */\n      dup3\n        /* \"#utility.yul\":10682:10698   */\n      shr\n        /* \"#utility.yul\":10661:10698   */\n      swap1\n      pop\n        /* \"#utility.yul\":10588:10705   */\n      swap3\n      swap2\n      pop\n      pop\n      jump\t// out\n        /* \"#utility.yul\":10711:10880   */\n    tag_95:\n        /* \"#utility.yul\":10755:10761   */\n      0x00\n        /* \"#utility.yul\":10788:10839   */\n      tag_218\n        /* \"#utility.yul\":10836:10837   */\n      0x00\n        /* \"#utility.yul\":10832:10838   */\n      not\n        /* \"#utility.yul\":10824:10829   */\n      dup5\n        /* \"#utility.yul\":10821:10822   */\n      0x08\n        /* \"#utility.yul\":10817:10830   */\n      mul\n        /* \"#utility.yul\":10788:10839   */\n      tag_94\n      jump\t// in\n    tag_218:\n        /* \"#utility.yul\":10784:10840   */\n      not\n        /* \"#utility.yul\":10869:10873   */\n      dup1\n        /* \"#utility.yul\":10863:10867   */\n      dup4\n        /* \"#utility.yul\":10859:10874   */\n      and\n        /* \"#utility.yul\":10849:10874   */\n      swap2\n      pop\n        /* \"#utility.yul\":10762:10880   */\n      pop\n        /* \"#utility.yul\":10711:10880   */\n      swap3\n      swap2\n      pop\n      pop\n      jump\t// out\n        /* \"#utility.yul\":10885:11180   */\n    tag_96:\n        /* \"#utility.yul\":10961:10965   */\n      0x00\n        /* \"#utility.yul\":11107:11136   */\n      tag_220\n        /* \"#utility.yul\":11132:11135   */\n      dup4\n        /* \"#utility.yul\":11126:11130   */\n      dup4\n        /* \"#utility.yul\":11107:11136   */\n      tag_95\n      jump\t// in\n    tag_220:\n        /* \"#utility.yul\":11099:11136   */\n      swap2\n      pop\n        /* \"#utility.yul\":11169:11172   */\n      dup3\n        /* \"#utility.yul\":11166:11167   */\n      0x02\n        /* \"#utility.yul\":11162:11173   */\n      mul\n        /* \"#utility.yul\":11156:11160   */\n      dup3\n        /* \"#utility.yul\":11153:11174   */\n      or\n        /* \"#utility.yul\":11145:11174   */\n      swap1\n      pop\n        /* \"#utility.yul\":10885:11180   */\n      swap3\n      swap2\n      pop\n      pop\n      jump\t// out\n        /* \"#utility.yul\":11185:12580   */\n    tag_51:\n        /* \"#utility.yul\":11302:11339   */\n      tag_222\n        /* \"#utility.yul\":11335:11338   */\n      dup3\n        /* \"#utility.yul\":11302:11339   */\n      tag_75\n      jump\t// in\n    tag_222:\n        /* \"#utility.yul\":11404:11422   */\n      0xffffffffffffffff\n        /* \"#utility.yul\":11396:11402   */\n      dup2\n        /* \"#utility.yul\":11393:11423   */\n      gt\n        /* \"#utility.yul\":11390:11446   */\n      iszero\n      tag_223\n      jumpi\n        /* \"#utility.yul\":11426:11444   */\n      tag_224\n      tag_64\n      jump\t// in\n    tag_224:\n        /* \"#utility.yul\":11390:11446   */\n    tag_223:\n        /* \"#utility.yul\":11470:11508   */\n      tag_225\n        /* \"#utility.yul\":11502:11506   */\n      dup3\n        /* \"#utility.yul\":11496:11507   */\n      sload\n        /* \"#utility.yul\":11470:11508   */\n      tag_80\n      jump\t// in\n    tag_225:\n        /* \"#utility.yul\":11555:11622   */\n      tag_226\n        /* \"#utility.yul\":11615:11621   */\n      dup3\n        /* \"#utility.yul\":11607:11613   */\n      dup3\n        /* \"#utility.yul\":11601:11605   */\n      dup6\n        /* \"#utility.yul\":11555:11622   */\n      tag_93\n      jump\t// in\n    tag_226:\n        /* \"#utility.yul\":11649:11650   */\n      0x00\n        /* \"#utility.yul\":11673:11677   */\n      0x20\n        /* \"#utility.yul\":11660:11677   */\n      swap1\n      pop\n        /* \"#utility.yul\":11705:11707   */\n      0x1f\n        /* \"#utility.yul\":11697:11703   */\n      dup4\n        /* \"#utility.yul\":11694:11708   */\n      gt\n        /* \"#utility.yul\":11722:11723   */\n      0x01\n        /* \"#utility.yul\":11717:12335   */\n      dup2\n      eq\n      tag_228\n      jumpi\n        /* \"#utility.yul\":12379:12380   */\n      0x00\n        /* \"#utility.yul\":12396:12402   */\n      dup5\n        /* \"#utility.yul\":12393:12470   */\n      iszero\n      tag_229\n      jumpi\n        /* \"#utility.yul\":12445:12454   */\n      dup3\n        /* \"#utility.yul\":12440:12443   */\n      dup8\n        /* \"#utility.yul\":12436:12455   */\n      add\n        /* \"#utility.yul\":12430:12456   */\n      mload\n        /* \"#utility.yul\":12421:12456   */\n      swap1\n      pop\n        /* \"#utility.yul\":12393:12470   */\n    tag_229:\n        /* \"#utility.yul\":12496:12563   */\n      tag_230\n        /* \"#utility.yul\":12556:12562   */\n      dup6\n        /* \"#utility.yul\":12549:12554   */\n      dup3\n        /* \"#utility.yul\":12496:12563   */\n      tag_96\n      jump\t// in\n    tag_230:\n        /* \"#utility.yul\":12490:12494   */\n      dup7\n        /* \"#utility.yul\":12483:12564   */\n      sstore\n        /* \"#utility.yul\":12352:12574   */\n      pop\n        /* \"#utility.yul\":11687:12574   */\n      jump(tag_227)\n        /* \"#utility.yul\":11717:12335   */\n    tag_228:\n        /* \"#utility.yul\":11769:11773   */\n      0x1f\n        /* \"#utility.yul\":11765:11774   */\n      not\n        /* \"#utility.yul\":11757:11763   */\n      dup5\n        /* \"#utility.yul\":11753:11775   */\n      and\n        /* \"#utility.yul\":11803:11840   */\n      tag_231\n        /* \"#utility.yul\":11835:11839   */\n      dup7\n        /* \"#utility.yul\":11803:11840   */\n      tag_81\n      jump\t// in\n    tag_231:\n        /* \"#utility.yul\":11862:11863   */\n      0x00\n        /* \"#utility.yul\":11876:12084   */\n    tag_232:\n        /* \"#utility.yul\":11890:11897   */\n      dup3\n        /* \"#utility.yul\":11887:11888   */\n      dup2\n        /* \"#utility.yul\":11884:11898   */\n      lt\n        /* \"#utility.yul\":11876:12084   */\n      iszero\n      tag_234\n      jumpi\n        /* \"#utility.yul\":11969:11978   */\n      dup5\n        /* \"#utility.yul\":11964:11967   */\n      dup10\n        /* \"#utility.yul\":11960:11979   */\n      add\n        /* \"#utility.yul\":11954:11980   */\n      mload\n        /* \"#utility.yul\":11946:11952   */\n      dup3\n        /* \"#utility.yul\":11939:11981   */\n      sstore\n        /* \"#utility.yul\":12020:12021   */\n      0x01\n        /* \"#utility.yul\":12012:12018   */\n      dup3\n        /* \"#utility.yul\":12008:12022   */\n      add\n        /* \"#utility.yul\":11998:12022   */\n      swap2\n      pop\n        /* \"#utility.yul\":12067:12069   */\n      0x20\n        /* \"#utility.yul\":12056:12065   */\n      dup6\n        /* \"#utility.yul\":12052:12070   */\n      add\n        /* \"#utility.yul\":12039:12070   */\n      swap5\n      pop\n        /* \"#utility.yul\":11913:11917   */\n      0x20\n        /* \"#utility.yul\":11910:11911   */\n      dup2\n        /* \"#utility.yul\":11906:11918   */\n      add\n        /* \"#utility.yul\":11901:11918   */\n      swap1\n      pop\n        /* \"#utility.yul\":11876:12084   */\n      jump(tag_232)\n    tag_234:\n        /* \"#utility.yul\":12112:12118   */\n      dup7\n        /* \"#utility.yul\":12103:12110   */\n      dup4\n        /* \"#utility.yul\":12100:12119   */\n      lt\n        /* \"#utility.yul\":12097:12276   */\n      iszero\n      tag_235\n      jumpi\n        /* \"#utility.yul\":12170:12179   */\n      dup5\n        /* \"#utility.yul\":12165:12168   */\n      dup10\n        /* \"#utility.yul\":12161:12180   */\n      add\n        /* \"#utility.yul\":12155:12181   */\n      mload\n        /* \"#utility.yul\":12213:12261   */\n      tag_236\n        /* \"#utility.yul\":12255:12259   */\n      0x1f\n        /* \"#utility.yul\":12247:12253   */\n      dup10\n        /* \"#utility.yul\":12243:12260   */\n      and\n        /* \"#utility.yul\":12232:12241   */\n      dup3\n        /* \"#utility.yul\":12213:12261   */\n      tag_95\n      jump\t// in\n    tag_236:\n        /* \"#utility.yul\":12205:12211   */\n      dup4\n        /* \"#utility.yul\":12198:12262   */\n      sstore\n        /* \"#utility.yul\":12120:12276   */\n      pop\n        /* \"#utility.yul\":12097:12276   */\n    tag_235:\n        /* \"#utility.yul\":12322:12323   */\n      0x01\n        /* \"#utility.yul\":12318:12319   */\n      0x02\n        /* \"#utility.yul\":12310:12316   */\n      dup9\n        /* \"#utility.yul\":12306:12320   */\n      mul\n        /* \"#utility.yul\":12302:12324   */\n      add\n        /* \"#utility.yul\":12296:12300   */\n      dup9\n        /* \"#utility.yul\":12289:12325   */\n      sstore\n        /* \"#utility.yul\":11724:12335   */\n      pop\n      pop\n      pop\n        /* \"#utility.yul\":11687:12574   */\n    tag_227:\n      pop\n        /* \"#utility.yul\":11277:12580   */\n      pop\n      pop\n      pop\n        /* \"#utility.yul\":11185:12580   */\n      pop\n      pop\n      jump\t// out\n\n    auxdata: 0xa2646970667358221220231439c2d53d32ab6f7a2c8a56a5464457b82ccfeb4365164ee3189321ae989d64736f6c63430008160033\n}\n",
				"bytecode": {
					"linkReferences": {},
					"object": "608060405234801561000f575f80fd5b50604051610dd0380380610dd083398181016040528101906100319190610116565b80335f806101000a81548173ffffffffffffffffffffffffffffffffffffffff021916908373ffffffffffffffffffffffffffffffffffffffff1602179055508060015f6101000a81548173ffffffffffffffffffffffffffffffffffffffff021916908373ffffffffffffffffffffffffffffffffffffffff1602179055505050610141565b5f80fd5b5f73ffffffffffffffffffffffffffffffffffffffff82169050919050565b5f6100e5826100bc565b9050919050565b6100f5816100db565b81146100ff575f80fd5b50565b5f81519050610110816100ec565b92915050565b5f6020828403121561012b5761012a6100b8565b5b5f61013884828501610102565b91505092915050565b610c828061014e5f395ff3fe608060405234801561000f575f80fd5b5060043610610060575f3560e01c806313af40351461006457806384339c7c1461008057806389c359611461009c578063ae55c888146100b8578063b2bdfa7b146100e8578063be83506614610106575b5f80fd5b61007e600480360381019061007991906105fc565b610124565b005b61009a600480360381019061009591906105fc565b61024a565b005b6100b660048036038101906100b19190610763565b610371565b005b6100d260048036038101906100cd91906107eb565b610500565b6040516100df9190610841565b60405180910390f35b6100f0610549565b6040516100fd9190610841565b60405180910390f35b61010e61056c565b60405161011b9190610841565b60405180910390f35b5f8054906101000a900473ffffffffffffffffffffffffffffffffffffffff1673ffffffffffffffffffffffffffffffffffffffff163373ffffffffffffffffffffffffffffffffffffffff1614806101c9575060015f9054906101000a900473ffffffffffffffffffffffffffffffffffffffff1673ffffffffffffffffffffffffffffffffffffffff163373ffffffffffffffffffffffffffffffffffffffff16145b610208576040517f08c379a00000000000000000000000000000000000000000000000000000000081526004016101ff906108da565b60405180910390fd5b805f806101000a81548173ffffffffffffffffffffffffffffffffffffffff021916908373ffffffffffffffffffffffffffffffffffffffff16021790555050565b5f8054906101000a900473ffffffffffffffffffffffffffffffffffffffff1673ffffffffffffffffffffffffffffffffffffffff163373ffffffffffffffffffffffffffffffffffffffff1614806102ef575060015f9054906101000a900473ffffffffffffffffffffffffffffffffffffffff1673ffffffffffffffffffffffffffffffffffffffff163373ffffffffffffffffffffffffffffffffffffffff16145b61032e576040517f08c379a0000000000000000000000000000000000000000000000000000000008152600401610325906108da565b60405180910390fd5b8060015f6101000a81548173ffffffffffffffffffffffffffffffffffffffff021916908373ffffffffffffffffffffffffffffffffffffffff16021790555050565b5f8054906101000a900473ffffffffffffffffffffffffffffffffffffffff1673ffffffffffffffffffffffffffffffffffffffff163373ffffffffffffffffffffffffffffffffffffffff161480610416575060015f9054906101000a900473ffffffffffffffffffffffffffffffffffffffff1673ffffffffffffffffffffffffffffffffffffffff163373ffffffffffffffffffffffffffffffffffffffff16145b610455576040517f08c379a000000000000000000000000000000000000000000000000000000000815260040161044c906108da565b60405180910390fd5b60405180604001604052808381526020018273ffffffffffffffffffffffffffffffffffffffff168152506002846040516104909190610964565b90815260200160405180910390205f820151815f0190816104b19190610b7d565b506020820151816001015f6101000a81548173ffffffffffffffffffffffffffffffffffffffff021916908373ffffffffffffffffffffffffffffffffffffffff160217905550905050505050565b5f6002826040516105119190610964565b90815260200160405180910390206001015f9054906101000a900473ffffffffffffffffffffffffffffffffffffffff169050919050565b5f8054906101000a900473ffffffffffffffffffffffffffffffffffffffff1681565b60015f9054906101000a900473ffffffffffffffffffffffffffffffffffffffff1681565b5f604051905090565b5f80fd5b5f80fd5b5f73ffffffffffffffffffffffffffffffffffffffff82169050919050565b5f6105cb826105a2565b9050919050565b6105db816105c1565b81146105e5575f80fd5b50565b5f813590506105f6816105d2565b92915050565b5f602082840312156106115761061061059a565b5b5f61061e848285016105e8565b91505092915050565b5f80fd5b5f80fd5b5f601f19601f8301169050919050565b7f4e487b71000000000000000000000000000000000000000000000000000000005f52604160045260245ffd5b6106758261062f565b810181811067ffffffffffffffff821117156106945761069361063f565b5b80604052505050565b5f6106a6610591565b90506106b2828261066c565b919050565b5f67ffffffffffffffff8211156106d1576106d061063f565b5b6106da8261062f565b9050602081019050919050565b828183375f83830152505050565b5f610707610702846106b7565b61069d565b9050828152602081018484840111156107235761072261062b565b5b61072e8482856106e7565b509392505050565b5f82601f83011261074a57610749610627565b5b813561075a8482602086016106f5565b91505092915050565b5f805f6060848603121561077a5761077961059a565b5b5f84013567ffffffffffffffff8111156107975761079661059e565b5b6107a386828701610736565b935050602084013567ffffffffffffffff8111156107c4576107c361059e565b5b6107d086828701610736565b92505060406107e1868287016105e8565b9150509250925092565b5f60208284031215610800576107ff61059a565b5b5f82013567ffffffffffffffff81111561081d5761081c61059e565b5b61082984828501610736565b91505092915050565b61083b816105c1565b82525050565b5f6020820190506108545f830184610832565b92915050565b5f82825260208201905092915050565b7f4261736963417574683a206f6e6c79206f776e6572206f72206261636b206f775f8201527f6e657220697320617574686f72697a65642e0000000000000000000000000000602082015250565b5f6108c460328361085a565b91506108cf8261086a565b604082019050919050565b5f6020820190508181035f8301526108f1816108b8565b9050919050565b5f81519050919050565b5f81905092915050565b5f5b8381101561092957808201518184015260208101905061090e565b5f8484015250505050565b5f61093e826108f8565b6109488185610902565b935061095881856020860161090c565b80840191505092915050565b5f61096f8284610934565b915081905092915050565b7f4e487b71000000000000000000000000000000000000000000000000000000005f52602260045260245ffd5b5f60028204905060018216806109be57607f821691505b6020821081036109d1576109d061097a565b5b50919050565b5f819050815f5260205f209050919050565b5f6020601f8301049050919050565b5f82821b905092915050565b5f60088302610a337fffffffffffffffffffffffffffffffffffffffffffffffffffffffffffffffff826109f8565b610a3d86836109f8565b95508019841693508086168417925050509392505050565b5f819050919050565b5f819050919050565b5f610a81610a7c610a7784610a55565b610a5e565b610a55565b9050919050565b5f819050919050565b610a9a83610a67565b610aae610aa682610a88565b848454610a04565b825550505050565b5f90565b610ac2610ab6565b610acd818484610a91565b505050565b5b81811015610af057610ae55f82610aba565b600181019050610ad3565b5050565b601f821115610b3557610b06816109d7565b610b0f846109e9565b81016020851015610b1e578190505b610b32610b2a856109e9565b830182610ad2565b50505b505050565b5f82821c905092915050565b5f610b555f1984600802610b3a565b1980831691505092915050565b5f610b6d8383610b46565b9150826002028217905092915050565b610b86826108f8565b67ffffffffffffffff811115610b9f57610b9e61063f565b5b610ba982546109a7565b610bb4828285610af4565b5f60209050601f831160018114610be5575f8415610bd3578287015190505b610bdd8582610b62565b865550610c44565b601f198416610bf3866109d7565b5f5b82811015610c1a57848901518255600182019150602085019450602081019050610bf5565b86831015610c375784890151610c33601f891682610b46565b8355505b6001600288020188555050505b50505050505056fea2646970667358221220231439c2d53d32ab6f7a2c8a56a5464457b82ccfeb4365164ee3189321ae989d64736f6c63430008160033",
					"opcodes": "PUSH1 0x80 PUSH1 0x40 MSTORE CALLVALUE DUP1 ISZERO PUSH2 0xF JUMPI PUSH0 DUP1 REVERT JUMPDEST POP PUSH1 0x40 MLOAD PUSH2 0xDD0 CODESIZE SUB DUP1 PUSH2 0xDD0 DUP4 CODECOPY DUP2 DUP2 ADD PUSH1 0x40 MSTORE DUP2 ADD SWAP1 PUSH2 0x31 SWAP2 SWAP1 PUSH2 0x116 JUMP JUMPDEST DUP1 CALLER PUSH0 DUP1 PUSH2 0x100 EXP DUP2 SLOAD DUP2 PUSH20 0xFFFFFFFFFFFFFFFFFFFFFFFFFFFFFFFFFFFFFFFF MUL NOT AND SWAP1 DUP4 PUSH20 0xFFFFFFFFFFFFFFFFFFFFFFFFFFFFFFFFFFFFFFFF AND MUL OR SWAP1 SSTORE POP DUP1 PUSH1 0x1 PUSH0 PUSH2 0x100 EXP DUP2 SLOAD DUP2 PUSH20 0xFFFFFFFFFFFFFFFFFFFFFFFFFFFFFFFFFFFFFFFF MUL NOT AND SWAP1 DUP4 PUSH20 0xFFFFFFFFFFFFFFFFFFFFFFFFFFFFFFFFFFFFFFFF AND MUL OR SWAP1 SSTORE POP POP POP PUSH2 0x141 JUMP JUMPDEST PUSH0 DUP1 REVERT JUMPDEST PUSH0 PUSH20 0xFFFFFFFFFFFFFFFFFFFFFFFFFFFFFFFFFFFFFFFF DUP3 AND SWAP1 POP SWAP2 SWAP1 POP JUMP JUMPDEST PUSH0 PUSH2 0xE5 DUP3 PUSH2 0xBC JUMP JUMPDEST SWAP1 POP SWAP2 SWAP1 POP JUMP JUMPDEST PUSH2 0xF5 DUP2 PUSH2 0xDB JUMP JUMPDEST DUP2 EQ PUSH2 0xFF JUMPI PUSH0 DUP1 REVERT JUMPDEST POP JUMP JUMPDEST PUSH0 DUP2 MLOAD SWAP1 POP PUSH2 0x110 DUP2 PUSH2 0xEC JUMP JUMPDEST SWAP3 SWAP2 POP POP JUMP JUMPDEST PUSH0 PUSH1 0x20 DUP3 DUP5 SUB SLT ISZERO PUSH2 0x12B JUMPI PUSH2 0x12A PUSH2 0xB8 JUMP JUMPDEST JUMPDEST PUSH0 PUSH2 0x138 DUP5 DUP3 DUP6 ADD PUSH2 0x102 JUMP JUMPDEST SWAP2 POP POP SWAP3 SWAP2 POP POP JUMP JUMPDEST PUSH2 0xC82 DUP1 PUSH2 0x14E PUSH0 CODECOPY PUSH0 RETURN INVALID PUSH1 0x80 PUSH1 0x40 MSTORE CALLVALUE DUP1 ISZERO PUSH2 0xF JUMPI PUSH0 DUP1 REVERT JUMPDEST POP PUSH1 0x4 CALLDATASIZE LT PUSH2 0x60 JUMPI PUSH0 CALLDATALOAD PUSH1 0xE0 SHR DUP1 PUSH4 0x13AF4035 EQ PUSH2 0x64 JUMPI DUP1 PUSH4 0x84339C7C EQ PUSH2 0x80 JUMPI DUP1 PUSH4 0x89C35961 EQ PUSH2 0x9C JUMPI DUP1 PUSH4 0xAE55C888 EQ PUSH2 0xB8 JUMPI DUP1 PUSH4 0xB2BDFA7B EQ PUSH2 0xE8 JUMPI DUP1 PUSH4 0xBE835066 EQ PUSH2 0x106 JUMPI JUMPDEST PUSH0 DUP1 REVERT JUMPDEST PUSH2 0x7E PUSH1 0x4 DUP1 CALLDATASIZE SUB DUP2 ADD SWAP1 PUSH2 0x79 SWAP2 SWAP1 PUSH2 0x5FC JUMP JUMPDEST PUSH2 0x124 JUMP JUMPDEST STOP JUMPDEST PUSH2 0x9A PUSH1 0x4 DUP1 CALLDATASIZE SUB DUP2 ADD SWAP1 PUSH2 0x95 SWAP2 SWAP1 PUSH2 0x5FC JUMP JUMPDEST PUSH2 0x24A JUMP JUMPDEST STOP JUMPDEST PUSH2 0xB6 PUSH1 0x4 DUP1 CALLDATASIZE SUB DUP2 ADD SWAP1 PUSH2 0xB1 SWAP2 SWAP1 PUSH2 0x763 JUMP JUMPDEST PUSH2 0x371 JUMP JUMPDEST STOP JUMPDEST PUSH2 0xD2 PUSH1 0x4 DUP1 CALLDATASIZE SUB DUP2 ADD SWAP1 PUSH2 0xCD SWAP2 SWAP1 PUSH2 0x7EB JUMP JUMPDEST PUSH2 0x500 JUMP JUMPDEST PUSH1 0x40 MLOAD PUSH2 0xDF SWAP2 SWAP1 PUSH2 0x841 JUMP JUMPDEST PUSH1 0x40 MLOAD DUP1 SWAP2 SUB SWAP1 RETURN JUMPDEST PUSH2 0xF0 PUSH2 0x549 JUMP JUMPDEST PUSH1 0x40 MLOAD PUSH2 0xFD SWAP2 SWAP1 PUSH2 0x841 JUMP JUMPDEST PUSH1 0x40 MLOAD DUP1 SWAP2 SUB SWAP1 RETURN JUMPDEST PUSH2 0x10E PUSH2 0x56C JUMP JUMPDEST PUSH1 0x40 MLOAD PUSH2 0x11B SWAP2 SWAP1 PUSH2 0x841 JUMP JUMPDEST PUSH1 0x40 MLOAD DUP1 SWAP2 SUB SWAP1 RETURN JUMPDEST PUSH0 DUP1 SLOAD SWAP1 PUSH2 0x100 EXP SWAP1 DIV PUSH20 0xFFFFFFFFFFFFFFFFFFFFFFFFFFFFFFFFFFFFFFFF AND PUSH20 0xFFFFFFFFFFFFFFFFFFFFFFFFFFFFFFFFFFFFFFFF AND CALLER PUSH20 0xFFFFFFFFFFFFFFFFFFFFFFFFFFFFFFFFFFFFFFFF AND EQ DUP1 PUSH2 0x1C9 JUMPI POP PUSH1 0x1 PUSH0 SWAP1 SLOAD SWAP1 PUSH2 0x100 EXP SWAP1 DIV PUSH20 0xFFFFFFFFFFFFFFFFFFFFFFFFFFFFFFFFFFFFFFFF AND PUSH20 0xFFFFFFFFFFFFFFFFFFFFFFFFFFFFFFFFFFFFFFFF AND CALLER PUSH20 0xFFFFFFFFFFFFFFFFFFFFFFFFFFFFFFFFFFFFFFFF AND EQ JUMPDEST PUSH2 0x208 JUMPI PUSH1 0x40 MLOAD PUSH32 0x8C379A000000000000000000000000000000000000000000000000000000000 DUP2 MSTORE PUSH1 0x4 ADD PUSH2 0x1FF SWAP1 PUSH2 0x8DA JUMP JUMPDEST PUSH1 0x40 MLOAD DUP1 SWAP2 SUB SWAP1 REVERT JUMPDEST DUP1 PUSH0 DUP1 PUSH2 0x100 EXP DUP2 SLOAD DUP2 PUSH20 0xFFFFFFFFFFFFFFFFFFFFFFFFFFFFFFFFFFFFFFFF MUL NOT AND SWAP1 DUP4 PUSH20 0xFFFFFFFFFFFFFFFFFFFFFFFFFFFFFFFFFFFFFFFF AND MUL OR SWAP1 SSTORE POP POP JUMP JUMPDEST PUSH0 DUP1 SLOAD SWAP1 PUSH2 0x100 EXP SWAP1 DIV PUSH20 0xFFFFFFFFFFFFFFFFFFFFFFFFFFFFFFFFFFFFFFFF AND PUSH20 0xFFFFFFFFFFFFFFFFFFFFFFFFFFFFFFFFFFFFFFFF AND CALLER PUSH20 0xFFFFFFFFFFFFFFFFFFFFFFFFFFFFFFFFFFFFFFFF AND EQ DUP1 PUSH2 0x2EF JUMPI POP PUSH1 0x1 PUSH0 SWAP1 SLOAD SWAP1 PUSH2 0x100 EXP SWAP1 DIV PUSH20 0xFFFFFFFFFFFFFFFFFFFFFFFFFFFFFFFFFFFFFFFF AND PUSH20 0xFFFFFFFFFFFFFFFFFFFFFFFFFFFFFFFFFFFFFFFF AND CALLER PUSH20 0xFFFFFFFFFFFFFFFFFFFFFFFFFFFFFFFFFFFFFFFF AND EQ JUMPDEST PUSH2 0x32E JUMPI PUSH1 0x40 MLOAD PUSH32 0x8C379A000000000000000000000000000000000000000000000000000000000 DUP2 MSTORE PUSH1 0x4 ADD PUSH2 0x325 SWAP1 PUSH2 0x8DA JUMP JUMPDEST PUSH1 0x40 MLOAD DUP1 SWAP2 SUB SWAP1 REVERT JUMPDEST DUP1 PUSH1 0x1 PUSH0 PUSH2 0x100 EXP DUP2 SLOAD DUP2 PUSH20 0xFFFFFFFFFFFFFFFFFFFFFFFFFFFFFFFFFFFFFFFF MUL NOT AND SWAP1 DUP4 PUSH20 0xFFFFFFFFFFFFFFFFFFFFFFFFFFFFFFFFFFFFFFFF AND MUL OR SWAP1 SSTORE POP POP JUMP JUMPDEST PUSH0 DUP1 SLOAD SWAP1 PUSH2 0x100 EXP SWAP1 DIV PUSH20 0xFFFFFFFFFFFFFFFFFFFFFFFFFFFFFFFFFFFFFFFF AND PUSH20 0xFFFFFFFFFFFFFFFFFFFFFFFFFFFFFFFFFFFFFFFF AND CALLER PUSH20 0xFFFFFFFFFFFFFFFFFFFFFFFFFFFFFFFFFFFFFFFF AND EQ DUP1 PUSH2 0x416 JUMPI POP PUSH1 0x1 PUSH0 SWAP1 SLOAD SWAP1 PUSH2 0x100 EXP SWAP1 DIV PUSH20 0xFFFFFFFFFFFFFFFFFFFFFFFFFFFFFFFFFFFFFFFF AND PUSH20 0xFFFFFFFFFFFFFFFFFFFFFFFFFFFFFFFFFFFFFFFF AND CALLER PUSH20 0xFFFFFFFFFFFFFFFFFFFFFFFFFFFFFFFFFFFFFFFF AND EQ JUMPDEST PUSH2 0x455 JUMPI PUSH1 0x40 MLOAD PUSH32 0x8C379A000000000000000000000000000000000000000000000000000000000 DUP2 MSTORE PUSH1 0x4 ADD PUSH2 0x44C SWAP1 PUSH2 0x8DA JUMP JUMPDEST PUSH1 0x40 MLOAD DUP1 SWAP2 SUB SWAP1 REVERT JUMPDEST PUSH1 0x40 MLOAD DUP1 PUSH1 0x40 ADD PUSH1 0x40 MSTORE DUP1 DUP4 DUP2 MSTORE PUSH1 0x20 ADD DUP3 PUSH20 0xFFFFFFFFFFFFFFFFFFFFFFFFFFFFFFFFFFFFFFFF AND DUP2 MSTORE POP PUSH1 0x2 DUP5 PUSH1 0x40 MLOAD PUSH2 0x490 SWAP2 SWAP1 PUSH2 0x964 JUMP JUMPDEST SWAP1 DUP2 MSTORE PUSH1 0x20 ADD PUSH1 0x40 MLOAD DUP1 SWAP2 SUB SWAP1 KECCAK256 PUSH0 DUP3 ADD MLOAD DUP2 PUSH0 ADD SWAP1 DUP2 PUSH2 0x4B1 SWAP2 SWAP1 PUSH2 0xB7D JUMP JUMPDEST POP PUSH1 0x20 DUP3 ADD MLOAD DUP2 PUSH1 0x1 ADD PUSH0 PUSH2 0x100 EXP DUP2 SLOAD DUP2 PUSH20 0xFFFFFFFFFFFFFFFFFFFFFFFFFFFFFFFFFFFFFFFF MUL NOT AND SWAP1 DUP4 PUSH20 0xFFFFFFFFFFFFFFFFFFFFFFFFFFFFFFFFFFFFFFFF AND MUL OR SWAP1 SSTORE POP SWAP1 POP POP POP POP POP JUMP JUMPDEST PUSH0 PUSH1 0x2 DUP3 PUSH1 0x40 MLOAD PUSH2 0x511 SWAP2 SWAP1 PUSH2 0x964 JUMP JUMPDEST SWAP1 DUP2 MSTORE PUSH1 0x20 ADD PUSH1 0x40 MLOAD DUP1 SWAP2 SUB SWAP1 KECCAK256 PUSH1 0x1 ADD PUSH0 SWAP1 SLOAD SWAP1 PUSH2 0x100 EXP SWAP1 DIV PUSH20 0xFFFFFFFFFFFFFFFFFFFFFFFFFFFFFFFFFFFFFFFF AND SWAP1 POP SWAP2 SWAP1 POP JUMP JUMPDEST PUSH0 DUP1 SLOAD SWAP1 PUSH2 0x100 EXP SWAP1 DIV PUSH20 0xFFFFFFFFFFFFFFFFFFFFFFFFFFFFFFFFFFFFFFFF AND DUP2 JUMP JUMPDEST PUSH1 0x1 PUSH0 SWAP1 SLOAD SWAP1 PUSH2 0x100 EXP SWAP1 DIV PUSH20 0xFFFFFFFFFFFFFFFFFFFFFFFFFFFFFFFFFFFFFFFF AND DUP2 JUMP JUMPDEST PUSH0 PUSH1 0x40 MLOAD SWAP1 POP SWAP1 JUMP JUMPDEST PUSH0 DUP1 REVERT JUMPDEST PUSH0 DUP1 REVERT JUMPDEST PUSH0 PUSH20 0xFFFFFFFFFFFFFFFFFFFFFFFFFFFFFFFFFFFFFFFF DUP3 AND SWAP1 POP SWAP2 SWAP1 POP JUMP JUMPDEST PUSH0 PUSH2 0x5CB DUP3 PUSH2 0x5A2 JUMP JUMPDEST SWAP1 POP SWAP2 SWAP1 POP JUMP JUMPDEST PUSH2 0x5DB DUP2 PUSH2 0x5C1 JUMP JUMPDEST DUP2 EQ PUSH2 0x5E5 JUMPI PUSH0 DUP1 REVERT JUMPDEST POP JUMP JUMPDEST PUSH0 DUP2 CALLDATALOAD SWAP1 POP PUSH2 0x5F6 DUP2 PUSH2 0x5D2 JUMP JUMPDEST SWAP3 SWAP2 POP POP JUMP JUMPDEST PUSH0 PUSH1 0x20 DUP3 DUP5 SUB SLT ISZERO PUSH2 0x611 JUMPI PUSH2 0x610 PUSH2 0x59A JUMP JUMPDEST JUMPDEST PUSH0 PUSH2 0x61E DUP5 DUP3 DUP6 ADD PUSH2 0x5E8 JUMP JUMPDEST SWAP2 POP POP SWAP3 SWAP2 POP POP JUMP JUMPDEST PUSH0 DUP1 REVERT JUMPDEST PUSH0 DUP1 REVERT JUMPDEST PUSH0 PUSH1 0x1F NOT PUSH1 0x1F DUP4 ADD AND SWAP1 POP SWAP2 SWAP1 POP JUMP JUMPDEST PUSH32 0x4E487B7100000000000000000000000000000000000000000000000000000000 PUSH0 MSTORE PUSH1 0x41 PUSH1 0x4 MSTORE PUSH1 0x24 PUSH0 REVERT JUMPDEST PUSH2 0x675 DUP3 PUSH2 0x62F JUMP JUMPDEST DUP2 ADD DUP2 DUP2 LT PUSH8 0xFFFFFFFFFFFFFFFF DUP3 GT OR ISZERO PUSH2 0x694 JUMPI PUSH2 0x693 PUSH2 0x63F JUMP JUMPDEST JUMPDEST DUP1 PUSH1 0x40 MSTORE POP POP POP JUMP JUMPDEST PUSH0 PUSH2 0x6A6 PUSH2 0x591 JUMP JUMPDEST SWAP1 POP PUSH2 0x6B2 DUP3 DUP3 PUSH2 0x66C JUMP JUMPDEST SWAP2 SWAP1 POP JUMP JUMPDEST PUSH0 PUSH8 0xFFFFFFFFFFFFFFFF DUP3 GT ISZERO PUSH2 0x6D1 JUMPI PUSH2 0x6D0 PUSH2 0x63F JUMP JUMPDEST JUMPDEST PUSH2 0x6DA DUP3 PUSH2 0x62F JUMP JUMPDEST SWAP1 POP PUSH1 0x20 DUP2 ADD SWAP1 POP SWAP2 SWAP1 POP JUMP JUMPDEST DUP3 DUP2 DUP4 CALLDATACOPY PUSH0 DUP4 DUP4 ADD MSTORE POP POP POP JUMP JUMPDEST PUSH0 PUSH2 0x707 PUSH2 0x702 DUP5 PUSH2 0x6B7 JUMP JUMPDEST PUSH2 0x69D JUMP JUMPDEST SWAP1 POP DUP3 DUP2 MSTORE PUSH1 0x20 DUP2 ADD DUP5 DUP5 DUP5 ADD GT ISZERO PUSH2 0x723 JUMPI PUSH2 0x722 PUSH2 0x62B JUMP JUMPDEST JUMPDEST PUSH2 0x72E DUP5 DUP3 DUP6 PUSH2 0x6E7 JUMP JUMPDEST POP SWAP4 SWAP3 POP POP POP JUMP JUMPDEST PUSH0 DUP3 PUSH1 0x1F DUP4 ADD SLT PUSH2 0x74A JUMPI PUSH2 0x749 PUSH2 0x627 JUMP JUMPDEST JUMPDEST DUP2 CALLDATALOAD PUSH2 0x75A DUP5 DUP3 PUSH1 0x20 DUP7 ADD PUSH2 0x6F5 JUMP JUMPDEST SWAP2 POP POP SWAP3 SWAP2 POP POP JUMP JUMPDEST PUSH0 DUP1 PUSH0 PUSH1 0x60 DUP5 DUP7 SUB SLT ISZERO PUSH2 0x77A JUMPI PUSH2 0x779 PUSH2 0x59A JUMP JUMPDEST JUMPDEST PUSH0 DUP5 ADD CALLDATALOAD PUSH8 0xFFFFFFFFFFFFFFFF DUP2 GT ISZERO PUSH2 0x797 JUMPI PUSH2 0x796 PUSH2 0x59E JUMP JUMPDEST JUMPDEST PUSH2 0x7A3 DUP7 DUP3 DUP8 ADD PUSH2 0x736 JUMP JUMPDEST SWAP4 POP POP PUSH1 0x20 DUP5 ADD CALLDATALOAD PUSH8 0xFFFFFFFFFFFFFFFF DUP2 GT ISZERO PUSH2 0x7C4 JUMPI PUSH2 0x7C3 PUSH2 0x59E JUMP JUMPDEST JUMPDEST PUSH2 0x7D0 DUP7 DUP3 DUP8 ADD PUSH2 0x736 JUMP JUMPDEST SWAP3 POP POP PUSH1 0x40 PUSH2 0x7E1 DUP7 DUP3 DUP8 ADD PUSH2 0x5E8 JUMP JUMPDEST SWAP2 POP POP SWAP3 POP SWAP3 POP SWAP3 JUMP JUMPDEST PUSH0 PUSH1 0x20 DUP3 DUP5 SUB SLT ISZERO PUSH2 0x800 JUMPI PUSH2 0x7FF PUSH2 0x59A JUMP JUMPDEST JUMPDEST PUSH0 DUP3 ADD CALLDATALOAD PUSH8 0xFFFFFFFFFFFFFFFF DUP2 GT ISZERO PUSH2 0x81D JUMPI PUSH2 0x81C PUSH2 0x59E JUMP JUMPDEST JUMPDEST PUSH2 0x829 DUP5 DUP3 DUP6 ADD PUSH2 0x736 JUMP JUMPDEST SWAP2 POP POP SWAP3 SWAP2 POP POP JUMP JUMPDEST PUSH2 0x83B DUP2 PUSH2 0x5C1 JUMP JUMPDEST DUP3 MSTORE POP POP JUMP JUMPDEST PUSH0 PUSH1 0x20 DUP3 ADD SWAP1 POP PUSH2 0x854 PUSH0 DUP4 ADD DUP5 PUSH2 0x832 JUMP JUMPDEST SWAP3 SWAP2 POP POP JUMP JUMPDEST PUSH0 DUP3 DUP3 MSTORE PUSH1 0x20 DUP3 ADD SWAP1 POP SWAP3 SWAP2 POP POP JUMP JUMPDEST PUSH32 0x4261736963417574683A206F6E6C79206F776E6572206F72206261636B206F77 PUSH0 DUP3 ADD MSTORE PUSH32 0x6E657220697320617574686F72697A65642E0000000000000000000000000000 PUSH1 0x20 DUP3 ADD MSTORE POP JUMP JUMPDEST PUSH0 PUSH2 0x8C4 PUSH1 0x32 DUP4 PUSH2 0x85A JUMP JUMPDEST SWAP2 POP PUSH2 0x8CF DUP3 PUSH2 0x86A JUMP JUMPDEST PUSH1 0x40 DUP3 ADD SWAP1 POP SWAP2 SWAP1 POP JUMP JUMPDEST PUSH0 PUSH1 0x20 DUP3 ADD SWAP1 POP DUP2 DUP2 SUB PUSH0 DUP4 ADD MSTORE PUSH2 0x8F1 DUP2 PUSH2 0x8B8 JUMP JUMPDEST SWAP1 POP SWAP2 SWAP1 POP JUMP JUMPDEST PUSH0 DUP2 MLOAD SWAP1 POP SWAP2 SWAP1 POP JUMP JUMPDEST PUSH0 DUP2 SWAP1 POP SWAP3 SWAP2 POP POP JUMP JUMPDEST PUSH0 JUMPDEST DUP4 DUP2 LT ISZERO PUSH2 0x929 JUMPI DUP1 DUP3 ADD MLOAD DUP2 DUP5 ADD MSTORE PUSH1 0x20 DUP2 ADD SWAP1 POP PUSH2 0x90E JUMP JUMPDEST PUSH0 DUP5 DUP5 ADD MSTORE POP POP POP POP JUMP JUMPDEST PUSH0 PUSH2 0x93E DUP3 PUSH2 0x8F8 JUMP JUMPDEST PUSH2 0x948 DUP2 DUP6 PUSH2 0x902 JUMP JUMPDEST SWAP4 POP PUSH2 0x958 DUP2 DUP6 PUSH1 0x20 DUP7 ADD PUSH2 0x90C JUMP JUMPDEST DUP1 DUP5 ADD SWAP2 POP POP SWAP3 SWAP2 POP POP JUMP JUMPDEST PUSH0 PUSH2 0x96F DUP3 DUP5 PUSH2 0x934 JUMP JUMPDEST SWAP2 POP DUP2 SWAP1 POP SWAP3 SWAP2 POP POP JUMP JUMPDEST PUSH32 0x4E487B7100000000000000000000000000000000000000000000000000000000 PUSH0 MSTORE PUSH1 0x22 PUSH1 0x4 MSTORE PUSH1 0x24 PUSH0 REVERT JUMPDEST PUSH0 PUSH1 0x2 DUP3 DIV SWAP1 POP PUSH1 0x1 DUP3 AND DUP1 PUSH2 0x9BE JUMPI PUSH1 0x7F DUP3 AND SWAP2 POP JUMPDEST PUSH1 0x20 DUP3 LT DUP2 SUB PUSH2 0x9D1 JUMPI PUSH2 0x9D0 PUSH2 0x97A JUMP JUMPDEST JUMPDEST POP SWAP2 SWAP1 POP JUMP JUMPDEST PUSH0 DUP2 SWAP1 POP DUP2 PUSH0 MSTORE PUSH1 0x20 PUSH0 KECCAK256 SWAP1 POP SWAP2 SWAP1 POP JUMP JUMPDEST PUSH0 PUSH1 0x20 PUSH1 0x1F DUP4 ADD DIV SWAP1 POP SWAP2 SWAP1 POP JUMP JUMPDEST PUSH0 DUP3 DUP3 SHL SWAP1 POP SWAP3 SWAP2 POP POP JUMP JUMPDEST PUSH0 PUSH1 0x8 DUP4 MUL PUSH2 0xA33 PUSH32 0xFFFFFFFFFFFFFFFFFFFFFFFFFFFFFFFFFFFFFFFFFFFFFFFFFFFFFFFFFFFFFFFF DUP3 PUSH2 0x9F8 JUMP JUMPDEST PUSH2 0xA3D DUP7 DUP4 PUSH2 0x9F8 JUMP JUMPDEST SWAP6 POP DUP1 NOT DUP5 AND SWAP4 POP DUP1 DUP7 AND DUP5 OR SWAP3 POP POP POP SWAP4 SWAP3 POP POP POP JUMP JUMPDEST PUSH0 DUP2 SWAP1 POP SWAP2 SWAP1 POP JUMP JUMPDEST PUSH0 DUP2 SWAP1 POP SWAP2 SWAP1 POP JUMP JUMPDEST PUSH0 PUSH2 0xA81 PUSH2 0xA7C PUSH2 0xA77 DUP5 PUSH2 0xA55 JUMP JUMPDEST PUSH2 0xA5E JUMP JUMPDEST PUSH2 0xA55 JUMP JUMPDEST SWAP1 POP SWAP2 SWAP1 POP JUMP JUMPDEST PUSH0 DUP2 SWAP1 POP SWAP2 SWAP1 POP JUMP JUMPDEST PUSH2 0xA9A DUP4 PUSH2 0xA67 JUMP JUMPDEST PUSH2 0xAAE PUSH2 0xAA6 DUP3 PUSH2 0xA88 JUMP JUMPDEST DUP5 DUP5 SLOAD PUSH2 0xA04 JUMP JUMPDEST DUP3 SSTORE POP POP POP POP JUMP JUMPDEST PUSH0 SWAP1 JUMP JUMPDEST PUSH2 0xAC2 PUSH2 0xAB6 JUMP JUMPDEST PUSH2 0xACD DUP2 DUP5 DUP5 PUSH2 0xA91 JUMP JUMPDEST POP POP POP JUMP JUMPDEST JUMPDEST DUP2 DUP2 LT ISZERO PUSH2 0xAF0 JUMPI PUSH2 0xAE5 PUSH0 DUP3 PUSH2 0xABA JUMP JUMPDEST PUSH1 0x1 DUP2 ADD SWAP1 POP PUSH2 0xAD3 JUMP JUMPDEST POP POP JUMP JUMPDEST PUSH1 0x1F DUP3 GT ISZERO PUSH2 0xB35 JUMPI PUSH2 0xB06 DUP2 PUSH2 0x9D7 JUMP JUMPDEST PUSH2 0xB0F DUP5 PUSH2 0x9E9 JUMP JUMPDEST DUP2 ADD PUSH1 0x20 DUP6 LT ISZERO PUSH2 0xB1E JUMPI DUP2 SWAP1 POP JUMPDEST PUSH2 0xB32 PUSH2 0xB2A DUP6 PUSH2 0x9E9 JUMP JUMPDEST DUP4 ADD DUP3 PUSH2 0xAD2 JUMP JUMPDEST POP POP JUMPDEST POP POP POP JUMP JUMPDEST PUSH0 DUP3 DUP3 SHR SWAP1 POP SWAP3 SWAP2 POP POP JUMP JUMPDEST PUSH0 PUSH2 0xB55 PUSH0 NOT DUP5 PUSH1 0x8 MUL PUSH2 0xB3A JUMP JUMPDEST NOT DUP1 DUP4 AND SWAP2 POP POP SWAP3 SWAP2 POP POP JUMP JUMPDEST PUSH0 PUSH2 0xB6D DUP4 DUP4 PUSH2 0xB46 JUMP JUMPDEST SWAP2 POP DUP3 PUSH1 0x2 MUL DUP3 OR SWAP1 POP SWAP3 SWAP2 POP POP JUMP JUMPDEST PUSH2 0xB86 DUP3 PUSH2 0x8F8 JUMP JUMPDEST PUSH8 0xFFFFFFFFFFFFFFFF DUP2 GT ISZERO PUSH2 0xB9F JUMPI PUSH2 0xB9E PUSH2 0x63F JUMP JUMPDEST JUMPDEST PUSH2 0xBA9 DUP3 SLOAD PUSH2 0x9A7 JUMP JUMPDEST PUSH2 0xBB4 DUP3 DUP3 DUP6 PUSH2 0xAF4 JUMP JUMPDEST PUSH0 PUSH1 0x20 SWAP1 POP PUSH1 0x1F DUP4 GT PUSH1 0x1 DUP2 EQ PUSH2 0xBE5 JUMPI PUSH0 DUP5 ISZERO PUSH2 0xBD3 JUMPI DUP3 DUP8 ADD MLOAD SWAP1 POP JUMPDEST PUSH2 0xBDD DUP6 DUP3 PUSH2 0xB62 JUMP JUMPDEST DUP7 SSTORE POP PUSH2 0xC44 JUMP JUMPDEST PUSH1 0x1F NOT DUP5 AND PUSH2 0xBF3 DUP7 PUSH2 0x9D7 JUMP JUMPDEST PUSH0 JUMPDEST DUP3 DUP2 LT ISZERO PUSH2 0xC1A JUMPI DUP5 DUP10 ADD MLOAD DUP3 SSTORE PUSH1 0x1 DUP3 ADD SWAP2 POP PUSH1 0x20 DUP6 ADD SWAP5 POP PUSH1 0x20 DUP2 ADD SWAP1 POP PUSH2 0xBF5 JUMP JUMPDEST DUP7 DUP4 LT ISZERO PUSH2 0xC37 JUMPI DUP5 DUP10 ADD MLOAD PUSH2 0xC33 PUSH1 0x1F DUP10 AND DUP3 PUSH2 0xB46 JUMP JUMPDEST DUP4 SSTORE POP JUMPDEST PUSH1 0x1 PUSH1 0x2 DUP9 MUL ADD DUP9 SSTORE POP POP POP JUMPDEST POP POP POP POP POP POP JUMP INVALID LOG2 PUSH5 0x6970667358 0x22 SLT KECCAK256 0x23 EQ CODECOPY 0xC2 0xD5 RETURNDATASIZE ORIGIN 0xAB PUSH16 0x7A2C8A56A5464457B82CCFEB4365164E 0xE3 XOR SWAP4 0x21 0xAE SWAP9 SWAP14 PUSH5 0x736F6C6343 STOP ADDMOD AND STOP CALLER "
				},
				"gasEstimates": {
					"creation": {
						"codeDepositCost": "640400",
						"executionCost": "infinite",
						"totalCost": "infinite"
					},
					"external": {
						"_bakOwner()": "2596",
						"_owner()": "2571",
						"getData(string)": "infinite",
						"setBakOwner(address)": "29055",
						"setData(string,string,address)": "infinite",
						"setOwner(address)": "29033"
					}
				},
				"methodIdentifiers": {
					"_bakOwner()": "be835066",
					"_owner()": "b2bdfa7b",
					"getData(string)": "ae55c888",
					"setBakOwner(address)": "84339c7c",
					"setData(string,string,address)": "89c35961",
					"setOwner(address)": "13af4035"
				}
			},
			"storageLayout": {
				"storage": [
					{
						"astId": 62,
						"contract": "baoxian/data/basedata/Company.sol:Company",
						"label": "_owner",
						"offset": 0,
						"slot": "0",
						"type": "t_address"
					},
					{
						"astId": 64,
						"contract": "baoxian/data/basedata/Company.sol:Company",
						"label": "_bakOwner",
						"offset": 0,
						"slot": "1",
						"type": "t_address"
					},
					{
						"astId": 23,
						"contract": "baoxian/data/basedata/Company.sol:Company",
						"label": "companyDataS",
						"offset": 0,
						"slot": "2",
						"type": "t_mapping(t_string_memory_ptr,t_struct(CompanyData)18_storage)"
					}
				],
				"types": {
					"t_address": {
						"encoding": "inplace",
						"label": "address",
						"numberOfBytes": "20"
					},
					"t_mapping(t_string_memory_ptr,t_struct(CompanyData)18_storage)": {
						"encoding": "mapping",
						"key": "t_string_memory_ptr",
						"label": "mapping(string => struct Company.CompanyData)",
						"numberOfBytes": "32",
						"value": "t_struct(CompanyData)18_storage"
					},
					"t_string_memory_ptr": {
						"encoding": "bytes",
						"label": "string",
						"numberOfBytes": "32"
					},
					"t_string_storage": {
						"encoding": "bytes",
						"label": "string",
						"numberOfBytes": "32"
					},
					"t_struct(CompanyData)18_storage": {
						"encoding": "inplace",
						"label": "struct Company.CompanyData",
						"members": [
							{
								"astId": 15,
								"contract": "baoxian/data/basedata/Company.sol:Company",
								"label": "companyName",
								"offset": 0,
								"slot": "0",
								"type": "t_string_storage"
							},
							{
								"astId": 17,
								"contract": "baoxian/data/basedata/Company.sol:Company",
								"label": "payAddress",
								"offset": 0,
								"slot": "1",
								"type": "t_address"
							}
						],
						"numberOfBytes": "64"
					}
				}
			},
			"userdoc": {
				"kind": "user",
				"methods": {},
				"version": 1
			}
		}
	}
}