{
	"data": {
		"bytecode": {
			"linkReferences": {},
			"object": "608060405234801562000010575f80fd5b5060405162001bd238038062001bd28339818101604052810190620000369190620000e1565b805f806101000a81548173ffffffffffffffffffffffffffffffffffffffff021916908373ffffffffffffffffffffffffffffffffffffffff1602179055505062000111565b5f80fd5b5f73ffffffffffffffffffffffffffffffffffffffff82169050919050565b5f620000ab8262000080565b9050919050565b620000bd816200009f565b8114620000c8575f80fd5b50565b5f81519050620000db81620000b2565b92915050565b5f60208284031215620000f957620000f86200007c565b5b5f6200010884828501620000cb565b91505092915050565b611ab3806200011f5f395ff3fe608060405234801561000f575f80fd5b506004361061004a575f3560e01c806316cec1861461004e5780631e1e205b1461007e57806387c5d5cc1461009a578063f0d96389146100ca575b5f80fd5b61006860048036038101906100639190610c2c565b6100e6565b6040516100759190610ee0565b60405180910390f35b61009860048036038101906100939190610f2a565b610499565b005b6100b460048036038101906100af9190610f96565b610671565b6040516100c1919061101b565b60405180910390f35b6100e460048036038101906100df91906110f8565b6106e2565b005b6100ee6109ef565b6001836040516100fe91906112ba565b90815260200160405180910390206001015f8381526020019081526020015f20604051806101600160405290815f82018054610139906112fd565b80601f0160208091040260200160405190810160405280929190818152602001828054610165906112fd565b80156101b05780601f10610187576101008083540402835291602001916101b0565b820191905f5260205f20905b81548152906001019060200180831161019357829003601f168201915b505050505081526020016001820180546101c9906112fd565b80601f01602080910402602001604051908101604052809291908181526020018280546101f5906112fd565b80156102405780601f1061021757610100808354040283529160200191610240565b820191905f5260205f20905b81548152906001019060200180831161022357829003601f168201915b50505050508152602001600282018054610259906112fd565b80601f0160208091040260200160405190810160405280929190818152602001828054610285906112fd565b80156102d05780601f106102a7576101008083540402835291602001916102d0565b820191905f5260205f20905b8154815290600101906020018083116102b357829003601f168201915b505050505081526020016003820180546102e9906112fd565b80601f0160208091040260200160405190810160405280929190818152602001828054610315906112fd565b80156103605780601f1061033757610100808354040283529160200191610360565b820191905f5260205f20905b81548152906001019060200180831161034357829003601f168201915b50505050508152602001600482018054610379906112fd565b80601f01602080910402602001604051908101604052809291908181526020018280546103a5906112fd565b80156103f05780601f106103c7576101008083540402835291602001916103f0565b820191905f5260205f20905b8154815290600101906020018083116103d357829003601f168201915b50505050508152602001600582015481526020016006820154815260200160078201548152602001600882015f9054906101000a900460ff161515151581526020016009820180548060200260200160405190810160405280929190818152602001828054801561047e57602002820191905f5260205f20905b81548152602001906001019080831161046a575b50505050508152602001600a82015481525050905092915050565b5f805f9054906101000a900473ffffffffffffffffffffffffffffffffffffffff1673ffffffffffffffffffffffffffffffffffffffff1663832880e76040518163ffffffff1660e01b81526004015f60405180830381865afa158015610502573d5f803e3d5ffd5b505050506040513d5f823e3d601f19601f8201168201806040525081019061052a91906115b2565b610100015190505f805f9054906101000a900473ffffffffffffffffffffffffffffffffffffffff1673ffffffffffffffffffffffffffffffffffffffff16632aaa0c106040518163ffffffff1660e01b81526004015f60405180830381865afa15801561059a573d5f803e3d5ffd5b505050506040513d5f823e3d601f19601f820116820180604052508101906105c291906116f2565b6040015190506105d28186610671565b80156105e1575060048260ff16145b610620576040517f08c379a000000000000000000000000000000000000000000000000000000000815260040161061790611793565b60405180910390fd5b8260018660405161063191906112ba565b90815260200160405180910390206001015f8681526020019081526020015f206008015f6101000a81548160ff0219169083151502179055505050505050565b5f81518351036106d8578160405160200161068c91906112ba565b60405160208183030381529060405280519060200120836040516020016106b391906112ba565b60405160208183030381529060405280519060200120036106d757600190506106dc565b5b5f90505b92915050565b5f805f9054906101000a900473ffffffffffffffffffffffffffffffffffffffff1673ffffffffffffffffffffffffffffffffffffffff1663832880e76040518163ffffffff1660e01b81526004015f60405180830381865afa15801561074b573d5f803e3d5ffd5b505050506040513d5f823e3d601f19601f8201168201806040525081019061077391906115b2565b610100015190505f805f9054906101000a900473ffffffffffffffffffffffffffffffffffffffff1673ffffffffffffffffffffffffffffffffffffffff16632aaa0c106040518163ffffffff1660e01b81526004015f60405180830381865afa1580156107e3573d5f803e3d5ffd5b505050506040513d5f823e3d601f19601f8201168201806040525081019061080b91906116f2565b60400151905061081b818c610671565b801561082a575060038260ff16145b610869576040517f08c379a000000000000000000000000000000000000000000000000000000000815260040161086090611793565b60405180910390fd5b5f60018c60405161087a91906112ba565b908152602001604051809103902090505f6001825f015f82825461089e91906117de565b92505081905590506040518061016001604052808d81526020018c81526020018b81526020018a815260200189815260200188815260200160468152602001601e815260200160011515815260200187815260200186815250826001015f8381526020019081526020015f205f820151815f01908161091d91906119ae565b50602082015181600101908161093391906119ae565b50604082015181600201908161094991906119ae565b50606082015181600301908161095f91906119ae565b50608082015181600401908161097591906119ae565b5060a0820151816005015560c0820151816006015560e08201518160070155610100820151816008015f6101000a81548160ff0219169083151502179055506101208201518160090190805190602001906109d1929190610a46565b5061014082015181600a015590505050505050505050505050505050565b60405180610160016040528060608152602001606081526020016060815260200160608152602001606081526020015f81526020015f81526020015f81526020015f15158152602001606081526020015f81525090565b828054828255905f5260205f20908101928215610a80579160200282015b82811115610a7f578251825591602001919060010190610a64565b5b509050610a8d9190610a91565b5090565b5b80821115610aa8575f815f905550600101610a92565b5090565b5f604051905090565b5f80fd5b5f80fd5b5f80fd5b5f80fd5b5f601f19601f8301169050919050565b7f4e487b71000000000000000000000000000000000000000000000000000000005f52604160045260245ffd5b610b0b82610ac5565b810181811067ffffffffffffffff82111715610b2a57610b29610ad5565b5b80604052505050565b5f610b3c610aac565b9050610b488282610b02565b919050565b5f67ffffffffffffffff821115610b6757610b66610ad5565b5b610b7082610ac5565b9050602081019050919050565b828183375f83830152505050565b5f610b9d610b9884610b4d565b610b33565b905082815260208101848484011115610bb957610bb8610ac1565b5b610bc4848285610b7d565b509392505050565b5f82601f830112610be057610bdf610abd565b5b8135610bf0848260208601610b8b565b91505092915050565b5f819050919050565b610c0b81610bf9565b8114610c15575f80fd5b50565b5f81359050610c2681610c02565b92915050565b5f8060408385031215610c4257610c41610ab5565b5b5f83013567ffffffffffffffff811115610c5f57610c5e610ab9565b5b610c6b85828601610bcc565b9250506020610c7c85828601610c18565b9150509250929050565b5f81519050919050565b5f82825260208201905092915050565b5f5b83811015610cbd578082015181840152602081019050610ca2565b5f8484015250505050565b5f610cd282610c86565b610cdc8185610c90565b9350610cec818560208601610ca0565b610cf581610ac5565b840191505092915050565b610d0981610bf9565b82525050565b5f8115159050919050565b610d2381610d0f565b82525050565b5f81519050919050565b5f82825260208201905092915050565b5f819050602082019050919050565b5f610d5d8383610d00565b60208301905092915050565b5f602082019050919050565b5f610d7f82610d29565b610d898185610d33565b9350610d9483610d43565b805f5b83811015610dc4578151610dab8882610d52565b9750610db683610d69565b925050600181019050610d97565b5085935050505092915050565b5f61016083015f8301518482035f860152610dec8282610cc8565b91505060208301518482036020860152610e068282610cc8565b91505060408301518482036040860152610e208282610cc8565b91505060608301518482036060860152610e3a8282610cc8565b91505060808301518482036080860152610e548282610cc8565b91505060a0830151610e6960a0860182610d00565b5060c0830151610e7c60c0860182610d00565b5060e0830151610e8f60e0860182610d00565b50610100830151610ea4610100860182610d1a565b50610120830151848203610120860152610ebe8282610d75565b915050610140830151610ed5610140860182610d00565b508091505092915050565b5f6020820190508181035f830152610ef88184610dd1565b905092915050565b610f0981610d0f565b8114610f13575f80fd5b50565b5f81359050610f2481610f00565b92915050565b5f805f60608486031215610f4157610f40610ab5565b5b5f84013567ffffffffffffffff811115610f5e57610f5d610ab9565b5b610f6a86828701610bcc565b9350506020610f7b86828701610c18565b9250506040610f8c86828701610f16565b9150509250925092565b5f8060408385031215610fac57610fab610ab5565b5b5f83013567ffffffffffffffff811115610fc957610fc8610ab9565b5b610fd585828601610bcc565b925050602083013567ffffffffffffffff811115610ff657610ff5610ab9565b5b61100285828601610bcc565b9150509250929050565b61101581610d0f565b82525050565b5f60208201905061102e5f83018461100c565b92915050565b5f67ffffffffffffffff82111561104e5761104d610ad5565b5b602082029050602081019050919050565b5f80fd5b5f61107561107084611034565b610b33565b905080838252602082019050602084028301858111156110985761109761105f565b5b835b818110156110c157806110ad8882610c18565b84526020840193505060208101905061109a565b5050509392505050565b5f82601f8301126110df576110de610abd565b5b81356110ef848260208601611063565b91505092915050565b5f805f805f805f805f6101208a8c03121561111657611115610ab5565b5b5f8a013567ffffffffffffffff81111561113357611132610ab9565b5b61113f8c828d01610bcc565b99505060208a013567ffffffffffffffff8111156111605761115f610ab9565b5b61116c8c828d01610bcc565b98505060408a013567ffffffffffffffff81111561118d5761118c610ab9565b5b6111998c828d01610bcc565b97505060608a013567ffffffffffffffff8111156111ba576111b9610ab9565b5b6111c68c828d01610bcc565b96505060808a013567ffffffffffffffff8111156111e7576111e6610ab9565b5b6111f38c828d01610bcc565b95505060a08a013567ffffffffffffffff81111561121457611213610ab9565b5b6112208c828d01610bcc565b94505060c06112318c828d01610c18565b93505060e08a013567ffffffffffffffff81111561125257611251610ab9565b5b61125e8c828d016110cb565b9250506101006112708c828d01610c18565b9150509295985092959850929598565b5f81905092915050565b5f61129482610c86565b61129e8185611280565b93506112ae818560208601610ca0565b80840191505092915050565b5f6112c5828461128a565b915081905092915050565b7f4e487b71000000000000000000000000000000000000000000000000000000005f52602260045260245ffd5b5f600282049050600182168061131457607f821691505b602082108103611327576113266112d0565b5b50919050565b5f80fd5b5f80fd5b5f8151905061134381610c02565b92915050565b5f61135b61135684610b4d565b610b33565b90508281526020810184848401111561137757611376610ac1565b5b611382848285610ca0565b509392505050565b5f82601f83011261139e5761139d610abd565b5b81516113ae848260208601611349565b91505092915050565b5f60ff82169050919050565b6113cc816113b7565b81146113d6575f80fd5b50565b5f815190506113e7816113c3565b92915050565b5f815190506113fb81610f00565b92915050565b5f61016082840312156114175761141661132d565b5b611422610160610b33565b90505f61143184828501611335565b5f83015250602082015167ffffffffffffffff81111561145457611453611331565b5b6114608482850161138a565b602083015250604082015167ffffffffffffffff81111561148457611483611331565b5b6114908482850161138a565b60408301525060606114a484828501611335565b606083015250608082015167ffffffffffffffff8111156114c8576114c7611331565b5b6114d48482850161138a565b60808301525060a082015167ffffffffffffffff8111156114f8576114f7611331565b5b6115048482850161138a565b60a08301525060c082015167ffffffffffffffff81111561152857611527611331565b5b6115348482850161138a565b60c08301525060e082015167ffffffffffffffff81111561155857611557611331565b5b6115648482850161138a565b60e083015250610100611579848285016113d9565b6101008301525061012061158f848285016113ed565b610120830152506101406115a5848285016113ed565b6101408301525092915050565b5f602082840312156115c7576115c6610ab5565b5b5f82015167ffffffffffffffff8111156115e4576115e3610ab9565b5b6115f084828501611401565b91505092915050565b5f60a0828403121561160e5761160d61132d565b5b61161860a0610b33565b90505f82015167ffffffffffffffff81111561163757611636611331565b5b6116438482850161138a565b5f83015250602082015167ffffffffffffffff81111561166657611665611331565b5b6116728482850161138a565b602083015250604082015167ffffffffffffffff81111561169657611695611331565b5b6116a28482850161138a565b604083015250606082015167ffffffffffffffff8111156116c6576116c5611331565b5b6116d28482850161138a565b60608301525060806116e6848285016113ed565b60808301525092915050565b5f6020828403121561170757611706610ab5565b5b5f82015167ffffffffffffffff81111561172457611723610ab9565b5b611730848285016115f9565b91505092915050565b5f82825260208201905092915050565b7f6f6e6c79207065726d697373696f6e2063616e20646f207468697300000000005f82015250565b5f61177d601b83611739565b915061178882611749565b602082019050919050565b5f6020820190508181035f8301526117aa81611771565b9050919050565b7f4e487b71000000000000000000000000000000000000000000000000000000005f52601160045260245ffd5b5f6117e882610bf9565b91506117f383610bf9565b925082820190508082111561180b5761180a6117b1565b5b92915050565b5f819050815f5260205f209050919050565b5f6020601f8301049050919050565b5f82821b905092915050565b5f6008830261186d7fffffffffffffffffffffffffffffffffffffffffffffffffffffffffffffffff82611832565b6118778683611832565b95508019841693508086168417925050509392505050565b5f819050919050565b5f6118b26118ad6118a884610bf9565b61188f565b610bf9565b9050919050565b5f819050919050565b6118cb83611898565b6118df6118d7826118b9565b84845461183e565b825550505050565b5f90565b6118f36118e7565b6118fe8184846118c2565b505050565b5b81811015611921576119165f826118eb565b600181019050611904565b5050565b601f8211156119665761193781611811565b61194084611823565b8101602085101561194f578190505b61196361195b85611823565b830182611903565b50505b505050565b5f82821c905092915050565b5f6119865f198460080261196b565b1980831691505092915050565b5f61199e8383611977565b9150826002028217905092915050565b6119b782610c86565b67ffffffffffffffff8111156119d0576119cf610ad5565b5b6119da82546112fd565b6119e5828285611925565b5f60209050601f831160018114611a16575f8415611a04578287015190505b611a0e8582611993565b865550611a75565b601f198416611a2486611811565b5f5b82811015611a4b57848901518255600182019150602085019450602081019050611a26565b86831015611a685784890151611a64601f891682611977565b8355505b6001600288020188555050505b50505050505056fea2646970667358221220d3730646aa61b65796eb3f9e55a29de2127274a8cb3160d98aa6bd4408e5175264736f6c63430008160033",
			"opcodes": "PUSH1 0x80 PUSH1 0x40 MSTORE CALLVALUE DUP1 ISZERO PUSH3 0x10 JUMPI PUSH0 DUP1 REVERT JUMPDEST POP PUSH1 0x40 MLOAD PUSH3 0x1BD2 CODESIZE SUB DUP1 PUSH3 0x1BD2 DUP4 CODECOPY DUP2 DUP2 ADD PUSH1 0x40 MSTORE DUP2 ADD SWAP1 PUSH3 0x36 SWAP2 SWAP1 PUSH3 0xE1 JUMP JUMPDEST DUP1 PUSH0 DUP1 PUSH2 0x100 EXP DUP2 SLOAD DUP2 PUSH20 0xFFFFFFFFFFFFFFFFFFFFFFFFFFFFFFFFFFFFFFFF MUL NOT AND SWAP1 DUP4 PUSH20 0xFFFFFFFFFFFFFFFFFFFFFFFFFFFFFFFFFFFFFFFF AND MUL OR SWAP1 SSTORE POP POP PUSH3 0x111 JUMP JUMPDEST PUSH0 DUP1 REVERT JUMPDEST PUSH0 PUSH20 0xFFFFFFFFFFFFFFFFFFFFFFFFFFFFFFFFFFFFFFFF DUP3 AND SWAP1 POP SWAP2 SWAP1 POP JUMP JUMPDEST PUSH0 PUSH3 0xAB DUP3 PUSH3 0x80 JUMP JUMPDEST SWAP1 POP SWAP2 SWAP1 POP JUMP JUMPDEST PUSH3 0xBD DUP2 PUSH3 0x9F JUMP JUMPDEST DUP2 EQ PUSH3 0xC8 JUMPI PUSH0 DUP1 REVERT JUMPDEST POP JUMP JUMPDEST PUSH0 DUP2 MLOAD SWAP1 POP PUSH3 0xDB DUP2 PUSH3 0xB2 JUMP JUMPDEST SWAP3 SWAP2 POP POP JUMP JUMPDEST PUSH0 PUSH1 0x20 DUP3 DUP5 SUB SLT ISZERO PUSH3 0xF9 JUMPI PUSH3 0xF8 PUSH3 0x7C JUMP JUMPDEST JUMPDEST PUSH0 PUSH3 0x108 DUP5 DUP3 DUP6 ADD PUSH3 0xCB JUMP JUMPDEST SWAP2 POP POP SWAP3 SWAP2 POP POP JUMP JUMPDEST PUSH2 0x1AB3 DUP1 PUSH3 0x11F PUSH0 CODECOPY PUSH0 RETURN INVALID PUSH1 0x80 PUSH1 0x40 MSTORE CALLVALUE DUP1 ISZERO PUSH2 0xF JUMPI PUSH0 DUP1 REVERT JUMPDEST POP PUSH1 0x4 CALLDATASIZE LT PUSH2 0x4A JUMPI PUSH0 CALLDATALOAD PUSH1 0xE0 SHR DUP1 PUSH4 0x16CEC186 EQ PUSH2 0x4E JUMPI DUP1 PUSH4 0x1E1E205B EQ PUSH2 0x7E JUMPI DUP1 PUSH4 0x87C5D5CC EQ PUSH2 0x9A JUMPI DUP1 PUSH4 0xF0D96389 EQ PUSH2 0xCA JUMPI JUMPDEST PUSH0 DUP1 REVERT JUMPDEST PUSH2 0x68 PUSH1 0x4 DUP1 CALLDATASIZE SUB DUP2 ADD SWAP1 PUSH2 0x63 SWAP2 SWAP1 PUSH2 0xC2C JUMP JUMPDEST PUSH2 0xE6 JUMP JUMPDEST PUSH1 0x40 MLOAD PUSH2 0x75 SWAP2 SWAP1 PUSH2 0xEE0 JUMP JUMPDEST PUSH1 0x40 MLOAD DUP1 SWAP2 SUB SWAP1 RETURN JUMPDEST PUSH2 0x98 PUSH1 0x4 DUP1 CALLDATASIZE SUB DUP2 ADD SWAP1 PUSH2 0x93 SWAP2 SWAP1 PUSH2 0xF2A JUMP JUMPDEST PUSH2 0x499 JUMP JUMPDEST STOP JUMPDEST PUSH2 0xB4 PUSH1 0x4 DUP1 CALLDATASIZE SUB DUP2 ADD SWAP1 PUSH2 0xAF SWAP2 SWAP1 PUSH2 0xF96 JUMP JUMPDEST PUSH2 0x671 JUMP JUMPDEST PUSH1 0x40 MLOAD PUSH2 0xC1 SWAP2 SWAP1 PUSH2 0x101B JUMP JUMPDEST PUSH1 0x40 MLOAD DUP1 SWAP2 SUB SWAP1 RETURN JUMPDEST PUSH2 0xE4 PUSH1 0x4 DUP1 CALLDATASIZE SUB DUP2 ADD SWAP1 PUSH2 0xDF SWAP2 SWAP1 PUSH2 0x10F8 JUMP JUMPDEST PUSH2 0x6E2 JUMP JUMPDEST STOP JUMPDEST PUSH2 0xEE PUSH2 0x9EF JUMP JUMPDEST PUSH1 0x1 DUP4 PUSH1 0x40 MLOAD PUSH2 0xFE SWAP2 SWAP1 PUSH2 0x12BA JUMP JUMPDEST SWAP1 DUP2 MSTORE PUSH1 0x20 ADD PUSH1 0x40 MLOAD DUP1 SWAP2 SUB SWAP1 KECCAK256 PUSH1 0x1 ADD PUSH0 DUP4 DUP2 MSTORE PUSH1 0x20 ADD SWAP1 DUP2 MSTORE PUSH1 0x20 ADD PUSH0 KECCAK256 PUSH1 0x40 MLOAD DUP1 PUSH2 0x160 ADD PUSH1 0x40 MSTORE SWAP1 DUP2 PUSH0 DUP3 ADD DUP1 SLOAD PUSH2 0x139 SWAP1 PUSH2 0x12FD JUMP JUMPDEST DUP1 PUSH1 0x1F ADD PUSH1 0x20 DUP1 SWAP2 DIV MUL PUSH1 0x20 ADD PUSH1 0x40 MLOAD SWAP1 DUP2 ADD PUSH1 0x40 MSTORE DUP1 SWAP3 SWAP2 SWAP1 DUP2 DUP2 MSTORE PUSH1 0x20 ADD DUP3 DUP1 SLOAD PUSH2 0x165 SWAP1 PUSH2 0x12FD JUMP JUMPDEST DUP1 ISZERO PUSH2 0x1B0 JUMPI DUP1 PUSH1 0x1F LT PUSH2 0x187 JUMPI PUSH2 0x100 DUP1 DUP4 SLOAD DIV MUL DUP4 MSTORE SWAP2 PUSH1 0x20 ADD SWAP2 PUSH2 0x1B0 JUMP JUMPDEST DUP3 ADD SWAP2 SWAP1 PUSH0 MSTORE PUSH1 0x20 PUSH0 KECCAK256 SWAP1 JUMPDEST DUP2 SLOAD DUP2 MSTORE SWAP1 PUSH1 0x1 ADD SWAP1 PUSH1 0x20 ADD DUP1 DUP4 GT PUSH2 0x193 JUMPI DUP3 SWAP1 SUB PUSH1 0x1F AND DUP3 ADD SWAP2 JUMPDEST POP POP POP POP POP DUP2 MSTORE PUSH1 0x20 ADD PUSH1 0x1 DUP3 ADD DUP1 SLOAD PUSH2 0x1C9 SWAP1 PUSH2 0x12FD JUMP JUMPDEST DUP1 PUSH1 0x1F ADD PUSH1 0x20 DUP1 SWAP2 DIV MUL PUSH1 0x20 ADD PUSH1 0x40 MLOAD SWAP1 DUP2 ADD PUSH1 0x40 MSTORE DUP1 SWAP3 SWAP2 SWAP1 DUP2 DUP2 MSTORE PUSH1 0x20 ADD DUP3 DUP1 SLOAD PUSH2 0x1F5 SWAP1 PUSH2 0x12FD JUMP JUMPDEST DUP1 ISZERO PUSH2 0x240 JUMPI DUP1 PUSH1 0x1F LT PUSH2 0x217 JUMPI PUSH2 0x100 DUP1 DUP4 SLOAD DIV MUL DUP4 MSTORE SWAP2 PUSH1 0x20 ADD SWAP2 PUSH2 0x240 JUMP JUMPDEST DUP3 ADD SWAP2 SWAP1 PUSH0 MSTORE PUSH1 0x20 PUSH0 KECCAK256 SWAP1 JUMPDEST DUP2 SLOAD DUP2 MSTORE SWAP1 PUSH1 0x1 ADD SWAP1 PUSH1 0x20 ADD DUP1 DUP4 GT PUSH2 0x223 JUMPI DUP3 SWAP1 SUB PUSH1 0x1F AND DUP3 ADD SWAP2 JUMPDEST POP POP POP POP POP DUP2 MSTORE PUSH1 0x20 ADD PUSH1 0x2 DUP3 ADD DUP1 SLOAD PUSH2 0x259 SWAP1 PUSH2 0x12FD JUMP JUMPDEST DUP1 PUSH1 0x1F ADD PUSH1 0x20 DUP1 SWAP2 DIV MUL PUSH1 0x20 ADD PUSH1 0x40 MLOAD SWAP1 DUP2 ADD PUSH1 0x40 MSTORE DUP1 SWAP3 SWAP2 SWAP1 DUP2 DUP2 MSTORE PUSH1 0x20 ADD DUP3 DUP1 SLOAD PUSH2 0x285 SWAP1 PUSH2 0x12FD JUMP JUMPDEST DUP1 ISZERO PUSH2 0x2D0 JUMPI DUP1 PUSH1 0x1F LT PUSH2 0x2A7 JUMPI PUSH2 0x100 DUP1 DUP4 SLOAD DIV MUL DUP4 MSTORE SWAP2 PUSH1 0x20 ADD SWAP2 PUSH2 0x2D0 JUMP JUMPDEST DUP3 ADD SWAP2 SWAP1 PUSH0 MSTORE PUSH1 0x20 PUSH0 KECCAK256 SWAP1 JUMPDEST DUP2 SLOAD DUP2 MSTORE SWAP1 PUSH1 0x1 ADD SWAP1 PUSH1 0x20 ADD DUP1 DUP4 GT PUSH2 0x2B3 JUMPI DUP3 SWAP1 SUB PUSH1 0x1F AND DUP3 ADD SWAP2 JUMPDEST POP POP POP POP POP DUP2 MSTORE PUSH1 0x20 ADD PUSH1 0x3 DUP3 ADD DUP1 SLOAD PUSH2 0x2E9 SWAP1 PUSH2 0x12FD JUMP JUMPDEST DUP1 PUSH1 0x1F ADD PUSH1 0x20 DUP1 SWAP2 DIV MUL PUSH1 0x20 ADD PUSH1 0x40 MLOAD SWAP1 DUP2 ADD PUSH1 0x40 MSTORE DUP1 SWAP3 SWAP2 SWAP1 DUP2 DUP2 MSTORE PUSH1 0x20 ADD DUP3 DUP1 SLOAD PUSH2 0x315 SWAP1 PUSH2 0x12FD JUMP JUMPDEST DUP1 ISZERO PUSH2 0x360 JUMPI DUP1 PUSH1 0x1F LT PUSH2 0x337 JUMPI PUSH2 0x100 DUP1 DUP4 SLOAD DIV MUL DUP4 MSTORE SWAP2 PUSH1 0x20 ADD SWAP2 PUSH2 0x360 JUMP JUMPDEST DUP3 ADD SWAP2 SWAP1 PUSH0 MSTORE PUSH1 0x20 PUSH0 KECCAK256 SWAP1 JUMPDEST DUP2 SLOAD DUP2 MSTORE SWAP1 PUSH1 0x1 ADD SWAP1 PUSH1 0x20 ADD DUP1 DUP4 GT PUSH2 0x343 JUMPI DUP3 SWAP1 SUB PUSH1 0x1F AND DUP3 ADD SWAP2 JUMPDEST POP POP POP POP POP DUP2 MSTORE PUSH1 0x20 ADD PUSH1 0x4 DUP3 ADD DUP1 SLOAD PUSH2 0x379 SWAP1 PUSH2 0x12FD JUMP JUMPDEST DUP1 PUSH1 0x1F ADD PUSH1 0x20 DUP1 SWAP2 DIV MUL PUSH1 0x20 ADD PUSH1 0x40 MLOAD SWAP1 DUP2 ADD PUSH1 0x40 MSTORE DUP1 SWAP3 SWAP2 SWAP1 DUP2 DUP2 MSTORE PUSH1 0x20 ADD DUP3 DUP1 SLOAD PUSH2 0x3A5 SWAP1 PUSH2 0x12FD JUMP JUMPDEST DUP1 ISZERO PUSH2 0x3F0 JUMPI DUP1 PUSH1 0x1F LT PUSH2 0x3C7 JUMPI PUSH2 0x100 DUP1 DUP4 SLOAD DIV MUL DUP4 MSTORE SWAP2 PUSH1 0x20 ADD SWAP2 PUSH2 0x3F0 JUMP JUMPDEST DUP3 ADD SWAP2 SWAP1 PUSH0 MSTORE PUSH1 0x20 PUSH0 KECCAK256 SWAP1 JUMPDEST DUP2 SLOAD DUP2 MSTORE SWAP1 PUSH1 0x1 ADD SWAP1 PUSH1 0x20 ADD DUP1 DUP4 GT PUSH2 0x3D3 JUMPI DUP3 SWAP1 SUB PUSH1 0x1F AND DUP3 ADD SWAP2 JUMPDEST POP POP POP POP POP DUP2 MSTORE PUSH1 0x20 ADD PUSH1 0x5 DUP3 ADD SLOAD DUP2 MSTORE PUSH1 0x20 ADD PUSH1 0x6 DUP3 ADD SLOAD DUP2 MSTORE PUSH1 0x20 ADD PUSH1 0x7 DUP3 ADD SLOAD DUP2 MSTORE PUSH1 0x20 ADD PUSH1 0x8 DUP3 ADD PUSH0 SWAP1 SLOAD SWAP1 PUSH2 0x100 EXP SWAP1 DIV PUSH1 0xFF AND ISZERO ISZERO ISZERO ISZERO DUP2 MSTORE PUSH1 0x20 ADD PUSH1 0x9 DUP3 ADD DUP1 SLOAD DUP1 PUSH1 0x20 MUL PUSH1 0x20 ADD PUSH1 0x40 MLOAD SWAP1 DUP2 ADD PUSH1 0x40 MSTORE DUP1 SWAP3 SWAP2 SWAP1 DUP2 DUP2 MSTORE PUSH1 0x20 ADD DUP3 DUP1 SLOAD DUP1 ISZERO PUSH2 0x47E JUMPI PUSH1 0x20 MUL DUP3 ADD SWAP2 SWAP1 PUSH0 MSTORE PUSH1 0x20 PUSH0 KECCAK256 SWAP1 JUMPDEST DUP2 SLOAD DUP2 MSTORE PUSH1 0x20 ADD SWAP1 PUSH1 0x1 ADD SWAP1 DUP1 DUP4 GT PUSH2 0x46A JUMPI JUMPDEST POP POP POP POP POP DUP2 MSTORE PUSH1 0x20 ADD PUSH1 0xA DUP3 ADD SLOAD DUP2 MSTORE POP POP SWAP1 POP SWAP3 SWAP2 POP POP JUMP JUMPDEST PUSH0 DUP1 PUSH0 SWAP1 SLOAD SWAP1 PUSH2 0x100 EXP SWAP1 DIV PUSH20 0xFFFFFFFFFFFFFFFFFFFFFFFFFFFFFFFFFFFFFFFF AND PUSH20 0xFFFFFFFFFFFFFFFFFFFFFFFFFFFFFFFFFFFFFFFF AND PUSH4 0x832880E7 PUSH1 0x40 MLOAD DUP2 PUSH4 0xFFFFFFFF AND PUSH1 0xE0 SHL DUP2 MSTORE PUSH1 0x4 ADD PUSH0 PUSH1 0x40 MLOAD DUP1 DUP4 SUB DUP2 DUP7 GAS STATICCALL ISZERO DUP1 ISZERO PUSH2 0x502 JUMPI RETURNDATASIZE PUSH0 DUP1 RETURNDATACOPY RETURNDATASIZE PUSH0 REVERT JUMPDEST POP POP POP POP PUSH1 0x40 MLOAD RETURNDATASIZE PUSH0 DUP3 RETURNDATACOPY RETURNDATASIZE PUSH1 0x1F NOT PUSH1 0x1F DUP3 ADD AND DUP3 ADD DUP1 PUSH1 0x40 MSTORE POP DUP2 ADD SWAP1 PUSH2 0x52A SWAP2 SWAP1 PUSH2 0x15B2 JUMP JUMPDEST PUSH2 0x100 ADD MLOAD SWAP1 POP PUSH0 DUP1 PUSH0 SWAP1 SLOAD SWAP1 PUSH2 0x100 EXP SWAP1 DIV PUSH20 0xFFFFFFFFFFFFFFFFFFFFFFFFFFFFFFFFFFFFFFFF AND PUSH20 0xFFFFFFFFFFFFFFFFFFFFFFFFFFFFFFFFFFFFFFFF AND PUSH4 0x2AAA0C10 PUSH1 0x40 MLOAD DUP2 PUSH4 0xFFFFFFFF AND PUSH1 0xE0 SHL DUP2 MSTORE PUSH1 0x4 ADD PUSH0 PUSH1 0x40 MLOAD DUP1 DUP4 SUB DUP2 DUP7 GAS STATICCALL ISZERO DUP1 ISZERO PUSH2 0x59A JUMPI RETURNDATASIZE PUSH0 DUP1 RETURNDATACOPY RETURNDATASIZE PUSH0 REVERT JUMPDEST POP POP POP POP PUSH1 0x40 MLOAD RETURNDATASIZE PUSH0 DUP3 RETURNDATACOPY RETURNDATASIZE PUSH1 0x1F NOT PUSH1 0x1F DUP3 ADD AND DUP3 ADD DUP1 PUSH1 0x40 MSTORE POP DUP2 ADD SWAP1 PUSH2 0x5C2 SWAP2 SWAP1 PUSH2 0x16F2 JUMP JUMPDEST PUSH1 0x40 ADD MLOAD SWAP1 POP PUSH2 0x5D2 DUP2 DUP7 PUSH2 0x671 JUMP JUMPDEST DUP1 ISZERO PUSH2 0x5E1 JUMPI POP PUSH1 0x4 DUP3 PUSH1 0xFF AND EQ JUMPDEST PUSH2 0x620 JUMPI PUSH1 0x40 MLOAD PUSH32 0x8C379A000000000000000000000000000000000000000000000000000000000 DUP2 MSTORE PUSH1 0x4 ADD PUSH2 0x617 SWAP1 PUSH2 0x1793 JUMP JUMPDEST PUSH1 0x40 MLOAD DUP1 SWAP2 SUB SWAP1 REVERT JUMPDEST DUP3 PUSH1 0x1 DUP7 PUSH1 0x40 MLOAD PUSH2 0x631 SWAP2 SWAP1 PUSH2 0x12BA JUMP JUMPDEST SWAP1 DUP2 MSTORE PUSH1 0x20 ADD PUSH1 0x40 MLOAD DUP1 SWAP2 SUB SWAP1 KECCAK256 PUSH1 0x1 ADD PUSH0 DUP7 DUP2 MSTORE PUSH1 0x20 ADD SWAP1 DUP2 MSTORE PUSH1 0x20 ADD PUSH0 KECCAK256 PUSH1 0x8 ADD PUSH0 PUSH2 0x100 EXP DUP2 SLOAD DUP2 PUSH1 0xFF MUL NOT AND SWAP1 DUP4 ISZERO ISZERO MUL OR SWAP1 SSTORE POP POP POP POP POP POP JUMP JUMPDEST PUSH0 DUP2 MLOAD DUP4 MLOAD SUB PUSH2 0x6D8 JUMPI DUP2 PUSH1 0x40 MLOAD PUSH1 0x20 ADD PUSH2 0x68C SWAP2 SWAP1 PUSH2 0x12BA JUMP JUMPDEST PUSH1 0x40 MLOAD PUSH1 0x20 DUP2 DUP4 SUB SUB DUP2 MSTORE SWAP1 PUSH1 0x40 MSTORE DUP1 MLOAD SWAP1 PUSH1 0x20 ADD KECCAK256 DUP4 PUSH1 0x40 MLOAD PUSH1 0x20 ADD PUSH2 0x6B3 SWAP2 SWAP1 PUSH2 0x12BA JUMP JUMPDEST PUSH1 0x40 MLOAD PUSH1 0x20 DUP2 DUP4 SUB SUB DUP2 MSTORE SWAP1 PUSH1 0x40 MSTORE DUP1 MLOAD SWAP1 PUSH1 0x20 ADD KECCAK256 SUB PUSH2 0x6D7 JUMPI PUSH1 0x1 SWAP1 POP PUSH2 0x6DC JUMP JUMPDEST JUMPDEST PUSH0 SWAP1 POP JUMPDEST SWAP3 SWAP2 POP POP JUMP JUMPDEST PUSH0 DUP1 PUSH0 SWAP1 SLOAD SWAP1 PUSH2 0x100 EXP SWAP1 DIV PUSH20 0xFFFFFFFFFFFFFFFFFFFFFFFFFFFFFFFFFFFFFFFF AND PUSH20 0xFFFFFFFFFFFFFFFFFFFFFFFFFFFFFFFFFFFFFFFF AND PUSH4 0x832880E7 PUSH1 0x40 MLOAD DUP2 PUSH4 0xFFFFFFFF AND PUSH1 0xE0 SHL DUP2 MSTORE PUSH1 0x4 ADD PUSH0 PUSH1 0x40 MLOAD DUP1 DUP4 SUB DUP2 DUP7 GAS STATICCALL ISZERO DUP1 ISZERO PUSH2 0x74B JUMPI RETURNDATASIZE PUSH0 DUP1 RETURNDATACOPY RETURNDATASIZE PUSH0 REVERT JUMPDEST POP POP POP POP PUSH1 0x40 MLOAD RETURNDATASIZE PUSH0 DUP3 RETURNDATACOPY RETURNDATASIZE PUSH1 0x1F NOT PUSH1 0x1F DUP3 ADD AND DUP3 ADD DUP1 PUSH1 0x40 MSTORE POP DUP2 ADD SWAP1 PUSH2 0x773 SWAP2 SWAP1 PUSH2 0x15B2 JUMP JUMPDEST PUSH2 0x100 ADD MLOAD SWAP1 POP PUSH0 DUP1 PUSH0 SWAP1 SLOAD SWAP1 PUSH2 0x100 EXP SWAP1 DIV PUSH20 0xFFFFFFFFFFFFFFFFFFFFFFFFFFFFFFFFFFFFFFFF AND PUSH20 0xFFFFFFFFFFFFFFFFFFFFFFFFFFFFFFFFFFFFFFFF AND PUSH4 0x2AAA0C10 PUSH1 0x40 MLOAD DUP2 PUSH4 0xFFFFFFFF AND PUSH1 0xE0 SHL DUP2 MSTORE PUSH1 0x4 ADD PUSH0 PUSH1 0x40 MLOAD DUP1 DUP4 SUB DUP2 DUP7 GAS STATICCALL ISZERO DUP1 ISZERO PUSH2 0x7E3 JUMPI RETURNDATASIZE PUSH0 DUP1 RETURNDATACOPY RETURNDATASIZE PUSH0 REVERT JUMPDEST POP POP POP POP PUSH1 0x40 MLOAD RETURNDATASIZE PUSH0 DUP3 RETURNDATACOPY RETURNDATASIZE PUSH1 0x1F NOT PUSH1 0x1F DUP3 ADD AND DUP3 ADD DUP1 PUSH1 0x40 MSTORE POP DUP2 ADD SWAP1 PUSH2 0x80B SWAP2 SWAP1 PUSH2 0x16F2 JUMP JUMPDEST PUSH1 0x40 ADD MLOAD SWAP1 POP PUSH2 0x81B DUP2 DUP13 PUSH2 0x671 JUMP JUMPDEST DUP1 ISZERO PUSH2 0x82A JUMPI POP PUSH1 0x3 DUP3 PUSH1 0xFF AND EQ JUMPDEST PUSH2 0x869 JUMPI PUSH1 0x40 MLOAD PUSH32 0x8C379A000000000000000000000000000000000000000000000000000000000 DUP2 MSTORE PUSH1 0x4 ADD PUSH2 0x860 SWAP1 PUSH2 0x1793 JUMP JUMPDEST PUSH1 0x40 MLOAD DUP1 SWAP2 SUB SWAP1 REVERT JUMPDEST PUSH0 PUSH1 0x1 DUP13 PUSH1 0x40 MLOAD PUSH2 0x87A SWAP2 SWAP1 PUSH2 0x12BA JUMP JUMPDEST SWAP1 DUP2 MSTORE PUSH1 0x20 ADD PUSH1 0x40 MLOAD DUP1 SWAP2 SUB SWAP1 KECCAK256 SWAP1 POP PUSH0 PUSH1 0x1 DUP3 PUSH0 ADD PUSH0 DUP3 DUP3 SLOAD PUSH2 0x89E SWAP2 SWAP1 PUSH2 0x17DE JUMP JUMPDEST SWAP3 POP POP DUP2 SWAP1 SSTORE SWAP1 POP PUSH1 0x40 MLOAD DUP1 PUSH2 0x160 ADD PUSH1 0x40 MSTORE DUP1 DUP14 DUP2 MSTORE PUSH1 0x20 ADD DUP13 DUP2 MSTORE PUSH1 0x20 ADD DUP12 DUP2 MSTORE PUSH1 0x20 ADD DUP11 DUP2 MSTORE PUSH1 0x20 ADD DUP10 DUP2 MSTORE PUSH1 0x20 ADD DUP9 DUP2 MSTORE PUSH1 0x20 ADD PUSH1 0x46 DUP2 MSTORE PUSH1 0x20 ADD PUSH1 0x1E DUP2 MSTORE PUSH1 0x20 ADD PUSH1 0x1 ISZERO ISZERO DUP2 MSTORE PUSH1 0x20 ADD DUP8 DUP2 MSTORE PUSH1 0x20 ADD DUP7 DUP2 MSTORE POP DUP3 PUSH1 0x1 ADD PUSH0 DUP4 DUP2 MSTORE PUSH1 0x20 ADD SWAP1 DUP2 MSTORE PUSH1 0x20 ADD PUSH0 KECCAK256 PUSH0 DUP3 ADD MLOAD DUP2 PUSH0 ADD SWAP1 DUP2 PUSH2 0x91D SWAP2 SWAP1 PUSH2 0x19AE JUMP JUMPDEST POP PUSH1 0x20 DUP3 ADD MLOAD DUP2 PUSH1 0x1 ADD SWAP1 DUP2 PUSH2 0x933 SWAP2 SWAP1 PUSH2 0x19AE JUMP JUMPDEST POP PUSH1 0x40 DUP3 ADD MLOAD DUP2 PUSH1 0x2 ADD SWAP1 DUP2 PUSH2 0x949 SWAP2 SWAP1 PUSH2 0x19AE JUMP JUMPDEST POP PUSH1 0x60 DUP3 ADD MLOAD DUP2 PUSH1 0x3 ADD SWAP1 DUP2 PUSH2 0x95F SWAP2 SWAP1 PUSH2 0x19AE JUMP JUMPDEST POP PUSH1 0x80 DUP3 ADD MLOAD DUP2 PUSH1 0x4 ADD SWAP1 DUP2 PUSH2 0x975 SWAP2 SWAP1 PUSH2 0x19AE JUMP JUMPDEST POP PUSH1 0xA0 DUP3 ADD MLOAD DUP2 PUSH1 0x5 ADD SSTORE PUSH1 0xC0 DUP3 ADD MLOAD DUP2 PUSH1 0x6 ADD SSTORE PUSH1 0xE0 DUP3 ADD MLOAD DUP2 PUSH1 0x7 ADD SSTORE PUSH2 0x100 DUP3 ADD MLOAD DUP2 PUSH1 0x8 ADD PUSH0 PUSH2 0x100 EXP DUP2 SLOAD DUP2 PUSH1 0xFF MUL NOT AND SWAP1 DUP4 ISZERO ISZERO MUL OR SWAP1 SSTORE POP PUSH2 0x120 DUP3 ADD MLOAD DUP2 PUSH1 0x9 ADD SWAP1 DUP1 MLOAD SWAP1 PUSH1 0x20 ADD SWAP1 PUSH2 0x9D1 SWAP3 SWAP2 SWAP1 PUSH2 0xA46 JUMP JUMPDEST POP PUSH2 0x140 DUP3 ADD MLOAD DUP2 PUSH1 0xA ADD SSTORE SWAP1 POP POP POP POP POP POP POP POP POP POP POP POP POP POP POP JUMP JUMPDEST PUSH1 0x40 MLOAD DUP1 PUSH2 0x160 ADD PUSH1 0x40 MSTORE DUP1 PUSH1 0x60 DUP2 MSTORE PUSH1 0x20 ADD PUSH1 0x60 DUP2 MSTORE PUSH1 0x20 ADD PUSH1 0x60 DUP2 MSTORE PUSH1 0x20 ADD PUSH1 0x60 DUP2 MSTORE PUSH1 0x20 ADD PUSH1 0x60 DUP2 MSTORE PUSH1 0x20 ADD PUSH0 DUP2 MSTORE PUSH1 0x20 ADD PUSH0 DUP2 MSTORE PUSH1 0x20 ADD PUSH0 DUP2 MSTORE PUSH1 0x20 ADD PUSH0 ISZERO ISZERO DUP2 MSTORE PUSH1 0x20 ADD PUSH1 0x60 DUP2 MSTORE PUSH1 0x20 ADD PUSH0 DUP2 MSTORE POP SWAP1 JUMP JUMPDEST DUP3 DUP1 SLOAD DUP3 DUP3 SSTORE SWAP1 PUSH0 MSTORE PUSH1 0x20 PUSH0 KECCAK256 SWAP1 DUP2 ADD SWAP3 DUP3 ISZERO PUSH2 0xA80 JUMPI SWAP2 PUSH1 0x20 MUL DUP3 ADD JUMPDEST DUP3 DUP2 GT ISZERO PUSH2 0xA7F JUMPI DUP3 MLOAD DUP3 SSTORE SWAP2 PUSH1 0x20 ADD SWAP2 SWAP1 PUSH1 0x1 ADD SWAP1 PUSH2 0xA64 JUMP JUMPDEST JUMPDEST POP SWAP1 POP PUSH2 0xA8D SWAP2 SWAP1 PUSH2 0xA91 JUMP JUMPDEST POP SWAP1 JUMP JUMPDEST JUMPDEST DUP1 DUP3 GT ISZERO PUSH2 0xAA8 JUMPI PUSH0 DUP2 PUSH0 SWAP1 SSTORE POP PUSH1 0x1 ADD PUSH2 0xA92 JUMP JUMPDEST POP SWAP1 JUMP JUMPDEST PUSH0 PUSH1 0x40 MLOAD SWAP1 POP SWAP1 JUMP JUMPDEST PUSH0 DUP1 REVERT JUMPDEST PUSH0 DUP1 REVERT JUMPDEST PUSH0 DUP1 REVERT JUMPDEST PUSH0 DUP1 REVERT JUMPDEST PUSH0 PUSH1 0x1F NOT PUSH1 0x1F DUP4 ADD AND SWAP1 POP SWAP2 SWAP1 POP JUMP JUMPDEST PUSH32 0x4E487B7100000000000000000000000000000000000000000000000000000000 PUSH0 MSTORE PUSH1 0x41 PUSH1 0x4 MSTORE PUSH1 0x24 PUSH0 REVERT JUMPDEST PUSH2 0xB0B DUP3 PUSH2 0xAC5 JUMP JUMPDEST DUP2 ADD DUP2 DUP2 LT PUSH8 0xFFFFFFFFFFFFFFFF DUP3 GT OR ISZERO PUSH2 0xB2A JUMPI PUSH2 0xB29 PUSH2 0xAD5 JUMP JUMPDEST JUMPDEST DUP1 PUSH1 0x40 MSTORE POP POP POP JUMP JUMPDEST PUSH0 PUSH2 0xB3C PUSH2 0xAAC JUMP JUMPDEST SWAP1 POP PUSH2 0xB48 DUP3 DUP3 PUSH2 0xB02 JUMP JUMPDEST SWAP2 SWAP1 POP JUMP JUMPDEST PUSH0 PUSH8 0xFFFFFFFFFFFFFFFF DUP3 GT ISZERO PUSH2 0xB67 JUMPI PUSH2 0xB66 PUSH2 0xAD5 JUMP JUMPDEST JUMPDEST PUSH2 0xB70 DUP3 PUSH2 0xAC5 JUMP JUMPDEST SWAP1 POP PUSH1 0x20 DUP2 ADD SWAP1 POP SWAP2 SWAP1 POP JUMP JUMPDEST DUP3 DUP2 DUP4 CALLDATACOPY PUSH0 DUP4 DUP4 ADD MSTORE POP POP POP JUMP JUMPDEST PUSH0 PUSH2 0xB9D PUSH2 0xB98 DUP5 PUSH2 0xB4D JUMP JUMPDEST PUSH2 0xB33 JUMP JUMPDEST SWAP1 POP DUP3 DUP2 MSTORE PUSH1 0x20 DUP2 ADD DUP5 DUP5 DUP5 ADD GT ISZERO PUSH2 0xBB9 JUMPI PUSH2 0xBB8 PUSH2 0xAC1 JUMP JUMPDEST JUMPDEST PUSH2 0xBC4 DUP5 DUP3 DUP6 PUSH2 0xB7D JUMP JUMPDEST POP SWAP4 SWAP3 POP POP POP JUMP JUMPDEST PUSH0 DUP3 PUSH1 0x1F DUP4 ADD SLT PUSH2 0xBE0 JUMPI PUSH2 0xBDF PUSH2 0xABD JUMP JUMPDEST JUMPDEST DUP2 CALLDATALOAD PUSH2 0xBF0 DUP5 DUP3 PUSH1 0x20 DUP7 ADD PUSH2 0xB8B JUMP JUMPDEST SWAP2 POP POP SWAP3 SWAP2 POP POP JUMP JUMPDEST PUSH0 DUP2 SWAP1 POP SWAP2 SWAP1 POP JUMP JUMPDEST PUSH2 0xC0B DUP2 PUSH2 0xBF9 JUMP JUMPDEST DUP2 EQ PUSH2 0xC15 JUMPI PUSH0 DUP1 REVERT JUMPDEST POP JUMP JUMPDEST PUSH0 DUP2 CALLDATALOAD SWAP1 POP PUSH2 0xC26 DUP2 PUSH2 0xC02 JUMP JUMPDEST SWAP3 SWAP2 POP POP JUMP JUMPDEST PUSH0 DUP1 PUSH1 0x40 DUP4 DUP6 SUB SLT ISZERO PUSH2 0xC42 JUMPI PUSH2 0xC41 PUSH2 0xAB5 JUMP JUMPDEST JUMPDEST PUSH0 DUP4 ADD CALLDATALOAD PUSH8 0xFFFFFFFFFFFFFFFF DUP2 GT ISZERO PUSH2 0xC5F JUMPI PUSH2 0xC5E PUSH2 0xAB9 JUMP JUMPDEST JUMPDEST PUSH2 0xC6B DUP6 DUP3 DUP7 ADD PUSH2 0xBCC JUMP JUMPDEST SWAP3 POP POP PUSH1 0x20 PUSH2 0xC7C DUP6 DUP3 DUP7 ADD PUSH2 0xC18 JUMP JUMPDEST SWAP2 POP POP SWAP3 POP SWAP3 SWAP1 POP JUMP JUMPDEST PUSH0 DUP2 MLOAD SWAP1 POP SWAP2 SWAP1 POP JUMP JUMPDEST PUSH0 DUP3 DUP3 MSTORE PUSH1 0x20 DUP3 ADD SWAP1 POP SWAP3 SWAP2 POP POP JUMP JUMPDEST PUSH0 JUMPDEST DUP4 DUP2 LT ISZERO PUSH2 0xCBD JUMPI DUP1 DUP3 ADD MLOAD DUP2 DUP5 ADD MSTORE PUSH1 0x20 DUP2 ADD SWAP1 POP PUSH2 0xCA2 JUMP JUMPDEST PUSH0 DUP5 DUP5 ADD MSTORE POP POP POP POP JUMP JUMPDEST PUSH0 PUSH2 0xCD2 DUP3 PUSH2 0xC86 JUMP JUMPDEST PUSH2 0xCDC DUP2 DUP6 PUSH2 0xC90 JUMP JUMPDEST SWAP4 POP PUSH2 0xCEC DUP2 DUP6 PUSH1 0x20 DUP7 ADD PUSH2 0xCA0 JUMP JUMPDEST PUSH2 0xCF5 DUP2 PUSH2 0xAC5 JUMP JUMPDEST DUP5 ADD SWAP2 POP POP SWAP3 SWAP2 POP POP JUMP JUMPDEST PUSH2 0xD09 DUP2 PUSH2 0xBF9 JUMP JUMPDEST DUP3 MSTORE POP POP JUMP JUMPDEST PUSH0 DUP2 ISZERO ISZERO SWAP1 POP SWAP2 SWAP1 POP JUMP JUMPDEST PUSH2 0xD23 DUP2 PUSH2 0xD0F JUMP JUMPDEST DUP3 MSTORE POP POP JUMP JUMPDEST PUSH0 DUP2 MLOAD SWAP1 POP SWAP2 SWAP1 POP JUMP JUMPDEST PUSH0 DUP3 DUP3 MSTORE PUSH1 0x20 DUP3 ADD SWAP1 POP SWAP3 SWAP2 POP POP JUMP JUMPDEST PUSH0 DUP2 SWAP1 POP PUSH1 0x20 DUP3 ADD SWAP1 POP SWAP2 SWAP1 POP JUMP JUMPDEST PUSH0 PUSH2 0xD5D DUP4 DUP4 PUSH2 0xD00 JUMP JUMPDEST PUSH1 0x20 DUP4 ADD SWAP1 POP SWAP3 SWAP2 POP POP JUMP JUMPDEST PUSH0 PUSH1 0x20 DUP3 ADD SWAP1 POP SWAP2 SWAP1 POP JUMP JUMPDEST PUSH0 PUSH2 0xD7F DUP3 PUSH2 0xD29 JUMP JUMPDEST PUSH2 0xD89 DUP2 DUP6 PUSH2 0xD33 JUMP JUMPDEST SWAP4 POP PUSH2 0xD94 DUP4 PUSH2 0xD43 JUMP JUMPDEST DUP1 PUSH0 JUMPDEST DUP4 DUP2 LT ISZERO PUSH2 0xDC4 JUMPI DUP2 MLOAD PUSH2 0xDAB DUP9 DUP3 PUSH2 0xD52 JUMP JUMPDEST SWAP8 POP PUSH2 0xDB6 DUP4 PUSH2 0xD69 JUMP JUMPDEST SWAP3 POP POP PUSH1 0x1 DUP2 ADD SWAP1 POP PUSH2 0xD97 JUMP JUMPDEST POP DUP6 SWAP4 POP POP POP POP SWAP3 SWAP2 POP POP JUMP JUMPDEST PUSH0 PUSH2 0x160 DUP4 ADD PUSH0 DUP4 ADD MLOAD DUP5 DUP3 SUB PUSH0 DUP7 ADD MSTORE PUSH2 0xDEC DUP3 DUP3 PUSH2 0xCC8 JUMP JUMPDEST SWAP2 POP POP PUSH1 0x20 DUP4 ADD MLOAD DUP5 DUP3 SUB PUSH1 0x20 DUP7 ADD MSTORE PUSH2 0xE06 DUP3 DUP3 PUSH2 0xCC8 JUMP JUMPDEST SWAP2 POP POP PUSH1 0x40 DUP4 ADD MLOAD DUP5 DUP3 SUB PUSH1 0x40 DUP7 ADD MSTORE PUSH2 0xE20 DUP3 DUP3 PUSH2 0xCC8 JUMP JUMPDEST SWAP2 POP POP PUSH1 0x60 DUP4 ADD MLOAD DUP5 DUP3 SUB PUSH1 0x60 DUP7 ADD MSTORE PUSH2 0xE3A DUP3 DUP3 PUSH2 0xCC8 JUMP JUMPDEST SWAP2 POP POP PUSH1 0x80 DUP4 ADD MLOAD DUP5 DUP3 SUB PUSH1 0x80 DUP7 ADD MSTORE PUSH2 0xE54 DUP3 DUP3 PUSH2 0xCC8 JUMP JUMPDEST SWAP2 POP POP PUSH1 0xA0 DUP4 ADD MLOAD PUSH2 0xE69 PUSH1 0xA0 DUP7 ADD DUP3 PUSH2 0xD00 JUMP JUMPDEST POP PUSH1 0xC0 DUP4 ADD MLOAD PUSH2 0xE7C PUSH1 0xC0 DUP7 ADD DUP3 PUSH2 0xD00 JUMP JUMPDEST POP PUSH1 0xE0 DUP4 ADD MLOAD PUSH2 0xE8F PUSH1 0xE0 DUP7 ADD DUP3 PUSH2 0xD00 JUMP JUMPDEST POP PUSH2 0x100 DUP4 ADD MLOAD PUSH2 0xEA4 PUSH2 0x100 DUP7 ADD DUP3 PUSH2 0xD1A JUMP JUMPDEST POP PUSH2 0x120 DUP4 ADD MLOAD DUP5 DUP3 SUB PUSH2 0x120 DUP7 ADD MSTORE PUSH2 0xEBE DUP3 DUP3 PUSH2 0xD75 JUMP JUMPDEST SWAP2 POP POP PUSH2 0x140 DUP4 ADD MLOAD PUSH2 0xED5 PUSH2 0x140 DUP7 ADD DUP3 PUSH2 0xD00 JUMP JUMPDEST POP DUP1 SWAP2 POP POP SWAP3 SWAP2 POP POP JUMP JUMPDEST PUSH0 PUSH1 0x20 DUP3 ADD SWAP1 POP DUP2 DUP2 SUB PUSH0 DUP4 ADD MSTORE PUSH2 0xEF8 DUP2 DUP5 PUSH2 0xDD1 JUMP JUMPDEST SWAP1 POP SWAP3 SWAP2 POP POP JUMP JUMPDEST PUSH2 0xF09 DUP2 PUSH2 0xD0F JUMP JUMPDEST DUP2 EQ PUSH2 0xF13 JUMPI PUSH0 DUP1 REVERT JUMPDEST POP JUMP JUMPDEST PUSH0 DUP2 CALLDATALOAD SWAP1 POP PUSH2 0xF24 DUP2 PUSH2 0xF00 JUMP JUMPDEST SWAP3 SWAP2 POP POP JUMP JUMPDEST PUSH0 DUP1 PUSH0 PUSH1 0x60 DUP5 DUP7 SUB SLT ISZERO PUSH2 0xF41 JUMPI PUSH2 0xF40 PUSH2 0xAB5 JUMP JUMPDEST JUMPDEST PUSH0 DUP5 ADD CALLDATALOAD PUSH8 0xFFFFFFFFFFFFFFFF DUP2 GT ISZERO PUSH2 0xF5E JUMPI PUSH2 0xF5D PUSH2 0xAB9 JUMP JUMPDEST JUMPDEST PUSH2 0xF6A DUP7 DUP3 DUP8 ADD PUSH2 0xBCC JUMP JUMPDEST SWAP4 POP POP PUSH1 0x20 PUSH2 0xF7B DUP7 DUP3 DUP8 ADD PUSH2 0xC18 JUMP JUMPDEST SWAP3 POP POP PUSH1 0x40 PUSH2 0xF8C DUP7 DUP3 DUP8 ADD PUSH2 0xF16 JUMP JUMPDEST SWAP2 POP POP SWAP3 POP SWAP3 POP SWAP3 JUMP JUMPDEST PUSH0 DUP1 PUSH1 0x40 DUP4 DUP6 SUB SLT ISZERO PUSH2 0xFAC JUMPI PUSH2 0xFAB PUSH2 0xAB5 JUMP JUMPDEST JUMPDEST PUSH0 DUP4 ADD CALLDATALOAD PUSH8 0xFFFFFFFFFFFFFFFF DUP2 GT ISZERO PUSH2 0xFC9 JUMPI PUSH2 0xFC8 PUSH2 0xAB9 JUMP JUMPDEST JUMPDEST PUSH2 0xFD5 DUP6 DUP3 DUP7 ADD PUSH2 0xBCC JUMP JUMPDEST SWAP3 POP POP PUSH1 0x20 DUP4 ADD CALLDATALOAD PUSH8 0xFFFFFFFFFFFFFFFF DUP2 GT ISZERO PUSH2 0xFF6 JUMPI PUSH2 0xFF5 PUSH2 0xAB9 JUMP JUMPDEST JUMPDEST PUSH2 0x1002 DUP6 DUP3 DUP7 ADD PUSH2 0xBCC JUMP JUMPDEST SWAP2 POP POP SWAP3 POP SWAP3 SWAP1 POP JUMP JUMPDEST PUSH2 0x1015 DUP2 PUSH2 0xD0F JUMP JUMPDEST DUP3 MSTORE POP POP JUMP JUMPDEST PUSH0 PUSH1 0x20 DUP3 ADD SWAP1 POP PUSH2 0x102E PUSH0 DUP4 ADD DUP5 PUSH2 0x100C JUMP JUMPDEST SWAP3 SWAP2 POP POP JUMP JUMPDEST PUSH0 PUSH8 0xFFFFFFFFFFFFFFFF DUP3 GT ISZERO PUSH2 0x104E JUMPI PUSH2 0x104D PUSH2 0xAD5 JUMP JUMPDEST JUMPDEST PUSH1 0x20 DUP3 MUL SWAP1 POP PUSH1 0x20 DUP2 ADD SWAP1 POP SWAP2 SWAP1 POP JUMP JUMPDEST PUSH0 DUP1 REVERT JUMPDEST PUSH0 PUSH2 0x1075 PUSH2 0x1070 DUP5 PUSH2 0x1034 JUMP JUMPDEST PUSH2 0xB33 JUMP JUMPDEST SWAP1 POP DUP1 DUP4 DUP3 MSTORE PUSH1 0x20 DUP3 ADD SWAP1 POP PUSH1 0x20 DUP5 MUL DUP4 ADD DUP6 DUP2 GT ISZERO PUSH2 0x1098 JUMPI PUSH2 0x1097 PUSH2 0x105F JUMP JUMPDEST JUMPDEST DUP4 JUMPDEST DUP2 DUP2 LT ISZERO PUSH2 0x10C1 JUMPI DUP1 PUSH2 0x10AD DUP9 DUP3 PUSH2 0xC18 JUMP JUMPDEST DUP5 MSTORE PUSH1 0x20 DUP5 ADD SWAP4 POP POP PUSH1 0x20 DUP2 ADD SWAP1 POP PUSH2 0x109A JUMP JUMPDEST POP POP POP SWAP4 SWAP3 POP POP POP JUMP JUMPDEST PUSH0 DUP3 PUSH1 0x1F DUP4 ADD SLT PUSH2 0x10DF JUMPI PUSH2 0x10DE PUSH2 0xABD JUMP JUMPDEST JUMPDEST DUP2 CALLDATALOAD PUSH2 0x10EF DUP5 DUP3 PUSH1 0x20 DUP7 ADD PUSH2 0x1063 JUMP JUMPDEST SWAP2 POP POP SWAP3 SWAP2 POP POP JUMP JUMPDEST PUSH0 DUP1 PUSH0 DUP1 PUSH0 DUP1 PUSH0 DUP1 PUSH0 PUSH2 0x120 DUP11 DUP13 SUB SLT ISZERO PUSH2 0x1116 JUMPI PUSH2 0x1115 PUSH2 0xAB5 JUMP JUMPDEST JUMPDEST PUSH0 DUP11 ADD CALLDATALOAD PUSH8 0xFFFFFFFFFFFFFFFF DUP2 GT ISZERO PUSH2 0x1133 JUMPI PUSH2 0x1132 PUSH2 0xAB9 JUMP JUMPDEST JUMPDEST PUSH2 0x113F DUP13 DUP3 DUP14 ADD PUSH2 0xBCC JUMP JUMPDEST SWAP10 POP POP PUSH1 0x20 DUP11 ADD CALLDATALOAD PUSH8 0xFFFFFFFFFFFFFFFF DUP2 GT ISZERO PUSH2 0x1160 JUMPI PUSH2 0x115F PUSH2 0xAB9 JUMP JUMPDEST JUMPDEST PUSH2 0x116C DUP13 DUP3 DUP14 ADD PUSH2 0xBCC JUMP JUMPDEST SWAP9 POP POP PUSH1 0x40 DUP11 ADD CALLDATALOAD PUSH8 0xFFFFFFFFFFFFFFFF DUP2 GT ISZERO PUSH2 0x118D JUMPI PUSH2 0x118C PUSH2 0xAB9 JUMP JUMPDEST JUMPDEST PUSH2 0x1199 DUP13 DUP3 DUP14 ADD PUSH2 0xBCC JUMP JUMPDEST SWAP8 POP POP PUSH1 0x60 DUP11 ADD CALLDATALOAD PUSH8 0xFFFFFFFFFFFFFFFF DUP2 GT ISZERO PUSH2 0x11BA JUMPI PUSH2 0x11B9 PUSH2 0xAB9 JUMP JUMPDEST JUMPDEST PUSH2 0x11C6 DUP13 DUP3 DUP14 ADD PUSH2 0xBCC JUMP JUMPDEST SWAP7 POP POP PUSH1 0x80 DUP11 ADD CALLDATALOAD PUSH8 0xFFFFFFFFFFFFFFFF DUP2 GT ISZERO PUSH2 0x11E7 JUMPI PUSH2 0x11E6 PUSH2 0xAB9 JUMP JUMPDEST JUMPDEST PUSH2 0x11F3 DUP13 DUP3 DUP14 ADD PUSH2 0xBCC JUMP JUMPDEST SWAP6 POP POP PUSH1 0xA0 DUP11 ADD CALLDATALOAD PUSH8 0xFFFFFFFFFFFFFFFF DUP2 GT ISZERO PUSH2 0x1214 JUMPI PUSH2 0x1213 PUSH2 0xAB9 JUMP JUMPDEST JUMPDEST PUSH2 0x1220 DUP13 DUP3 DUP14 ADD PUSH2 0xBCC JUMP JUMPDEST SWAP5 POP POP PUSH1 0xC0 PUSH2 0x1231 DUP13 DUP3 DUP14 ADD PUSH2 0xC18 JUMP JUMPDEST SWAP4 POP POP PUSH1 0xE0 DUP11 ADD CALLDATALOAD PUSH8 0xFFFFFFFFFFFFFFFF DUP2 GT ISZERO PUSH2 0x1252 JUMPI PUSH2 0x1251 PUSH2 0xAB9 JUMP JUMPDEST JUMPDEST PUSH2 0x125E DUP13 DUP3 DUP14 ADD PUSH2 0x10CB JUMP JUMPDEST SWAP3 POP POP PUSH2 0x100 PUSH2 0x1270 DUP13 DUP3 DUP14 ADD PUSH2 0xC18 JUMP JUMPDEST SWAP2 POP POP SWAP3 SWAP6 SWAP9 POP SWAP3 SWAP6 SWAP9 POP SWAP3 SWAP6 SWAP9 JUMP JUMPDEST PUSH0 DUP2 SWAP1 POP SWAP3 SWAP2 POP POP JUMP JUMPDEST PUSH0 PUSH2 0x1294 DUP3 PUSH2 0xC86 JUMP JUMPDEST PUSH2 0x129E DUP2 DUP6 PUSH2 0x1280 JUMP JUMPDEST SWAP4 POP PUSH2 0x12AE DUP2 DUP6 PUSH1 0x20 DUP7 ADD PUSH2 0xCA0 JUMP JUMPDEST DUP1 DUP5 ADD SWAP2 POP POP SWAP3 SWAP2 POP POP JUMP JUMPDEST PUSH0 PUSH2 0x12C5 DUP3 DUP5 PUSH2 0x128A JUMP JUMPDEST SWAP2 POP DUP2 SWAP1 POP SWAP3 SWAP2 POP POP JUMP JUMPDEST PUSH32 0x4E487B7100000000000000000000000000000000000000000000000000000000 PUSH0 MSTORE PUSH1 0x22 PUSH1 0x4 MSTORE PUSH1 0x24 PUSH0 REVERT JUMPDEST PUSH0 PUSH1 0x2 DUP3 DIV SWAP1 POP PUSH1 0x1 DUP3 AND DUP1 PUSH2 0x1314 JUMPI PUSH1 0x7F DUP3 AND SWAP2 POP JUMPDEST PUSH1 0x20 DUP3 LT DUP2 SUB PUSH2 0x1327 JUMPI PUSH2 0x1326 PUSH2 0x12D0 JUMP JUMPDEST JUMPDEST POP SWAP2 SWAP1 POP JUMP JUMPDEST PUSH0 DUP1 REVERT JUMPDEST PUSH0 DUP1 REVERT JUMPDEST PUSH0 DUP2 MLOAD SWAP1 POP PUSH2 0x1343 DUP2 PUSH2 0xC02 JUMP JUMPDEST SWAP3 SWAP2 POP POP JUMP JUMPDEST PUSH0 PUSH2 0x135B PUSH2 0x1356 DUP5 PUSH2 0xB4D JUMP JUMPDEST PUSH2 0xB33 JUMP JUMPDEST SWAP1 POP DUP3 DUP2 MSTORE PUSH1 0x20 DUP2 ADD DUP5 DUP5 DUP5 ADD GT ISZERO PUSH2 0x1377 JUMPI PUSH2 0x1376 PUSH2 0xAC1 JUMP JUMPDEST JUMPDEST PUSH2 0x1382 DUP5 DUP3 DUP6 PUSH2 0xCA0 JUMP JUMPDEST POP SWAP4 SWAP3 POP POP POP JUMP JUMPDEST PUSH0 DUP3 PUSH1 0x1F DUP4 ADD SLT PUSH2 0x139E JUMPI PUSH2 0x139D PUSH2 0xABD JUMP JUMPDEST JUMPDEST DUP2 MLOAD PUSH2 0x13AE DUP5 DUP3 PUSH1 0x20 DUP7 ADD PUSH2 0x1349 JUMP JUMPDEST SWAP2 POP POP SWAP3 SWAP2 POP POP JUMP JUMPDEST PUSH0 PUSH1 0xFF DUP3 AND SWAP1 POP SWAP2 SWAP1 POP JUMP JUMPDEST PUSH2 0x13CC DUP2 PUSH2 0x13B7 JUMP JUMPDEST DUP2 EQ PUSH2 0x13D6 JUMPI PUSH0 DUP1 REVERT JUMPDEST POP JUMP JUMPDEST PUSH0 DUP2 MLOAD SWAP1 POP PUSH2 0x13E7 DUP2 PUSH2 0x13C3 JUMP JUMPDEST SWAP3 SWAP2 POP POP JUMP JUMPDEST PUSH0 DUP2 MLOAD SWAP1 POP PUSH2 0x13FB DUP2 PUSH2 0xF00 JUMP JUMPDEST SWAP3 SWAP2 POP POP JUMP JUMPDEST PUSH0 PUSH2 0x160 DUP3 DUP5 SUB SLT ISZERO PUSH2 0x1417 JUMPI PUSH2 0x1416 PUSH2 0x132D JUMP JUMPDEST JUMPDEST PUSH2 0x1422 PUSH2 0x160 PUSH2 0xB33 JUMP JUMPDEST SWAP1 POP PUSH0 PUSH2 0x1431 DUP5 DUP3 DUP6 ADD PUSH2 0x1335 JUMP JUMPDEST PUSH0 DUP4 ADD MSTORE POP PUSH1 0x20 DUP3 ADD MLOAD PUSH8 0xFFFFFFFFFFFFFFFF DUP2 GT ISZERO PUSH2 0x1454 JUMPI PUSH2 0x1453 PUSH2 0x1331 JUMP JUMPDEST JUMPDEST PUSH2 0x1460 DUP5 DUP3 DUP6 ADD PUSH2 0x138A JUMP JUMPDEST PUSH1 0x20 DUP4 ADD MSTORE POP PUSH1 0x40 DUP3 ADD MLOAD PUSH8 0xFFFFFFFFFFFFFFFF DUP2 GT ISZERO PUSH2 0x1484 JUMPI PUSH2 0x1483 PUSH2 0x1331 JUMP JUMPDEST JUMPDEST PUSH2 0x1490 DUP5 DUP3 DUP6 ADD PUSH2 0x138A JUMP JUMPDEST PUSH1 0x40 DUP4 ADD MSTORE POP PUSH1 0x60 PUSH2 0x14A4 DUP5 DUP3 DUP6 ADD PUSH2 0x1335 JUMP JUMPDEST PUSH1 0x60 DUP4 ADD MSTORE POP PUSH1 0x80 DUP3 ADD MLOAD PUSH8 0xFFFFFFFFFFFFFFFF DUP2 GT ISZERO PUSH2 0x14C8 JUMPI PUSH2 0x14C7 PUSH2 0x1331 JUMP JUMPDEST JUMPDEST PUSH2 0x14D4 DUP5 DUP3 DUP6 ADD PUSH2 0x138A JUMP JUMPDEST PUSH1 0x80 DUP4 ADD MSTORE POP PUSH1 0xA0 DUP3 ADD MLOAD PUSH8 0xFFFFFFFFFFFFFFFF DUP2 GT ISZERO PUSH2 0x14F8 JUMPI PUSH2 0x14F7 PUSH2 0x1331 JUMP JUMPDEST JUMPDEST PUSH2 0x1504 DUP5 DUP3 DUP6 ADD PUSH2 0x138A JUMP JUMPDEST PUSH1 0xA0 DUP4 ADD MSTORE POP PUSH1 0xC0 DUP3 ADD MLOAD PUSH8 0xFFFFFFFFFFFFFFFF DUP2 GT ISZERO PUSH2 0x1528 JUMPI PUSH2 0x1527 PUSH2 0x1331 JUMP JUMPDEST JUMPDEST PUSH2 0x1534 DUP5 DUP3 DUP6 ADD PUSH2 0x138A JUMP JUMPDEST PUSH1 0xC0 DUP4 ADD MSTORE POP PUSH1 0xE0 DUP3 ADD MLOAD PUSH8 0xFFFFFFFFFFFFFFFF DUP2 GT ISZERO PUSH2 0x1558 JUMPI PUSH2 0x1557 PUSH2 0x1331 JUMP JUMPDEST JUMPDEST PUSH2 0x1564 DUP5 DUP3 DUP6 ADD PUSH2 0x138A JUMP JUMPDEST PUSH1 0xE0 DUP4 ADD MSTORE POP PUSH2 0x100 PUSH2 0x1579 DUP5 DUP3 DUP6 ADD PUSH2 0x13D9 JUMP JUMPDEST PUSH2 0x100 DUP4 ADD MSTORE POP PUSH2 0x120 PUSH2 0x158F DUP5 DUP3 DUP6 ADD PUSH2 0x13ED JUMP JUMPDEST PUSH2 0x120 DUP4 ADD MSTORE POP PUSH2 0x140 PUSH2 0x15A5 DUP5 DUP3 DUP6 ADD PUSH2 0x13ED JUMP JUMPDEST PUSH2 0x140 DUP4 ADD MSTORE POP SWAP3 SWAP2 POP POP JUMP JUMPDEST PUSH0 PUSH1 0x20 DUP3 DUP5 SUB SLT ISZERO PUSH2 0x15C7 JUMPI PUSH2 0x15C6 PUSH2 0xAB5 JUMP JUMPDEST JUMPDEST PUSH0 DUP3 ADD MLOAD PUSH8 0xFFFFFFFFFFFFFFFF DUP2 GT ISZERO PUSH2 0x15E4 JUMPI PUSH2 0x15E3 PUSH2 0xAB9 JUMP JUMPDEST JUMPDEST PUSH2 0x15F0 DUP5 DUP3 DUP6 ADD PUSH2 0x1401 JUMP JUMPDEST SWAP2 POP POP SWAP3 SWAP2 POP POP JUMP JUMPDEST PUSH0 PUSH1 0xA0 DUP3 DUP5 SUB SLT ISZERO PUSH2 0x160E JUMPI PUSH2 0x160D PUSH2 0x132D JUMP JUMPDEST JUMPDEST PUSH2 0x1618 PUSH1 0xA0 PUSH2 0xB33 JUMP JUMPDEST SWAP1 POP PUSH0 DUP3 ADD MLOAD PUSH8 0xFFFFFFFFFFFFFFFF DUP2 GT ISZERO PUSH2 0x1637 JUMPI PUSH2 0x1636 PUSH2 0x1331 JUMP JUMPDEST JUMPDEST PUSH2 0x1643 DUP5 DUP3 DUP6 ADD PUSH2 0x138A JUMP JUMPDEST PUSH0 DUP4 ADD MSTORE POP PUSH1 0x20 DUP3 ADD MLOAD PUSH8 0xFFFFFFFFFFFFFFFF DUP2 GT ISZERO PUSH2 0x1666 JUMPI PUSH2 0x1665 PUSH2 0x1331 JUMP JUMPDEST JUMPDEST PUSH2 0x1672 DUP5 DUP3 DUP6 ADD PUSH2 0x138A JUMP JUMPDEST PUSH1 0x20 DUP4 ADD MSTORE POP PUSH1 0x40 DUP3 ADD MLOAD PUSH8 0xFFFFFFFFFFFFFFFF DUP2 GT ISZERO PUSH2 0x1696 JUMPI PUSH2 0x1695 PUSH2 0x1331 JUMP JUMPDEST JUMPDEST PUSH2 0x16A2 DUP5 DUP3 DUP6 ADD PUSH2 0x138A JUMP JUMPDEST PUSH1 0x40 DUP4 ADD MSTORE POP PUSH1 0x60 DUP3 ADD MLOAD PUSH8 0xFFFFFFFFFFFFFFFF DUP2 GT ISZERO PUSH2 0x16C6 JUMPI PUSH2 0x16C5 PUSH2 0x1331 JUMP JUMPDEST JUMPDEST PUSH2 0x16D2 DUP5 DUP3 DUP6 ADD PUSH2 0x138A JUMP JUMPDEST PUSH1 0x60 DUP4 ADD MSTORE POP PUSH1 0x80 PUSH2 0x16E6 DUP5 DUP3 DUP6 ADD PUSH2 0x13ED JUMP JUMPDEST PUSH1 0x80 DUP4 ADD MSTORE POP SWAP3 SWAP2 POP POP JUMP JUMPDEST PUSH0 PUSH1 0x20 DUP3 DUP5 SUB SLT ISZERO PUSH2 0x1707 JUMPI PUSH2 0x1706 PUSH2 0xAB5 JUMP JUMPDEST JUMPDEST PUSH0 DUP3 ADD MLOAD PUSH8 0xFFFFFFFFFFFFFFFF DUP2 GT ISZERO PUSH2 0x1724 JUMPI PUSH2 0x1723 PUSH2 0xAB9 JUMP JUMPDEST JUMPDEST PUSH2 0x1730 DUP5 DUP3 DUP6 ADD PUSH2 0x15F9 JUMP JUMPDEST SWAP2 POP POP SWAP3 SWAP2 POP POP JUMP JUMPDEST PUSH0 DUP3 DUP3 MSTORE PUSH1 0x20 DUP3 ADD SWAP1 POP SWAP3 SWAP2 POP POP JUMP JUMPDEST PUSH32 0x6F6E6C79207065726D697373696F6E2063616E20646F20746869730000000000 PUSH0 DUP3 ADD MSTORE POP JUMP JUMPDEST PUSH0 PUSH2 0x177D PUSH1 0x1B DUP4 PUSH2 0x1739 JUMP JUMPDEST SWAP2 POP PUSH2 0x1788 DUP3 PUSH2 0x1749 JUMP JUMPDEST PUSH1 0x20 DUP3 ADD SWAP1 POP SWAP2 SWAP1 POP JUMP JUMPDEST PUSH0 PUSH1 0x20 DUP3 ADD SWAP1 POP DUP2 DUP2 SUB PUSH0 DUP4 ADD MSTORE PUSH2 0x17AA DUP2 PUSH2 0x1771 JUMP JUMPDEST SWAP1 POP SWAP2 SWAP1 POP JUMP JUMPDEST PUSH32 0x4E487B7100000000000000000000000000000000000000000000000000000000 PUSH0 MSTORE PUSH1 0x11 PUSH1 0x4 MSTORE PUSH1 0x24 PUSH0 REVERT JUMPDEST PUSH0 PUSH2 0x17E8 DUP3 PUSH2 0xBF9 JUMP JUMPDEST SWAP2 POP PUSH2 0x17F3 DUP4 PUSH2 0xBF9 JUMP JUMPDEST SWAP3 POP DUP3 DUP3 ADD SWAP1 POP DUP1 DUP3 GT ISZERO PUSH2 0x180B JUMPI PUSH2 0x180A PUSH2 0x17B1 JUMP JUMPDEST JUMPDEST SWAP3 SWAP2 POP POP JUMP JUMPDEST PUSH0 DUP2 SWAP1 POP DUP2 PUSH0 MSTORE PUSH1 0x20 PUSH0 KECCAK256 SWAP1 POP SWAP2 SWAP1 POP JUMP JUMPDEST PUSH0 PUSH1 0x20 PUSH1 0x1F DUP4 ADD DIV SWAP1 POP SWAP2 SWAP1 POP JUMP JUMPDEST PUSH0 DUP3 DUP3 SHL SWAP1 POP SWAP3 SWAP2 POP POP JUMP JUMPDEST PUSH0 PUSH1 0x8 DUP4 MUL PUSH2 0x186D PUSH32 0xFFFFFFFFFFFFFFFFFFFFFFFFFFFFFFFFFFFFFFFFFFFFFFFFFFFFFFFFFFFFFFFF DUP3 PUSH2 0x1832 JUMP JUMPDEST PUSH2 0x1877 DUP7 DUP4 PUSH2 0x1832 JUMP JUMPDEST SWAP6 POP DUP1 NOT DUP5 AND SWAP4 POP DUP1 DUP7 AND DUP5 OR SWAP3 POP POP POP SWAP4 SWAP3 POP POP POP JUMP JUMPDEST PUSH0 DUP2 SWAP1 POP SWAP2 SWAP1 POP JUMP JUMPDEST PUSH0 PUSH2 0x18B2 PUSH2 0x18AD PUSH2 0x18A8 DUP5 PUSH2 0xBF9 JUMP JUMPDEST PUSH2 0x188F JUMP JUMPDEST PUSH2 0xBF9 JUMP JUMPDEST SWAP1 POP SWAP2 SWAP1 POP JUMP JUMPDEST PUSH0 DUP2 SWAP1 POP SWAP2 SWAP1 POP JUMP JUMPDEST PUSH2 0x18CB DUP4 PUSH2 0x1898 JUMP JUMPDEST PUSH2 0x18DF PUSH2 0x18D7 DUP3 PUSH2 0x18B9 JUMP JUMPDEST DUP5 DUP5 SLOAD PUSH2 0x183E JUMP JUMPDEST DUP3 SSTORE POP POP POP POP JUMP JUMPDEST PUSH0 SWAP1 JUMP JUMPDEST PUSH2 0x18F3 PUSH2 0x18E7 JUMP JUMPDEST PUSH2 0x18FE DUP2 DUP5 DUP5 PUSH2 0x18C2 JUMP JUMPDEST POP POP POP JUMP JUMPDEST JUMPDEST DUP2 DUP2 LT ISZERO PUSH2 0x1921 JUMPI PUSH2 0x1916 PUSH0 DUP3 PUSH2 0x18EB JUMP JUMPDEST PUSH1 0x1 DUP2 ADD SWAP1 POP PUSH2 0x1904 JUMP JUMPDEST POP POP JUMP JUMPDEST PUSH1 0x1F DUP3 GT ISZERO PUSH2 0x1966 JUMPI PUSH2 0x1937 DUP2 PUSH2 0x1811 JUMP JUMPDEST PUSH2 0x1940 DUP5 PUSH2 0x1823 JUMP JUMPDEST DUP2 ADD PUSH1 0x20 DUP6 LT ISZERO PUSH2 0x194F JUMPI DUP2 SWAP1 POP JUMPDEST PUSH2 0x1963 PUSH2 0x195B DUP6 PUSH2 0x1823 JUMP JUMPDEST DUP4 ADD DUP3 PUSH2 0x1903 JUMP JUMPDEST POP POP JUMPDEST POP POP POP JUMP JUMPDEST PUSH0 DUP3 DUP3 SHR SWAP1 POP SWAP3 SWAP2 POP POP JUMP JUMPDEST PUSH0 PUSH2 0x1986 PUSH0 NOT DUP5 PUSH1 0x8 MUL PUSH2 0x196B JUMP JUMPDEST NOT DUP1 DUP4 AND SWAP2 POP POP SWAP3 SWAP2 POP POP JUMP JUMPDEST PUSH0 PUSH2 0x199E DUP4 DUP4 PUSH2 0x1977 JUMP JUMPDEST SWAP2 POP DUP3 PUSH1 0x2 MUL DUP3 OR SWAP1 POP SWAP3 SWAP2 POP POP JUMP JUMPDEST PUSH2 0x19B7 DUP3 PUSH2 0xC86 JUMP JUMPDEST PUSH8 0xFFFFFFFFFFFFFFFF DUP2 GT ISZERO PUSH2 0x19D0 JUMPI PUSH2 0x19CF PUSH2 0xAD5 JUMP JUMPDEST JUMPDEST PUSH2 0x19DA DUP3 SLOAD PUSH2 0x12FD JUMP JUMPDEST PUSH2 0x19E5 DUP3 DUP3 DUP6 PUSH2 0x1925 JUMP JUMPDEST PUSH0 PUSH1 0x20 SWAP1 POP PUSH1 0x1F DUP4 GT PUSH1 0x1 DUP2 EQ PUSH2 0x1A16 JUMPI PUSH0 DUP5 ISZERO PUSH2 0x1A04 JUMPI DUP3 DUP8 ADD MLOAD SWAP1 POP JUMPDEST PUSH2 0x1A0E DUP6 DUP3 PUSH2 0x1993 JUMP JUMPDEST DUP7 SSTORE POP PUSH2 0x1A75 JUMP JUMPDEST PUSH1 0x1F NOT DUP5 AND PUSH2 0x1A24 DUP7 PUSH2 0x1811 JUMP JUMPDEST PUSH0 JUMPDEST DUP3 DUP2 LT ISZERO PUSH2 0x1A4B JUMPI DUP5 DUP10 ADD MLOAD DUP3 SSTORE PUSH1 0x1 DUP3 ADD SWAP2 POP PUSH1 0x20 DUP6 ADD SWAP5 POP PUSH1 0x20 DUP2 ADD SWAP1 POP PUSH2 0x1A26 JUMP JUMPDEST DUP7 DUP4 LT ISZERO PUSH2 0x1A68 JUMPI DUP5 DUP10 ADD MLOAD PUSH2 0x1A64 PUSH1 0x1F DUP10 AND DUP3 PUSH2 0x1977 JUMP JUMPDEST DUP4 SSTORE POP JUMPDEST PUSH1 0x1 PUSH1 0x2 DUP9 MUL ADD DUP9 SSTORE POP POP POP JUMPDEST POP POP POP POP POP POP JUMP INVALID LOG2 PUSH5 0x6970667358 0x22 SLT KECCAK256 0xD3 PUSH20 0x646AA61B65796EB3F9E55A29DE2127274A8CB31 PUSH1 0xD9 DUP11 0xA6 0xBD PREVRANDAO ADDMOD 0xE5 OR MSTORE PUSH5 0x736F6C6343 STOP ADDMOD AND STOP CALLER "
		},
		"gasEstimates": {
			"creation": {
				"codeDepositCost": "1367000",
				"executionCost": "infinite",
				"totalCost": "infinite"
			},
			"external": {
				"auditInsuranceData(string,uint256,bool)": "infinite",
				"compareStr(string,string)": "infinite",
				"getMedicalInsuranceDatas(string,uint256)": "infinite",
				"setInsuranceData(string,string,string,string,string,string,uint256,uint256[],uint256)": "infinite"
			}
		},
		"methodIdentifiers": {
			"auditInsuranceData(string,uint256,bool)": "1e1e205b",
			"compareStr(string,string)": "87c5d5cc",
			"getMedicalInsuranceDatas(string,uint256)": "16cec186",
			"setInsuranceData(string,string,string,string,string,string,uint256,uint256[],uint256)": "f0d96389"
		}
	},
	"abi": [
		{
			"inputs": [
				{
					"internalType": "address",
					"name": "_userInfo",
					"type": "address"
				}
			],
			"stateMutability": "nonpayable",
			"type": "constructor"
		},
		{
			"inputs": [
				{
					"internalType": "string",
					"name": "companyId",
					"type": "string"
				},
				{
					"internalType": "uint256",
					"name": "insurerceId",
					"type": "uint256"
				},
				{
					"internalType": "bool",
					"name": "isEffect",
					"type": "bool"
				}
			],
			"name": "auditInsuranceData",
			"outputs": [],
			"stateMutability": "nonpayable",
			"type": "function"
		},
		{
			"inputs": [
				{
					"internalType": "string",
					"name": "_str1",
					"type": "string"
				},
				{
					"internalType": "string",
					"name": "_str2",
					"type": "string"
				}
			],
			"name": "compareStr",
			"outputs": [
				{
					"internalType": "bool",
					"name": "",
					"type": "bool"
				}
			],
			"stateMutability": "pure",
			"type": "function"
		},
		{
			"inputs": [
				{
					"internalType": "string",
					"name": "companyId",
					"type": "string"
				},
				{
					"internalType": "uint256",
					"name": "insurerceId",
					"type": "uint256"
				}
			],
			"name": "getMedicalInsuranceDatas",
			"outputs": [
				{
					"components": [
						{
							"internalType": "string",
							"name": "policyName",
							"type": "string"
						},
						{
							"internalType": "string",
							"name": "policyType",
							"type": "string"
						},
						{
							"internalType": "string",
							"name": "coverage",
							"type": "string"
						},
						{
							"internalType": "string",
							"name": "premium",
							"type": "string"
						},
						{
							"internalType": "string",
							"name": "terms",
							"type": "string"
						},
						{
							"internalType": "uint256",
							"name": "odds",
							"type": "uint256"
						},
						{
							"internalType": "uint256",
							"name": "deathOdds1",
							"type": "uint256"
						},
						{
							"internalType": "uint256",
							"name": "deathOdds2",
							"type": "uint256"
						},
						{
							"internalType": "bool",
							"name": "isEffect",
							"type": "bool"
						},
						{
							"internalType": "uint256[]",
							"name": "diseaseTypeIds",
							"type": "uint256[]"
						},
						{
							"internalType": "uint256",
							"name": "nextIndex",
							"type": "uint256"
						}
					],
					"internalType": "struct MdeicalInsurancePolicy.MedicalInsuranceData",
					"name": "_MedicalInsuranceData",
					"type": "tuple"
				}
			],
			"stateMutability": "view",
			"type": "function"
		},
		{
			"inputs": [
				{
					"internalType": "string",
					"name": "companyId",
					"type": "string"
				},
				{
					"internalType": "string",
					"name": "policyName",
					"type": "string"
				},
				{
					"internalType": "string",
					"name": "policyType",
					"type": "string"
				},
				{
					"internalType": "string",
					"name": "coverage",
					"type": "string"
				},
				{
					"internalType": "string",
					"name": "premium",
					"type": "string"
				},
				{
					"internalType": "string",
					"name": "terms",
					"type": "string"
				},
				{
					"internalType": "uint256",
					"name": "odds",
					"type": "uint256"
				},
				{
					"internalType": "uint256[]",
					"name": "diseaseTypeIds",
					"type": "uint256[]"
				},
				{
					"internalType": "uint256",
					"name": "nextIndex",
					"type": "uint256"
				}
			],
			"name": "setInsuranceData",
			"outputs": [],
			"stateMutability": "nonpayable",
			"type": "function"
		}
	]
}